{
  "contractName": "Holding",
  "abi": [
    {
      "constant": false,
      "inputs": [
        {
          "name": "_newOwner",
          "type": "address"
        },
        {
          "name": "_signature",
          "type": "bytes"
        }
      ],
      "name": "addOwner",
      "outputs": [],
      "payable": false,
      "stateMutability": "nonpayable",
      "type": "function"
    },
    {
      "constant": true,
      "inputs": [
        {
          "name": "_newOwner",
          "type": "address"
        }
      ],
      "name": "addOwnerDigest",
      "outputs": [
        {
          "name": "",
          "type": "bytes32"
        }
      ],
      "payable": false,
      "stateMutability": "view",
      "type": "function"
    },
    {
      "constant": true,
      "inputs": [
        {
          "name": "_address",
          "type": "address"
        }
      ],
      "name": "isOwner",
      "outputs": [
        {
          "name": "",
          "type": "bool"
        }
      ],
      "payable": false,
      "stateMutability": "view",
      "type": "function"
    },
    {
      "constant": false,
      "inputs": [
        {
          "name": "_newSigner",
          "type": "address"
        },
        {
          "name": "_signature",
          "type": "bytes"
        }
      ],
      "name": "addSigner",
      "outputs": [],
      "payable": false,
      "stateMutability": "nonpayable",
      "type": "function"
    },
    {
      "constant": true,
      "inputs": [
        {
          "name": "_signer",
          "type": "address"
        }
      ],
      "name": "removeSignerDigest",
      "outputs": [
        {
          "name": "",
          "type": "bytes32"
        }
      ],
      "payable": false,
      "stateMutability": "view",
      "type": "function"
    },
    {
      "constant": true,
      "inputs": [
        {
          "name": "_address",
          "type": "address"
        }
      ],
      "name": "isSigner",
      "outputs": [
        {
          "name": "",
          "type": "bool"
        }
      ],
      "payable": false,
      "stateMutability": "view",
      "type": "function"
    },
    {
      "constant": false,
      "inputs": [
        {
          "name": "_signer",
          "type": "address"
        },
        {
          "name": "_signature",
          "type": "bytes"
        }
      ],
      "name": "removeSigner",
      "outputs": [],
      "payable": false,
      "stateMutability": "nonpayable",
      "type": "function"
    },
    {
      "constant": true,
      "inputs": [
        {
          "name": "_owner",
          "type": "address"
        }
      ],
      "name": "removeOwnerDigest",
      "outputs": [
        {
          "name": "",
          "type": "bytes32"
        }
      ],
      "payable": false,
      "stateMutability": "view",
      "type": "function"
    },
    {
      "constant": true,
      "inputs": [],
      "name": "_debtsSize",
      "outputs": [
        {
          "name": "",
          "type": "uint256"
        }
      ],
      "payable": false,
      "stateMutability": "view",
      "type": "function"
    },
    {
      "constant": true,
      "inputs": [
        {
          "name": "",
          "type": "bytes32"
        }
      ],
      "name": "debts",
      "outputs": [
        {
          "name": "destination",
          "type": "address"
        },
        {
          "name": "token",
          "type": "address"
        },
        {
          "name": "collectionAfter",
          "type": "uint256"
        },
        {
          "name": "amount",
          "type": "uint256"
        },
        {
          "name": "salt",
          "type": "uint16"
        }
      ],
      "payable": false,
      "stateMutability": "view",
      "type": "function"
    },
    {
      "constant": true,
      "inputs": [],
      "name": "_retiringPeriod",
      "outputs": [
        {
          "name": "",
          "type": "uint256"
        }
      ],
      "payable": false,
      "stateMutability": "view",
      "type": "function"
    },
    {
      "constant": false,
      "inputs": [
        {
          "name": "_owner",
          "type": "address"
        },
        {
          "name": "_signature",
          "type": "bytes"
        }
      ],
      "name": "removeOwner",
      "outputs": [],
      "payable": false,
      "stateMutability": "nonpayable",
      "type": "function"
    },
    {
      "constant": true,
      "inputs": [],
      "name": "_balanceSize",
      "outputs": [
        {
          "name": "",
          "type": "uint256"
        }
      ],
      "payable": false,
      "stateMutability": "view",
      "type": "function"
    },
    {
      "constant": true,
      "inputs": [
        {
          "name": "_newSigner",
          "type": "address"
        }
      ],
      "name": "addSignerDigest",
      "outputs": [
        {
          "name": "",
          "type": "bytes32"
        }
      ],
      "payable": false,
      "stateMutability": "view",
      "type": "function"
    },
    {
      "constant": true,
      "inputs": [],
      "name": "_clearingHouse",
      "outputs": [
        {
          "name": "",
          "type": "address"
        }
      ],
      "payable": false,
      "stateMutability": "view",
      "type": "function"
    },
    {
      "constant": true,
      "inputs": [
        {
          "name": "",
          "type": "address"
        }
      ],
      "name": "balance",
      "outputs": [
        {
          "name": "",
          "type": "uint256"
        }
      ],
      "payable": false,
      "stateMutability": "view",
      "type": "function"
    },
    {
      "constant": true,
      "inputs": [],
      "name": "_retiringUntil",
      "outputs": [
        {
          "name": "",
          "type": "uint256"
        }
      ],
      "payable": false,
      "stateMutability": "view",
      "type": "function"
    },
    {
      "constant": true,
      "inputs": [],
      "name": "_currentState",
      "outputs": [
        {
          "name": "",
          "type": "uint8"
        }
      ],
      "payable": false,
      "stateMutability": "view",
      "type": "function"
    },
    {
      "inputs": [
        {
          "name": "retiringPeriod",
          "type": "uint256"
        },
        {
          "name": "clearingHouse",
          "type": "address"
        }
      ],
      "payable": false,
      "stateMutability": "nonpayable",
      "type": "constructor"
    },
    {
      "payable": true,
      "stateMutability": "payable",
      "type": "fallback"
    },
    {
      "anonymous": false,
      "inputs": [
        {
          "indexed": true,
          "name": "token",
          "type": "address"
        },
        {
          "indexed": false,
          "name": "amount",
          "type": "uint256"
        }
      ],
      "name": "DidDeposit",
      "type": "event"
    },
    {
      "anonymous": false,
      "inputs": [
        {
          "indexed": true,
          "name": "destination",
          "type": "address"
        },
        {
          "indexed": true,
          "name": "token",
          "type": "address"
        },
        {
          "indexed": false,
          "name": "amount",
          "type": "uint256"
        }
      ],
      "name": "DidAddDebt",
      "type": "event"
    },
    {
      "anonymous": false,
      "inputs": [
        {
          "indexed": true,
          "name": "destination",
          "type": "address"
        },
        {
          "indexed": true,
          "name": "token",
          "type": "address"
        },
        {
          "indexed": false,
          "name": "amount",
          "type": "uint256"
        }
      ],
      "name": "DidCollect",
      "type": "event"
    },
    {
      "anonymous": false,
      "inputs": [
        {
          "indexed": true,
          "name": "destination",
          "type": "address"
        },
        {
          "indexed": true,
          "name": "token",
          "type": "address"
        },
        {
          "indexed": false,
          "name": "amount",
          "type": "uint256"
        }
      ],
      "name": "DidClose",
      "type": "event"
    },
    {
      "anonymous": false,
      "inputs": [
        {
          "indexed": true,
          "name": "destination",
          "type": "address"
        },
        {
          "indexed": true,
          "name": "token",
          "type": "address"
        },
        {
          "indexed": false,
          "name": "amount",
          "type": "uint256"
        }
      ],
      "name": "DidWithdraw",
      "type": "event"
    },
    {
      "anonymous": false,
      "inputs": [
        {
          "indexed": true,
          "name": "destination",
          "type": "address"
        },
        {
          "indexed": true,
          "name": "token",
          "type": "address"
        },
        {
          "indexed": false,
          "name": "amount",
          "type": "uint256"
        }
      ],
      "name": "DidForgive",
      "type": "event"
    },
    {
      "anonymous": false,
      "inputs": [
        {
          "indexed": false,
          "name": "_id",
          "type": "bytes32"
        }
      ],
      "name": "DidRemoveDebt",
      "type": "event"
    },
    {
      "anonymous": false,
      "inputs": [
        {
          "indexed": true,
          "name": "_token",
          "type": "address"
        },
        {
          "indexed": false,
          "name": "_amount",
          "type": "uint256"
        },
        {
          "indexed": false,
          "name": "_id",
          "type": "bytes32"
        }
      ],
      "name": "DidOnCollectDebt",
      "type": "event"
    },
    {
      "anonymous": false,
      "inputs": [],
      "name": "DidRetired",
      "type": "event"
    },
    {
      "anonymous": false,
      "inputs": [],
      "name": "DidStop",
      "type": "event"
    },
    {
      "anonymous": false,
      "inputs": [
        {
          "indexed": true,
          "name": "account",
          "type": "address"
        }
      ],
      "name": "SignerAdded",
      "type": "event"
    },
    {
      "anonymous": false,
      "inputs": [
        {
          "indexed": true,
          "name": "account",
          "type": "address"
        }
      ],
      "name": "SignerRemoved",
      "type": "event"
    },
    {
      "constant": false,
      "inputs": [],
      "name": "currentState",
      "outputs": [
        {
          "name": "",
          "type": "uint8"
        }
      ],
      "payable": false,
      "stateMutability": "nonpayable",
      "type": "function"
    },
    {
      "constant": false,
      "inputs": [
        {
          "name": "_signature",
          "type": "bytes"
        }
      ],
      "name": "retire",
      "outputs": [],
      "payable": false,
      "stateMutability": "nonpayable",
      "type": "function"
    },
    {
      "constant": false,
      "inputs": [],
      "name": "stop",
      "outputs": [],
      "payable": false,
      "stateMutability": "nonpayable",
      "type": "function"
    },
    {
      "constant": false,
      "inputs": [
        {
          "name": "_token",
          "type": "address"
        },
        {
          "name": "_amount",
          "type": "uint256"
        }
      ],
      "name": "deposit",
      "outputs": [],
      "payable": true,
      "stateMutability": "payable",
      "type": "function"
    },
    {
      "constant": false,
      "inputs": [
        {
          "name": "_destination",
          "type": "address"
        },
        {
          "name": "_token",
          "type": "address"
        },
        {
          "name": "_amount",
          "type": "uint256"
        },
        {
          "name": "_signature",
          "type": "bytes"
        }
      ],
      "name": "withdraw",
      "outputs": [],
      "payable": false,
      "stateMutability": "nonpayable",
      "type": "function"
    },
    {
      "constant": false,
      "inputs": [
        {
          "name": "_id",
          "type": "bytes32"
        },
        {
          "name": "_signature",
          "type": "bytes"
        }
      ],
      "name": "collectDebt",
      "outputs": [],
      "payable": false,
      "stateMutability": "nonpayable",
      "type": "function"
    },
    {
      "constant": false,
      "inputs": [
        {
          "name": "_destination",
          "type": "address"
        },
        {
          "name": "_token",
          "type": "address"
        },
        {
          "name": "_amount",
          "type": "uint256"
        },
        {
          "name": "_salt",
          "type": "uint16"
        },
        {
          "name": "_settlementPeriod",
          "type": "uint256"
        },
        {
          "name": "_sigDebtor",
          "type": "bytes"
        },
        {
          "name": "_sigCreditor",
          "type": "bytes"
        }
      ],
      "name": "addDebt",
      "outputs": [],
      "payable": false,
      "stateMutability": "nonpayable",
      "type": "function"
    },
    {
      "constant": false,
      "inputs": [
        {
          "name": "_id",
          "type": "bytes32"
        },
        {
          "name": "_signature",
          "type": "bytes"
        }
      ],
      "name": "forgiveDebt",
      "outputs": [],
      "payable": false,
      "stateMutability": "nonpayable",
      "type": "function"
    },
    {
      "constant": false,
      "inputs": [
        {
          "name": "_id",
          "type": "bytes32"
        }
      ],
      "name": "removeDebt",
      "outputs": [],
      "payable": false,
      "stateMutability": "nonpayable",
      "type": "function"
    },
    {
      "constant": true,
      "inputs": [
        {
          "name": "_destination",
          "type": "address"
        },
        {
          "name": "_token",
          "type": "address"
        }
      ],
      "name": "forgiveDigest",
      "outputs": [
        {
          "name": "",
          "type": "bytes32"
        }
      ],
      "payable": false,
      "stateMutability": "pure",
      "type": "function"
    },
    {
      "constant": true,
      "inputs": [
        {
          "name": "_token",
          "type": "address"
        }
      ],
      "name": "collectDigest",
      "outputs": [
        {
          "name": "",
          "type": "bytes32"
        }
      ],
      "payable": false,
      "stateMutability": "pure",
      "type": "function"
    },
    {
      "constant": true,
      "inputs": [
        {
          "name": "_destination",
          "type": "address"
        },
        {
          "name": "_token",
          "type": "address"
        },
        {
          "name": "_amount",
          "type": "uint256"
        }
      ],
      "name": "withdrawDigest",
      "outputs": [
        {
          "name": "",
          "type": "bytes32"
        }
      ],
      "payable": false,
      "stateMutability": "pure",
      "type": "function"
    },
    {
      "constant": true,
      "inputs": [
        {
          "name": "contractAddress",
          "type": "address"
        }
      ],
      "name": "retireDigest",
      "outputs": [
        {
          "name": "",
          "type": "bytes32"
        }
      ],
      "payable": false,
      "stateMutability": "pure",
      "type": "function"
    },
    {
      "constant": true,
      "inputs": [
        {
          "name": "_destination",
          "type": "address"
        },
        {
          "name": "_token",
          "type": "address"
        },
        {
          "name": "_amount",
          "type": "uint256"
        },
        {
          "name": "_settlementPeriod",
          "type": "uint256"
        }
      ],
      "name": "addDebtDigest",
      "outputs": [
        {
          "name": "",
          "type": "bytes32"
        }
      ],
      "payable": false,
      "stateMutability": "pure",
      "type": "function"
    },
    {
      "constant": true,
      "inputs": [
        {
          "name": "_destination",
          "type": "address"
        },
        {
          "name": "_token",
          "type": "address"
        },
        {
          "name": "_salt",
          "type": "uint16"
        }
      ],
      "name": "debtIdentifier",
      "outputs": [
        {
          "name": "",
          "type": "bytes32"
        }
      ],
      "payable": false,
      "stateMutability": "view",
      "type": "function"
    },
    {
      "constant": false,
      "inputs": [
        {
          "name": "_token",
          "type": "address"
        },
        {
          "name": "_amount",
          "type": "uint256"
        },
        {
          "name": "_id",
          "type": "bytes32"
        }
      ],
      "name": "onCollectDebt",
      "outputs": [],
      "payable": true,
      "stateMutability": "payable",
      "type": "function"
    }
  ],
  "bytecode": "0x60806040523480156200001157600080fd5b50604051604080620035b8833981018060405260408110156200003357600080fd5b50805160209091015160018054600160a060020a031916309081179091556200006c6000336401000000006200330b620000ca82021704565b50620000886002336401000000006200330b620000ca82021704565b600491909155600060058190556003805460ff19600160a060020a03949094166101000261010060a860020a031990911617929092169091556006556200015d565b600160a060020a0381161515620000e057600080fd5b620000f5828264010000000062000125810204565b156200010057600080fd5b600160a060020a0316600090815260209190915260409020805460ff19166001179055565b6000600160a060020a03821615156200013d57600080fd5b50600160a060020a03166000908152602091909152604090205460ff1690565b61344b806200016d6000396000f3fe6080604052600436106101925763ffffffff60e060020a6000350416630338f63a811461027d57806307da68f5146103425780630c3f6acf146103575780630c7bc5d4146103905780631cfb50d9146103ba5780632f54bf6e146103ff578063343b286f146104465780633785f7a9146104f957806347e7ef24146106635780634b544c1d1461068f5780635034c19b146107525780635461087a14610785578063659378aa146107c057806368ff236514610803578063782efb141461084b5780637df73e271461087e5780637ebab117146108b15780638cdcd73c14610974578063900b5a1b146109a75780639894b27914610a61578063a9caa41114610a76578063b2ddae4214610adb578063b3d9774514610af0578063c3d0664114610baa578063c48fa7be14610c6d578063c760c5a114610c82578063c981a24c14610ccb578063d2616fc014610cfe578063e27dd7b614610d30578063e3d670d714610d61578063ed9fe44a14610d94578063ef6e86cb14610dc7578063f2801e2b14610ddc578063f37e8d3814610df1575b6000805260096020527fec8156718a8372b1db44bb411437d0870f3e3790d4a08526d024ce1b0b668f6b5415156101db576007546101d790600163ffffffff610ec416565b6007555b6000805260096020527fec8156718a8372b1db44bb411437d0870f3e3790d4a08526d024ce1b0b668f6b54610216903463ffffffff610ec416565b6000808052600960209081527fec8156718a8372b1db44bb411437d0870f3e3790d4a08526d024ce1b0b668f6b9290925560408051348152905191927f67b910fa040657b3d16456bb3485c92024c708a57feebdd18e1fbd5b7d028d9f92918290030190a2005b34801561028957600080fd5b50610340600480360360408110156102a057600080fd5b600160a060020a0382351691908101906040810160208201356401000000008111156102cb57600080fd5b8201836020820111156102dd57600080fd5b803590602001918460018302840111640100000000831117156102ff57600080fd5b91908080601f016020809104026020016040519081016040528093929190818152602001838380828437600092019190915250929550610edf945050505050565b005b34801561034e57600080fd5b50610340610f9e565b34801561036357600080fd5b5061036c611130565b6040518082600281111561037c57fe5b60ff16815260200191505060405180910390f35b34801561039c57600080fd5b50610340600480360360208110156103b357600080fd5b5035611164565b3480156103c657600080fd5b506103ed600480360360208110156103dd57600080fd5b5035600160a060020a03166113d1565b60408051918252519081900360200190f35b34801561040b57600080fd5b506104326004803603602081101561042257600080fd5b5035600160a060020a0316611443565b604080519115158252519081900360200190f35b34801561045257600080fd5b506103406004803603602081101561046957600080fd5b81019060208101813564010000000081111561048457600080fd5b82018360208201111561049657600080fd5b803590602001918460018302840111640100000000831117156104b857600080fd5b91908080601f016020809104026020016040519081016040528093929190818152602001838380828437600092019190915250929550611456945050505050565b34801561050557600080fd5b50610340600480360360e081101561051c57600080fd5b600160a060020a03823581169260208101359091169160408201359161ffff606082013516916080820135919081019060c0810160a082013564010000000081111561056757600080fd5b82018360208201111561057957600080fd5b8035906020019184600183028401116401000000008311171561059b57600080fd5b91908080601f01602080910402602001604051908101604052809392919081815260200183838082843760009201919091525092959493602081019350359150506401000000008111156105ee57600080fd5b82018360208201111561060057600080fd5b8035906020019184600183028401116401000000008311171561062257600080fd5b91908080601f016020809104026020016040519081016040528093929190818152602001838380828437600092019190915250929550611580945050505050565b6103406004803603604081101561067957600080fd5b50600160a060020a0381351690602001356119b9565b34801561069b57600080fd5b50610340600480360360408110156106b257600080fd5b600160a060020a0382351691908101906040810160208201356401000000008111156106dd57600080fd5b8201836020820111156106ef57600080fd5b8035906020019184600183028401116401000000008311171561071157600080fd5b91908080601f016020809104026020016040519081016040528093929190818152602001838380828437600092019190915250929550611c1c945050505050565b34801561075e57600080fd5b506103ed6004803603602081101561077557600080fd5b5035600160a060020a0316611d93565b34801561079157600080fd5b506103ed600480360360408110156107a857600080fd5b50600160a060020a0381358116916020013516611e05565b3480156107cc57600080fd5b506103ed600480360360608110156107e357600080fd5b50600160a060020a03813581169160208101359091169060400135611e79565b34801561080f57600080fd5b506103ed6004803603606081101561082657600080fd5b508035600160a060020a03908116916020810135909116906040013561ffff16611ef2565b34801561085757600080fd5b506103ed6004803603602081101561086e57600080fd5b5035600160a060020a0316611f41565b34801561088a57600080fd5b50610432600480360360208110156108a157600080fd5b5035600160a060020a0316611fa8565b3480156108bd57600080fd5b50610340600480360360408110156108d457600080fd5b600160a060020a0382351691908101906040810160208201356401000000008111156108ff57600080fd5b82018360208201111561091157600080fd5b8035906020019184600183028401116401000000008311171561093357600080fd5b91908080601f016020809104026020016040519081016040528093929190818152602001838380828437600092019190915250929550611fba945050505050565b34801561098057600080fd5b506103ed6004803603602081101561099757600080fd5b5035600160a060020a0316612131565b3480156109b357600080fd5b50610340600480360360408110156109ca57600080fd5b813591908101906040810160208201356401000000008111156109ec57600080fd5b8201836020820111156109fe57600080fd5b80359060200191846001830284011164010000000083111715610a2057600080fd5b91908080601f0160208091040260200160405190810160405280939291908181526020018383808284376000920191909152509295506121a3945050505050565b348015610a6d57600080fd5b506103ed612476565b348015610a8257600080fd5b50610aa060048036036020811015610a9957600080fd5b503561247c565b60408051600160a060020a03968716815294909516602085015283850192909252606083015261ffff16608082015290519081900360a00190f35b348015610ae757600080fd5b506103ed6124bb565b348015610afc57600080fd5b5061034060048036036040811015610b1357600080fd5b81359190810190604081016020820135640100000000811115610b3557600080fd5b820183602082011115610b4757600080fd5b80359060200191846001830284011164010000000083111715610b6957600080fd5b91908080601f0160208091040260200160405190810160405280939291908181526020018383808284376000920191909152509295506124c1945050505050565b348015610bb657600080fd5b5061034060048036036040811015610bcd57600080fd5b600160a060020a038235169190810190604081016020820135640100000000811115610bf857600080fd5b820183602082011115610c0a57600080fd5b80359060200191846001830284011164010000000083111715610c2c57600080fd5b91908080601f016020809104026020016040519081016040528093929190818152602001838380828437600092019190915250929550612b4b945050505050565b348015610c7957600080fd5b506103ed612bff565b348015610c8e57600080fd5b506103ed60048036036080811015610ca557600080fd5b50600160a060020a03813581169160208101359091169060408101359060600135612c05565b348015610cd757600080fd5b506103ed60048036036020811015610cee57600080fd5b5035600160a060020a0316612c87565b61034060048036036060811015610d1457600080fd5b50600160a060020a038135169060208101359060400135612cf9565b348015610d3c57600080fd5b50610d45612dd8565b60408051600160a060020a039092168252519081900360200190f35b348015610d6d57600080fd5b506103ed60048036036020811015610d8457600080fd5b5035600160a060020a0316612dec565b348015610da057600080fd5b506103ed60048036036020811015610db757600080fd5b5035600160a060020a0316612dfe565b348015610dd357600080fd5b506103ed612e65565b348015610de857600080fd5b5061036c612e6b565b348015610dfd57600080fd5b5061034060048036036080811015610e1457600080fd5b600160a060020a03823581169260208101359091169160408201359190810190608081016060820135640100000000811115610e4f57600080fd5b820183602082011115610e6157600080fd5b80359060200191846001830284011164010000000083111715610e8357600080fd5b91908080601f016020809104026020016040519081016040528093929190818152602001838380828437600092019190915250929550612e74945050505050565b600082820183811015610ed657600080fd5b90505b92915050565b6000610ef2610eed846113d1565b6131e4565b90506000610f008284613235565b9050610f0b81611443565b1515610f87576040805160e560020a62461bcd02815260206004820152602b60248201527f6164644f776e65723a2053686f756c64206265207369676e6564206279206f6e60448201527f65206f66206f776e657273000000000000000000000000000000000000000000606482015290519081900360840190fd5b610f9860028563ffffffff61330b16565b50505050565b6002610fa8611130565b6002811115610fb357fe5b14611008576040805160e560020a62461bcd02815260206004820181905260248201527f73746f703a204d75737420626520696e204469736d6973736564207374617465604482015290519081900360640190fd5b60065415611086576040805160e560020a62461bcd02815260206004820152602d60248201527f73746f703a2054686572652061726520736f6d6520646562747320657869737460448201527f7320696e20636f6e747261637400000000000000000000000000000000000000606482015290519081900360840190fd5b60075415611104576040805160e560020a62461bcd02815260206004820152603660248201527f73746f703a204e65656420746f2068617665206e756c6c2062616c616e63657360448201527f20666f72207573696e672073746f70206d6574686f6400000000000000000000606482015290519081900360840190fd5b6040517fe9bfaf6fba36e18b5ab59d3ce474c3c6ca70a774281a289427aedb69a046a1ea90600090a133ff5b600060055460001415801561114757506005544210155b1561115a576003805460ff191660021790555b5060035460ff1690565b600354604080517f881b08da0000000000000000000000000000000000000000000000000000000081523060048201526024810184905290516000926101009004600160a060020a03169163881b08da916044808301926020929190829003018186803b1580156111d457600080fd5b505afa1580156111e8573d6000803e3d6000fd5b505050506040513d60208110156111fe57600080fd5b5051600083815260086020526040902060038101546002909101549192501590151561129a576040805160e560020a62461bcd02815260206004820152602960248201527f72656d6f7665446562743a20446562742077697468205f696420646f6573206e60448201527f6f74206578697374730000000000000000000000000000000000000000000000606482015290519081900360840190fd5b81806112a35750805b1515611345576040805160e560020a62461bcd02815260206004820152604960248201527f72656d6f7665446562743a2052656d6f7665642064656274206d75737420626560448201527f20636c656172656420696e20436c656172696e67486f757365204f522066756c60648201527f6c79207265706169640000000000000000000000000000000000000000000000608482015290519081900360a40190fd5b6000838152600860209081526040808320805473ffffffffffffffffffffffffffffffffffffffff19908116825560018201805490911690556002810184905560038101939093556004909201805461ffff19169055815185815291517f7ce0cf327c370bf6b1e0620b0441056ef3f2b35ce01ab97a7316d61b047209389281900390910190a1505050565b604080513081830152600160a060020a038316606080830191909152602080830191909152600260808301527f616f00000000000000000000000000000000000000000000000000000000000060a0808401919091528351808403909101815260c09092019092528051910120919050565b6000610ed960028363ffffffff61335916565b6000611460611130565b600281111561146b57fe5b146114c0576040805160e560020a62461bcd02815260206004820152601f60248201527f7265746972653a204d75737420626520696e2041637469766520737461746500604482015290519081900360640190fd5b60006114ce610eed30611f41565b905060006114dc8284613235565b90506114e781611fa8565b151561153d576040805160e560020a62461bcd02815260206004820152601860248201527f7265746972653a2053686f756c64206265207369676e65640000000000000000604482015290519081900360640190fd5b60045442016005556003805460ff191660011790556040517fdea62f60aed6357392635b274709928e0e2e422770c1885e3075f93f63237fbe90600090a1505050565b600261158a611130565b600281111561159557fe5b1415611611576040805160e560020a62461bcd02815260206004820152603d60248201527f616464446562743a20436f6e747261637420697320696e206469736d6973736560448201527f642073746174652e2043616e206e6f7420616464206e65772064656274000000606482015290519081900360840190fd5b6000611622610eed89898988612c05565b905060006116308285613235565b905061163b81611fa8565b15156116b7576040805160e560020a62461bcd02815260206004820152602260248201527f616464446562743a2053686f756c64206265207369676e6564206279206f776e60448201527f6572000000000000000000000000000000000000000000000000000000000000606482015290519081900360840190fd5b60006116c38385613235565b905060008a905080600160a060020a0316637df73e27836040518263ffffffff1660e060020a0281526004018082600160a060020a0316600160a060020a0316815260200191505060206040518083038186803b15801561172357600080fd5b505afa158015611737573d6000803e3d6000fd5b505050506040513d602081101561174d57600080fd5b505115156117cb576040805160e560020a62461bcd02815260206004820152602560248201527f616464446562743a2053686f756c64206265207369676e65642062792063726560448201527f6469746f72000000000000000000000000000000000000000000000000000000606482015290519081900360840190fd5b60006117d88c8c8b611ef2565b60008181526008602052604090206002015490915015611868576040805160e560020a62461bcd02815260206004820152602260248201527f616464446562743a2043616e206e6f74206f766572726964652065786973746960448201527f6e67000000000000000000000000000000000000000000000000000000000000606482015290519081900360840190fd5b60a0604051908101604052808d600160a060020a031681526020018c600160a060020a0316815260200189420181526020018b81526020018a61ffff168152506008600083815260200190815260200160002060008201518160000160006101000a815481600160a060020a030219169083600160a060020a0316021790555060208201518160010160006101000a815481600160a060020a030219169083600160a060020a03160217905550604082015181600201556060820151816003015560808201518160040160006101000a81548161ffff021916908361ffff1602179055509050506119656001600654610ec490919063ffffffff16565b600655604080518b81529051600160a060020a03808e1692908f16917f2d078bdbe31a4f135549319bb8f04e34ce787751d920f5649c307e61e2d8755b9181900360200190a3505050505050505050505050565b600160a060020a0382161515611a4b57348114611a46576040805160e560020a62461bcd02815260206004820152602b60248201527f6465706f7369743a206d73672e76616c756520616e6420616d6f756e74206d7560448201527f737420626520657175616c000000000000000000000000000000000000000000606482015290519081900360840190fd5b611b66565b604080517f23b872dd0000000000000000000000000000000000000000000000000000000081523360048201523060248201526044810183905290518391600160a060020a038316916323b872dd916064808201926020929091908290030181600087803b158015611abc57600080fd5b505af1158015611ad0573d6000803e3d6000fd5b505050506040513d6020811015611ae657600080fd5b50511515611b64576040805160e560020a62461bcd02815260206004820152603160248201527f6465706f7369743a20556e61626c6520746f207472616e7366657220746f6b6560448201527f6e20746f2074686520636f6e7472616374000000000000000000000000000000606482015290519081900360840190fd5b505b600160a060020a0382166000908152600960205260409020541515611b9d57600754611b9990600163ffffffff610ec416565b6007555b600160a060020a038216600090815260096020526040902054611bc6908263ffffffff610ec416565b600160a060020a038316600081815260096020908152604091829020939093558051848152905191927f67b910fa040657b3d16456bb3485c92024c708a57feebdd18e1fbd5b7d028d9f92918290030190a25050565b6000611c2a610eed84612c87565b90506000611c388284613235565b600154604080517f2f54bf6e000000000000000000000000000000000000000000000000000000008152600160a060020a0380851660048301529151939450911691632f54bf6e91602480820192602092909190829003018186803b158015611ca057600080fd5b505afa158015611cb4573d6000803e3d6000fd5b505050506040513d6020811015611cca57600080fd5b50511515611d48576040805160e560020a62461bcd02815260206004820152602c60248201527f6164645369676e65723a2053686f756c64206265207369676e6564206279206f60448201527f6e65206f66206f776e6572730000000000000000000000000000000000000000606482015290519081900360840190fd5b611d5960008563ffffffff61330b16565b604051600160a060020a038516907f47d1c22a25bb3a5d4e481b9b1e6944c2eade3181a0a20b495ed61d35b5323f2490600090a250505050565b604080513081830152600160a060020a038316606080830191909152602080830191909152600260808301527f727300000000000000000000000000000000000000000000000000000000000060a0808401919091528351808403909101815260c09092019092528051910120919050565b60408051600160a060020a039384168183015291909216606080830191909152602080830191909152600260808301527f666f00000000000000000000000000000000000000000000000000000000000060a0808401919091528351808403909101815260c0909201909252805191012090565b60408051600160a060020a0394851681830152929093166060830152608080830191909152602080830191909152600260a08301527f776900000000000000000000000000000000000000000000000000000000000060c0808401919091528351808403909101815260e0909201909252805191012090565b6040805130602080830191909152600160a060020a039586168284015293909416606085015261ffff919091166080808501919091528151808503909101815260a09093019052815191012090565b60408051600160a060020a038316818301526020808201839052600260608301527f72650000000000000000000000000000000000000000000000000000000000006080808401919091528351808403909101815260a09092019092528051910120919050565b6000610ed9818363ffffffff61335916565b6000611fc8610eed84611d93565b90506000611fd68284613235565b600154604080517f2f54bf6e000000000000000000000000000000000000000000000000000000008152600160a060020a0380851660048301529151939450911691632f54bf6e91602480820192602092909190829003018186803b15801561203e57600080fd5b505afa158015612052573d6000803e3d6000fd5b505050506040513d602081101561206857600080fd5b505115156120e6576040805160e560020a62461bcd02815260206004820152602f60248201527f72656d6f76655369676e65723a2053686f756c64206265207369676e6564206260448201527f79206f6e65206f66206f776e6572730000000000000000000000000000000000606482015290519081900360840190fd5b6120f760008563ffffffff61339016565b604051600160a060020a038516907f3525e22824a8a7df2c9a6029941c824cf95b6447f1e13d5128fd3826d35afe8b90600090a250505050565b604080513081830152600160a060020a038316606080830191909152602080830191909152600260808301527f726f00000000000000000000000000000000000000000000000000000000000060a0808401919091528351808403909101815260c09092019092528051910120919050565b6121ab6133f1565b506000828152600860209081526040808320815160a0810183528154600160a060020a0390811680835260018401549091169482018590526002830154938201939093526003820154606082015260049091015461ffff16608082015292909190829061221b610eed8385611e05565b905060006122298288613235565b905082600160a060020a0316637df73e27826040518263ffffffff1660e060020a0281526004018082600160a060020a0316600160a060020a0316815260200191505060206040518083038186803b15801561228457600080fd5b505afa158015612298573d6000803e3d6000fd5b505050506040513d60208110156122ae57600080fd5b5051151561232c576040805160e560020a62461bcd02815260206004820152602660248201527f666f7267697665446562743a2053686f756c64206265207369676e656420627960448201527f206f746865720000000000000000000000000000000000000000000000000000606482015290519081900360840190fd5b6000888152600860205260408120805473ffffffffffffffffffffffffffffffffffffffff19908116825560018083018054909216909155600282018390556003820192909255600401805461ffff191690556006546123919163ffffffff6133dc16565b60068054919091039055600354604080517f2d8525b8000000000000000000000000000000000000000000000000000000008152600481018b90529051610100909204600160a060020a031691632d8525b89160248082019260009290919082900301818387803b15801561240557600080fd5b505af1158015612419573d6000803e3d6000fd5b5050505083600160a060020a031685600160a060020a03167f072344a4137dcbffc9234fb806e11a55d95c374109775da8c77d5ed36b8fe9ed88606001516040518082815260200191505060405180910390a35050505050505050565b60065481565b60086020526000908152604090208054600182015460028301546003840154600490940154600160a060020a03938416949390921692909161ffff1685565b60045481565b6124c96133f1565b50600082815260086020908152604091829020825160a0810184528154600160a060020a039081168252600183015416928101929092526002810154928201839052600381015460608301526004015461ffff16608082015290151561259f576040805160e560020a62461bcd02815260206004820152603260248201527f636f6c6c656374446562743a204465627420776974682073706563696669656460448201527f20494420646f6573206e6f7420666f756e640000000000000000000000000000606482015290519081900360840190fd5b805160208201518160006125b5610eed84612dfe565b905060006125c38288613235565b905082600160a060020a0316637df73e27826040518263ffffffff1660e060020a0281526004018082600160a060020a0316600160a060020a0316815260200191505060206040518083038186803b15801561261e57600080fd5b505afa158015612632573d6000803e3d6000fd5b505050506040513d602081101561264857600080fd5b505115156126c6576040805160e560020a62461bcd02815260206004820152603d60248201527f636f6c6c656374446562743a2053686f756c64206265207369676e656420627960448201527f206f74686572206f722077726f6e6720736f7572636520646967657374000000606482015290519081900360840190fd5b6040860151421015612748576040805160e560020a62461bcd02815260206004820152602c60248201527f636f6c6c656374446562743a2043616e206f6e6c7920636f6c6c65637420657860448201527f697374696e672073747566660000000000000000000000000000000000000000606482015290519081900360840190fd5b600160a060020a0384166000908152600960205260408120546060880151111561278b5750600160a060020a03841660009081526009602052604090205461284a565b86606001519050600360019054906101000a9004600160a060020a0316600160a060020a0316632d8525b88a6040518263ffffffff1660e060020a02815260040180828152602001915050600060405180830381600087803b1580156127f057600080fd5b505af1158015612804573d6000803e3d6000fd5b5050604080518481529051600160a060020a03808a1694508a1692507e6961675c3a86ce692a816fc0690bea5024beddb204bddab036805b1e41ed649181900360200190a35b606087015161285f908263ffffffff6133dc16565b60008a815260086020908152604080832060030193909355600160a060020a0388168252600990522054612899908263ffffffff6133dc16565b600160a060020a038616600081815260096020526040902091909155151561294c57604080517fd2616fc0000000000000000000000000000000000000000000000000000000008152600160a060020a03878116600483015260248201849052604482018c905291519186169163d2616fc0918491606480830192600092919082900301818588803b15801561292e57600080fd5b505af1158015612942573d6000803e3d6000fd5b5050505050612aec565b604080517f095ea7b3000000000000000000000000000000000000000000000000000000008152600160a060020a038881166004830152602482018490529151879283169163095ea7b39160448083019260209291908290030181600087803b1580156129b857600080fd5b505af11580156129cc573d6000803e3d6000fd5b505050506040513d60208110156129e257600080fd5b50511515612a60576040805160e560020a62461bcd02815260206004820152602b60248201527f636f6c6c656374446562743a2043616e206e6f7420617070726f766520746f6b60448201527f656e207472616e73666572000000000000000000000000000000000000000000606482015290519081900360840190fd5b604080517fd2616fc0000000000000000000000000000000000000000000000000000000008152600160a060020a03888116600483015260248201859052604482018d905291519187169163d2616fc09160648082019260009290919082900301818387803b158015612ad257600080fd5b505af1158015612ae6573d6000803e3d6000fd5b50505050505b600160a060020a03808616600081815260096020908152604091829020548251908152915192938a16927f324f9155ed66e3244ff2c26eac5aa58c6544c9a886cb7008e8e1d9f4c6b76d899281900390910190a3505050505050505050565b6000612b59610eed84612131565b90506000612b678284613235565b9050612b7281611443565b1515612bee576040805160e560020a62461bcd02815260206004820152602e60248201527f72656d6f76654f776e65723a2053686f756c64206265207369676e656420627960448201527f206f6e65206f66206f776e657273000000000000000000000000000000000000606482015290519081900360840190fd5b610f9860028563ffffffff61339016565b60075481565b60408051600160a060020a0395861681830152939094166060840152608083019190915260a080830191909152602080830191909152600260c08301527f616400000000000000000000000000000000000000000000000000000000000060e08084019190915283518084039091018152610100909201909252805191012090565b604080513081830152600160a060020a038316606080830191909152602080830191909152600260808301527f617300000000000000000000000000000000000000000000000000000000000060a0808401919091528351808403909101815260c09092019092528051910120919050565b600160a060020a0383161515612d8657348214612d86576040805160e560020a62461bcd02815260206004820152603960248201527f6f6e436f6c6c656374446562743a206d73672e76616c756520616e6420616d6f60448201527f756e74206d75737420626520657175616c20666f722045544800000000000000606482015290519081900360840190fd5b612d9083836119b9565b60408051838152602081018390528151600160a060020a038616927fd406065ef82e7d69a94ab04fc7d9d9a05bac40dc3f060b4d74e1730f16af568d928290030190a2505050565b6003546101009004600160a060020a031681565b60096020526000908152604090205481565b60408051600160a060020a038316818301526020808201839052600260608301527f636f0000000000000000000000000000000000000000000000000000000000006080808401919091528351808403909101815260a09092019092528051910120919050565b60055481565b60035460ff1681565b600160a060020a038316600090815260096020526040902054821115612f30576040805160e560020a62461bcd02815260206004820152605460248201527f77697468647261773a20547279696e6720746f20776974686472617720616d6f60448201527f756e7420776869636820657863656564732063757272656e742062616c616e6360648201527f6520696e2073706563696669656420746f6b656e000000000000000000000000608482015290519081900360a40190fd5b6000612f40610eed868686611e79565b90506000612f4e8284613235565b9050612f5981611fa8565b1515612faf576040805160e560020a62461bcd02815260206004820152601a60248201527f77697468647261773a2053686f756c64206265207369676e6564000000000000604482015290519081900360640190fd5b600160a060020a038516151561303f57604051600160a060020a0387169085156108fc029086906000818181858888f19350505050151561303a576040805160e560020a62461bcd02815260206004820152601e60248201527f77697468647261773a2043616e206e6f74207472616e73666572206574680000604482015290519081900360640190fd5b61312f565b604080517fa9059cbb000000000000000000000000000000000000000000000000000000008152600160a060020a038881166004830152602482018790529151879283169163a9059cbb9160448083019260209291908290030181600087803b1580156130ab57600080fd5b505af11580156130bf573d6000803e3d6000fd5b505050506040513d60208110156130d557600080fd5b5051151561312d576040805160e560020a62461bcd02815260206004820181905260248201527f77697468647261773a2043616e206e6f74207472616e7366657220746f6b656e604482015290519081900360640190fd5b505b600160a060020a038516600090815260096020526040902054613158908563ffffffff6133dc16565b600160a060020a038616600090815260096020526040902081905515156131915760075461318d90600163ffffffff6133dc16565b6007555b84600160a060020a031686600160a060020a03167f30e6a5fbc5561e2b7f128a4a32fcb64e4c1eb6b72d14ba951dac89307c4d3291866040518082815260200191505060405180910390a3505050505050565b604080517f19457468657265756d205369676e6564204d6573736167653a0a333200000000602080830191909152603c8083019490945282518083039094018452605c909101909152815191012090565b600080600080845160411415156132525760009350505050610ed9565b50505060208201516040830151606084015160001a601b60ff8216101561327757601b015b8060ff16601b1415801561328f57508060ff16601c14155b156132a05760009350505050610ed9565b6040805160008152602080820180845289905260ff8416828401526060820186905260808201859052915160019260a0808401939192601f1981019281900390910190855afa1580156132f7573d6000803e3d6000fd5b505050602060405103519350505050610ed9565b600160a060020a038116151561332057600080fd5b61332a8282613359565b1561333457600080fd5b600160a060020a0316600090815260209190915260409020805460ff19166001179055565b6000600160a060020a038216151561337057600080fd5b50600160a060020a03166000908152602091909152604090205460ff1690565b600160a060020a03811615156133a557600080fd5b6133af8282613359565b15156133ba57600080fd5b600160a060020a0316600090815260209190915260409020805460ff19169055565b6000828211156133eb57600080fd5b50900390565b6040805160a0810182526000808252602082018190529181018290526060810182905260808101919091529056fea165627a7a72305820ff4e0f154e75a835bac6ed2513b42f7172e40aa7af331a495272354de15176e50029",
  "source": "pragma solidity ^0.5.0;\n\nimport \"openzeppelin-solidity/contracts/token/ERC20/IERC20.sol\";\nimport \"openzeppelin-solidity/contracts/math/SafeMath.sol\";\nimport \"openzeppelin-solidity/contracts/cryptography/ECDSA.sol\";\nimport \"./vendor/Ownable.sol\";\nimport \"./vendor/SignerRole.sol\";\nimport \"./ClearingHouse.sol\";\n\n\n/// @title Holding\ncontract Holding is SignerRole, OwnerRole {\n    using SafeMath for uint16;\n    using SafeMath for uint256;\n\n    enum State {\n        Active,      // Usual case, all operations are permitted\n        Retired,     // End of life of contract state, contract will terminated soon.\n        Dismissed    // No new debts could be added. One could only repay the existing debts.\n    }\n\n    struct Debt {\n        address payable destination;     // Receiver address of debt\n        address token;                   // Currency of debt\n        uint256 collectionAfter;         // Creditor can claim debt after \"collectionAfter\" seconds\n        uint256 amount;                  // Amount of debt\n        uint16  salt;                    // ID of debt\n    }\n\n    State public _currentState;\n    ClearingHouse public _clearingHouse;\n    uint256 public _retiringPeriod;\n    uint256 public _retiringUntil;\n    uint256 public _debtsSize;\n    uint256 public _balanceSize;\n\n    mapping (bytes32 => Debt) public debts;\n    // mapping (address of token contract) => (balance in tokens)\n    mapping (address => uint256) public balance;\n\n    event DidDeposit(address indexed token, uint256 amount);\n    event DidAddDebt(address indexed destination, address indexed token, uint256 amount);\n    event DidCollect(address indexed destination, address indexed token, uint256 amount);\n    event DidClose(address indexed destination, address indexed token, uint256 amount);\n    event DidWithdraw(address indexed destination, address indexed token, uint256 amount);\n    event DidForgive(address indexed destination, address indexed token, uint256 amount);\n    event DidRemoveDebt(bytes32 _id);\n    event DidOnCollectDebt(address indexed _token, uint256 _amount, bytes32 _id);\n    event DidRetired();\n    event DidStop();\n\n    /*** ACTIONS AND CONSTRAINTS ***/\n\n    /// @notice Constructs the new \"Holding\" contract.\n    /// @param retiringPeriod How many time Holding resides in Retire state since retire() method called.\n    /// @param clearingHouse Address of contract that available to clear debts.\n    constructor (uint256 retiringPeriod, ClearingHouse clearingHouse) public SignerRole(this) {\n        _retiringPeriod = retiringPeriod;\n        _retiringUntil = 0;\n        _clearingHouse = clearingHouse;\n        _currentState = State.Active;\n        _debtsSize = 0;\n    }\n\n    function () external payable {\n        if (balance[address(0x0)] == 0) {\n            _balanceSize = _balanceSize.add(1);\n        }\n\n        balance[address(0x0)] = balance[address(0x0)].add(msg.value);\n\n        emit DidDeposit(address(0x0), msg.value);\n    }\n\n    /// @notice Get current contract lifecycle stage.\n    /// @return { State.Active OR State.Retire OR State.Dismissed\n    function currentState () public returns (State) {\n        if (_retiringUntil != 0 && block.timestamp >= _retiringUntil) {\n            _currentState = State.Dismissed;\n        }\n        return _currentState;\n    }\n\n    /// @notice Prepare contract for termination. Starts a retiring period.\n    /// After retiring period no new debts could be added. One could only repay the existing debts.\n    /// @param _signature Signature of contract owner\n    function retire (bytes memory _signature) public {\n        require(currentState() == State.Active, \"retire: Must be in Active state\");\n        bytes32 digest = ECDSA.toEthSignedMessageHash(retireDigest(address(this)));\n        address recovered = ECDSA.recover(digest, _signature);\n        require(isSigner(recovered), \"retire: Should be signed\");\n\n        _retiringUntil = block.timestamp + _retiringPeriod;\n        _currentState = State.Retired;\n\n        emit DidRetired();\n    }\n\n    /// @notice Prepare contract for termination. Starts a retiring period.\n    //  After retiring period no new debts could be added. One could only repay the existing debts.\n    function stop() public {\n        require(currentState() == State.Dismissed, \"stop: Must be in Dismissed state\");\n        require(_debtsSize == 0, \"stop: There are some debts exists in contract\");\n        require(_balanceSize == 0, \"stop: Need to have null balances for using stop method\");\n\n        emit DidStop();\n\n        selfdestruct(address(msg.sender));\n    }\n\n    /// @notice Add deposit with value _amount in currency _token\n    /// @param _token Currency of deposit - token address or 0x0 for ETH\n    /// @param _amount Value of deposit\n    function deposit (address _token, uint256 _amount) public payable {\n        if (_token == address(0x0)) {\n            require(msg.value == _amount, \"deposit: msg.value and amount must be equal\");\n        } else {\n            IERC20 token = IERC20(_token);\n            require(token.transferFrom(msg.sender, address(this), _amount), \"deposit: Unable to transfer token to the contract\");\n        }\n\n        if (balance[_token] == 0) {\n            _balanceSize = _balanceSize.add(1);\n        }\n\n        balance[_token] = balance[_token].add(_amount);\n\n        emit DidDeposit(_token, _amount);\n    }\n\n    /// @notice Transfer _amount of _token to _destination address.\n    /// @param _destination Destination of tokens or ETH\n    /// @param _token Currency of withdraw - address for token, 0x0 for ETH\n    /// @param _amount Value of withdraw\n    /// @param _signature Signature of contract owner (debtor) of withdrawDigest\n    function withdraw (address payable _destination, address _token, uint256 _amount, bytes memory _signature) public {\n        require(_amount <= balance[_token], \"withdraw: Trying to withdraw amount which exceeds current balance in specified token\");\n\n        bytes32 digest = ECDSA.toEthSignedMessageHash(withdrawDigest(_destination, _token, _amount));\n        address recovered = ECDSA.recover(digest, _signature);\n        require(isSigner(recovered), \"withdraw: Should be signed\");\n\n        if (_token == address(0x0)) {\n            require(_destination.send(_amount), \"withdraw: Can not transfer eth\");\n        } else {\n            IERC20 token = IERC20(_token);\n            require(token.transfer(_destination, _amount), \"withdraw: Can not transfer token\");\n        }\n\n        balance[_token] = balance[_token].sub(_amount);\n\n        if (balance[_token] == 0) {\n            _balanceSize = _balanceSize.sub(1);\n        }\n\n        emit DidWithdraw(_destination, _token, _amount);\n    }\n\n    /// @notice Claim the debt from debtor\n    /// @param _id ID of debt in debt mapping\n    /// @param _signature Signature of debtor of collectDigest\n    function collectDebt (bytes32 _id, bytes memory _signature) public {\n        Debt memory debt = debts[_id];\n        require(debt.collectionAfter != 0, \"collectDebt: Debt with specified ID does not found\");\n        address payable destination = debt.destination;\n\n        address tokenContract = debt.token;\n        Holding other = Holding(destination);\n\n        bytes32 digest = ECDSA.toEthSignedMessageHash(collectDigest(tokenContract));\n        address recoveredOther = ECDSA.recover(digest, _signature);\n\n        require(other.isSigner(recoveredOther), \"collectDebt: Should be signed by other or wrong source digest\");\n\n        require(debt.collectionAfter <= block.timestamp, \"collectDebt: Can only collect existing stuff\");\n\n        uint256 amountToSend;\n        if (debt.amount > balance[tokenContract]) {\n            amountToSend = balance[tokenContract];\n        } else {\n            amountToSend = debt.amount;\n            _clearingHouse.forgive(_id);\n            emit DidClose(destination, tokenContract, amountToSend);\n        }\n\n        debts[_id].amount = debt.amount.sub(amountToSend);\n        balance[tokenContract] = balance[tokenContract].sub(amountToSend);\n\n        if (tokenContract == address(0x0)) {\n            other.onCollectDebt.value(amountToSend)(tokenContract, amountToSend, _id);\n        } else {\n            IERC20 token = IERC20(tokenContract);\n            require(token.approve(destination, amountToSend), \"collectDebt: Can not approve token transfer\");\n            other.onCollectDebt(tokenContract, amountToSend, _id);\n        }\n\n        emit DidCollect(destination, tokenContract, balance[tokenContract]);\n    }\n\n    /// @notice Add debt to contract\n    /// @param _destination Address of creditor\n    /// @param _token Currency of debt\n    /// @param _amount Value of debt\n    /// @param _salt ID of debt between creditor and debtor\n    /// @param _settlementPeriod Time in seconds after that creditor can claim to return debt\n    /// @param _sigDebtor Signature of debtor\n    /// @param _sigCreditor Signature of creditor\n    function addDebt (\n        address payable _destination,\n        address _token,\n        uint256 _amount,\n        uint16 _salt,\n        uint256 _settlementPeriod,\n        bytes memory _sigDebtor,\n        bytes memory _sigCreditor\n    ) public\n    {\n        require(currentState() != State.Dismissed, \"addDebt: Contract is in dismissed state. Can not add new debt\");\n        bytes32 digest = ECDSA.toEthSignedMessageHash(addDebtDigest(_destination, _token, _amount, _settlementPeriod));\n        address recoveredOwner = ECDSA.recover(digest, _sigDebtor);\n        require(isSigner(recoveredOwner), \"addDebt: Should be signed by owner\");\n\n        address recoveredCreditor = ECDSA.recover(digest, _sigCreditor);\n        Holding creditor = Holding(_destination);\n        require(creditor.isSigner(recoveredCreditor), \"addDebt: Should be signed by creditor\");\n\n        bytes32 debtID = debtIdentifier(_destination, _token, _salt);\n\n        require(debts[debtID].collectionAfter == 0, \"addDebt: Can not override existing\");\n\n        debts[debtID] = Debt({\n            destination: _destination,\n            token: _token,\n            amount: _amount,\n            collectionAfter: block.timestamp + _settlementPeriod,\n            salt: _salt\n        });\n\n        _debtsSize = _debtsSize.add(1);\n\n        emit DidAddDebt(_destination, _token, _amount);\n    }\n\n    /// @notice Forgive a debt. Can be called by creditor.\n    /// @param _id ID of debt in debt mapping\n    /// @param _signature Currency of creditor\n    function forgiveDebt (bytes32 _id, bytes memory _signature) public {\n        Debt memory debt = debts[_id];\n        address payable destination = debt.destination;\n        address tokenContract = debt.token;\n        Holding other = Holding(destination);\n        bytes32 digest = ECDSA.toEthSignedMessageHash(forgiveDigest(destination, tokenContract));\n        address recoveredOther = ECDSA.recover(digest, _signature);\n        require(other.isSigner(recoveredOther), \"forgiveDebt: Should be signed by other\");\n\n        delete debts[_id];\n        _debtsSize -= _debtsSize.sub(1);\n\n        _clearingHouse.forgive(_id);\n\n        emit DidForgive(destination, tokenContract, debt.amount);\n    }\n\n    /// @notice Remove a debt.\n    /// @param _id ID of debt.\n    function removeDebt (bytes32 _id) public {\n        bool isCleared = _clearingHouse.isCleared(address(this), _id);\n        bool isFullyRepaid = debts[_id].amount == 0;\n\n        require(debts[_id].collectionAfter != 0, \"removeDebt: Debt with _id does not exists\");\n        require(isCleared || isFullyRepaid, \"removeDebt: Removed debt must be cleared in ClearingHouse OR fully repaid\");\n\n        delete debts[_id];\n\n        emit DidRemoveDebt(_id);\n    }\n\n    function forgiveDigest (address _destination, address _token) public pure returns (bytes32) {\n        return keccak256(abi.encode(\"fo\", _destination, _token));\n    }\n\n    function collectDigest (address _token) public pure returns (bytes32) {\n        return keccak256(abi.encode(\"co\", _token));\n    }\n\n    function withdrawDigest (address _destination, address _token, uint256 _amount) public pure returns (bytes32) {\n        return keccak256(abi.encode(\"wi\", _destination, _token, _amount));\n    }\n\n    function retireDigest (address contractAddress) public pure returns (bytes32) {\n        return keccak256(abi.encode(\"re\", contractAddress));\n    }\n\n    function addDebtDigest (\n        address _destination,\n        address _token,\n        uint256 _amount,\n        uint256 _settlementPeriod\n    ) public pure returns (bytes32)\n    {\n        return keccak256(abi.encode(\"ad\", _destination, _token, _amount, _settlementPeriod));\n    }\n\n    function debtIdentifier (address _destination, address _token, uint16 _salt) public view returns (bytes32) {\n        return keccak256(abi.encode(address(this), _destination, _token, _salt));\n    }\n\n\n    function onCollectDebt (address _token, uint256 _amount, bytes32 _id) external payable {\n        if (_token == address(0x0)) {\n            require(msg.value == _amount, \"onCollectDebt: msg.value and amount must be equal for ETH\");\n        }\n\n        deposit(_token, _amount);\n\n        emit DidOnCollectDebt(_token, _amount, _id);\n    }\n}\n",
  "sourcePath": "/Users/user/Desktop/projects/debt_channel/packages/contracts/contracts/Holding.sol",
  "compiler": {
    "name": "solc",
    "version": "0.5.0+commit.1d4f565a.Emscripten.clang"
  },
  "schemaVersion": "3.0.1",
  "updatedAt": "2019-02-08T17:56:37.998Z",
  "devdoc": {
    "methods": {
      "addDebt(address,address,uint256,uint16,uint256,bytes,bytes)": {
        "params": {
          "_amount": "Value of debt",
          "_destination": "Address of creditor",
          "_salt": "ID of debt between creditor and debtor",
          "_settlementPeriod": "Time in seconds after that creditor can claim to return debt",
          "_sigCreditor": "Signature of creditor",
          "_sigDebtor": "Signature of debtor",
          "_token": "Currency of debt"
        }
      },
      "collectDebt(bytes32,bytes)": {
        "params": {
          "_id": "ID of debt in debt mapping",
          "_signature": "Signature of debtor of collectDigest"
        }
      },
      "constructor": {
        "params": {
          "clearingHouse": "Address of contract that available to clear debts.",
          "retiringPeriod": "How many time Holding resides in Retire state since retire() method called."
        }
      },
      "currentState()": {
        "return": "{ State.Active OR State.Retire OR State.Dismissed"
      },
      "deposit(address,uint256)": {
        "params": {
          "_amount": "Value of deposit",
          "_token": "Currency of deposit - token address or 0x0 for ETH"
        }
      },
      "forgiveDebt(bytes32,bytes)": {
        "params": {
          "_id": "ID of debt in debt mapping",
          "_signature": "Currency of creditor"
        }
      },
      "removeDebt(bytes32)": {
        "params": {
          "_id": "ID of debt."
        }
      },
      "retire(bytes)": {
        "params": {
          "_signature": "Signature of contract owner"
        }
      },
      "withdraw(address,address,uint256,bytes)": {
        "params": {
          "_amount": "Value of withdraw",
          "_destination": "Destination of tokens or ETH",
          "_signature": "Signature of contract owner (debtor) of withdrawDigest",
          "_token": "Currency of withdraw - address for token, 0x0 for ETH"
        }
      }
    },
    "title": "Holding"
  },
  "userdoc": {
    "methods": {
      "addDebt(address,address,uint256,uint16,uint256,bytes,bytes)": {
        "notice": "Add debt to contract"
      },
      "collectDebt(bytes32,bytes)": {
        "notice": "Claim the debt from debtor"
      },
      "constructor": "Constructs the new \"Holding\" contract.",
      "currentState()": {
        "notice": "Get current contract lifecycle stage."
      },
      "deposit(address,uint256)": {
        "notice": "Add deposit with value _amount in currency _token"
      },
      "forgiveDebt(bytes32,bytes)": {
        "notice": "Forgive a debt. Can be called by creditor."
      },
      "removeDebt(bytes32)": {
        "notice": "Remove a debt."
      },
      "retire(bytes)": {
        "notice": "Prepare contract for termination. Starts a retiring period. After retiring period no new debts could be added. One could only repay the existing debts."
      },
      "stop()": {
        "notice": "Prepare contract for termination. Starts a retiring period."
      },
      "withdraw(address,address,uint256,bytes)": {
        "notice": "Transfer _amount of _token to _destination address."
      }
    }
  }
}