{
  "contractName": "Holding",
  "abi": [
    {
      "constant": false,
      "inputs": [],
      "name": "renounceOwnership",
      "outputs": [],
      "payable": false,
      "stateMutability": "nonpayable",
      "type": "function"
    },
    {
      "constant": true,
      "inputs": [
        {
          "name": "account",
          "type": "address"
        }
      ],
      "name": "isSigner",
      "outputs": [
        {
          "name": "",
          "type": "bool"
        }
      ],
      "payable": false,
      "stateMutability": "view",
      "type": "function"
    },
    {
      "constant": true,
      "inputs": [],
      "name": "owner",
      "outputs": [
        {
          "name": "",
          "type": "address"
        }
      ],
      "payable": false,
      "stateMutability": "view",
      "type": "function"
    },
    {
      "constant": true,
      "inputs": [],
      "name": "isOwner",
      "outputs": [
        {
          "name": "",
          "type": "bool"
        }
      ],
      "payable": false,
      "stateMutability": "view",
      "type": "function"
    },
    {
      "constant": true,
      "inputs": [],
      "name": "_debtsSize",
      "outputs": [
        {
          "name": "",
          "type": "uint256"
        }
      ],
      "payable": false,
      "stateMutability": "view",
      "type": "function"
    },
    {
      "constant": true,
      "inputs": [
        {
          "name": "",
          "type": "bytes32"
        }
      ],
      "name": "debts",
      "outputs": [
        {
          "name": "destination",
          "type": "address"
        },
        {
          "name": "token",
          "type": "address"
        },
        {
          "name": "collectionAfter",
          "type": "uint256"
        },
        {
          "name": "amount",
          "type": "uint256"
        },
        {
          "name": "salt",
          "type": "uint16"
        }
      ],
      "payable": false,
      "stateMutability": "view",
      "type": "function"
    },
    {
      "constant": true,
      "inputs": [],
      "name": "_owner",
      "outputs": [
        {
          "name": "",
          "type": "address"
        }
      ],
      "payable": false,
      "stateMutability": "view",
      "type": "function"
    },
    {
      "constant": true,
      "inputs": [],
      "name": "_retiringPeriod",
      "outputs": [
        {
          "name": "",
          "type": "uint256"
        }
      ],
      "payable": false,
      "stateMutability": "view",
      "type": "function"
    },
    {
      "constant": true,
      "inputs": [],
      "name": "_balanceSize",
      "outputs": [
        {
          "name": "",
          "type": "uint256"
        }
      ],
      "payable": false,
      "stateMutability": "view",
      "type": "function"
    },
    {
      "constant": true,
      "inputs": [],
      "name": "_clearingHouse",
      "outputs": [
        {
          "name": "",
          "type": "address"
        }
      ],
      "payable": false,
      "stateMutability": "view",
      "type": "function"
    },
    {
      "constant": true,
      "inputs": [
        {
          "name": "",
          "type": "address"
        }
      ],
      "name": "balance",
      "outputs": [
        {
          "name": "",
          "type": "uint256"
        }
      ],
      "payable": false,
      "stateMutability": "view",
      "type": "function"
    },
    {
      "constant": false,
      "inputs": [],
      "name": "renounceSigner",
      "outputs": [],
      "payable": false,
      "stateMutability": "nonpayable",
      "type": "function"
    },
    {
      "constant": false,
      "inputs": [
        {
          "name": "account",
          "type": "address"
        }
      ],
      "name": "addSigner",
      "outputs": [],
      "payable": false,
      "stateMutability": "nonpayable",
      "type": "function"
    },
    {
      "constant": true,
      "inputs": [],
      "name": "_retiringUntil",
      "outputs": [
        {
          "name": "",
          "type": "uint256"
        }
      ],
      "payable": false,
      "stateMutability": "view",
      "type": "function"
    },
    {
      "constant": true,
      "inputs": [],
      "name": "_currentState",
      "outputs": [
        {
          "name": "",
          "type": "uint8"
        }
      ],
      "payable": false,
      "stateMutability": "view",
      "type": "function"
    },
    {
      "constant": false,
      "inputs": [
        {
          "name": "newOwner",
          "type": "address"
        }
      ],
      "name": "transferOwnership",
      "outputs": [],
      "payable": false,
      "stateMutability": "nonpayable",
      "type": "function"
    },
    {
      "inputs": [
        {
          "name": "owner",
          "type": "address"
        },
        {
          "name": "retiringPeriod",
          "type": "uint256"
        },
        {
          "name": "clearingHouse",
          "type": "address"
        }
      ],
      "payable": false,
      "stateMutability": "nonpayable",
      "type": "constructor"
    },
    {
      "anonymous": false,
      "inputs": [
        {
          "indexed": true,
          "name": "token",
          "type": "address"
        },
        {
          "indexed": false,
          "name": "amount",
          "type": "uint256"
        }
      ],
      "name": "DidDeposit",
      "type": "event"
    },
    {
      "anonymous": false,
      "inputs": [
        {
          "indexed": true,
          "name": "destination",
          "type": "address"
        },
        {
          "indexed": true,
          "name": "token",
          "type": "address"
        },
        {
          "indexed": false,
          "name": "amount",
          "type": "uint256"
        }
      ],
      "name": "DidAddDebt",
      "type": "event"
    },
    {
      "anonymous": false,
      "inputs": [
        {
          "indexed": true,
          "name": "destination",
          "type": "address"
        },
        {
          "indexed": true,
          "name": "token",
          "type": "address"
        },
        {
          "indexed": false,
          "name": "amount",
          "type": "uint256"
        }
      ],
      "name": "DidCollect",
      "type": "event"
    },
    {
      "anonymous": false,
      "inputs": [
        {
          "indexed": true,
          "name": "destination",
          "type": "address"
        },
        {
          "indexed": true,
          "name": "token",
          "type": "address"
        },
        {
          "indexed": false,
          "name": "amount",
          "type": "uint256"
        }
      ],
      "name": "DidClose",
      "type": "event"
    },
    {
      "anonymous": false,
      "inputs": [
        {
          "indexed": true,
          "name": "destination",
          "type": "address"
        },
        {
          "indexed": true,
          "name": "token",
          "type": "address"
        },
        {
          "indexed": false,
          "name": "amount",
          "type": "uint256"
        }
      ],
      "name": "DidWithdraw",
      "type": "event"
    },
    {
      "anonymous": false,
      "inputs": [
        {
          "indexed": true,
          "name": "destination",
          "type": "address"
        },
        {
          "indexed": true,
          "name": "token",
          "type": "address"
        },
        {
          "indexed": false,
          "name": "amount",
          "type": "uint256"
        }
      ],
      "name": "DidForgive",
      "type": "event"
    },
    {
      "anonymous": false,
      "inputs": [],
      "name": "DidRetired",
      "type": "event"
    },
    {
      "anonymous": false,
      "inputs": [],
      "name": "DidStop",
      "type": "event"
    },
    {
      "anonymous": false,
      "inputs": [
        {
          "indexed": true,
          "name": "account",
          "type": "address"
        }
      ],
      "name": "SignerAdded",
      "type": "event"
    },
    {
      "anonymous": false,
      "inputs": [
        {
          "indexed": true,
          "name": "account",
          "type": "address"
        }
      ],
      "name": "SignerRemoved",
      "type": "event"
    },
    {
      "anonymous": false,
      "inputs": [
        {
          "indexed": true,
          "name": "previousOwner",
          "type": "address"
        },
        {
          "indexed": true,
          "name": "newOwner",
          "type": "address"
        }
      ],
      "name": "OwnershipTransferred",
      "type": "event"
    },
    {
      "constant": true,
      "inputs": [],
      "name": "currentState",
      "outputs": [
        {
          "name": "",
          "type": "uint8"
        }
      ],
      "payable": false,
      "stateMutability": "view",
      "type": "function"
    },
    {
      "constant": false,
      "inputs": [
        {
          "name": "_signature",
          "type": "bytes"
        }
      ],
      "name": "retire",
      "outputs": [],
      "payable": false,
      "stateMutability": "nonpayable",
      "type": "function"
    },
    {
      "constant": false,
      "inputs": [],
      "name": "stop",
      "outputs": [],
      "payable": false,
      "stateMutability": "nonpayable",
      "type": "function"
    },
    {
      "constant": false,
      "inputs": [
        {
          "name": "_token",
          "type": "address"
        },
        {
          "name": "_amount",
          "type": "uint256"
        }
      ],
      "name": "deposit",
      "outputs": [],
      "payable": false,
      "stateMutability": "nonpayable",
      "type": "function"
    },
    {
      "constant": false,
      "inputs": [
        {
          "name": "_destination",
          "type": "address"
        },
        {
          "name": "_token",
          "type": "address"
        },
        {
          "name": "_amount",
          "type": "uint256"
        },
        {
          "name": "_signature",
          "type": "bytes"
        }
      ],
      "name": "withdraw",
      "outputs": [],
      "payable": false,
      "stateMutability": "nonpayable",
      "type": "function"
    },
    {
      "constant": false,
      "inputs": [
        {
          "name": "_id",
          "type": "bytes32"
        },
        {
          "name": "_signature",
          "type": "bytes"
        }
      ],
      "name": "collectDebt",
      "outputs": [],
      "payable": false,
      "stateMutability": "nonpayable",
      "type": "function"
    },
    {
      "constant": false,
      "inputs": [
        {
          "name": "_destination",
          "type": "address"
        },
        {
          "name": "_token",
          "type": "address"
        },
        {
          "name": "_amount",
          "type": "uint256"
        },
        {
          "name": "_salt",
          "type": "uint16"
        },
        {
          "name": "_settlementPeriod",
          "type": "uint256"
        },
        {
          "name": "_sigDebtor",
          "type": "bytes"
        },
        {
          "name": "_sigCreditor",
          "type": "bytes"
        }
      ],
      "name": "addDebt",
      "outputs": [],
      "payable": false,
      "stateMutability": "nonpayable",
      "type": "function"
    },
    {
      "constant": false,
      "inputs": [
        {
          "name": "_id",
          "type": "bytes32"
        },
        {
          "name": "_signature",
          "type": "bytes"
        }
      ],
      "name": "forgiveDebt",
      "outputs": [],
      "payable": false,
      "stateMutability": "nonpayable",
      "type": "function"
    },
    {
      "constant": true,
      "inputs": [
        {
          "name": "_destination",
          "type": "address"
        },
        {
          "name": "_token",
          "type": "address"
        }
      ],
      "name": "forgiveDigest",
      "outputs": [
        {
          "name": "",
          "type": "bytes32"
        }
      ],
      "payable": false,
      "stateMutability": "pure",
      "type": "function"
    },
    {
      "constant": true,
      "inputs": [
        {
          "name": "_token",
          "type": "address"
        }
      ],
      "name": "collectDigest",
      "outputs": [
        {
          "name": "",
          "type": "bytes32"
        }
      ],
      "payable": false,
      "stateMutability": "pure",
      "type": "function"
    },
    {
      "constant": true,
      "inputs": [
        {
          "name": "_destination",
          "type": "address"
        },
        {
          "name": "_token",
          "type": "address"
        },
        {
          "name": "_amount",
          "type": "uint256"
        }
      ],
      "name": "withdrawDigest",
      "outputs": [
        {
          "name": "",
          "type": "bytes32"
        }
      ],
      "payable": false,
      "stateMutability": "pure",
      "type": "function"
    },
    {
      "constant": true,
      "inputs": [
        {
          "name": "contractAddress",
          "type": "address"
        }
      ],
      "name": "retireDigest",
      "outputs": [
        {
          "name": "",
          "type": "bytes32"
        }
      ],
      "payable": false,
      "stateMutability": "pure",
      "type": "function"
    },
    {
      "constant": true,
      "inputs": [
        {
          "name": "_destination",
          "type": "address"
        },
        {
          "name": "_token",
          "type": "address"
        },
        {
          "name": "_amount",
          "type": "uint256"
        },
        {
          "name": "_settlementPeriod",
          "type": "uint256"
        }
      ],
      "name": "addDebtDigest",
      "outputs": [
        {
          "name": "",
          "type": "bytes32"
        }
      ],
      "payable": false,
      "stateMutability": "pure",
      "type": "function"
    },
    {
      "constant": true,
      "inputs": [
        {
          "name": "_destination",
          "type": "address"
        },
        {
          "name": "_token",
          "type": "address"
        },
        {
          "name": "_salt",
          "type": "uint16"
        }
      ],
      "name": "debtIdentifier",
      "outputs": [
        {
          "name": "",
          "type": "bytes32"
        }
      ],
      "payable": false,
      "stateMutability": "view",
      "type": "function"
    }
  ],
  "bytecode": "0x60806040523480156200001157600080fd5b5060405160608062002773833981018060405260608110156200003357600080fd5b508051602082015160409283015160008054600160a060020a03191633178082559451939492939192600160a060020a0316917f8be0079c531659141344cd1fd0a4f28419497f9722a3daafe3b4186f6b6457e0908290a36200009f33640100000000620000f5810204565b600280546004939093556000600581905560038054600160a060020a031916600160a060020a0394851617905561010060a860020a031990931661010094909216939093021760ff1916909155600655620001da565b62000110600182640100000000620024e16200014782021704565b604051600160a060020a038216907f47d1c22a25bb3a5d4e481b9b1e6944c2eade3181a0a20b495ed61d35b5323f2490600090a250565b600160a060020a03811615156200015d57600080fd5b620001728282640100000000620001a2810204565b156200017d57600080fd5b600160a060020a0316600090815260209190915260409020805460ff19166001179055565b6000600160a060020a0382161515620001ba57600080fd5b50600160a060020a03166000908152602091909152604090205460ff1690565b61258980620001ea6000396000f3fe6080604052600436106101605760e060020a600035046307da68f581146101655780630c3f6acf1461017c578063343b286f146101b55780633785f7a91461026857806347e7ef24146103d25780635461087a1461040b578063659378aa1461045857806368ff23651461049b578063715018a6146104e3578063782efb14146104f85780637df73e271461052b5780638da5cb5b146105725780638f32d59b146105a3578063900b5a1b146105b85780639894b27914610672578063a9caa41114610687578063b2bdfa7b146106ec578063b2ddae4214610701578063b3d9774514610716578063c48fa7be146107d0578063c760c5a1146107e5578063e27dd7b61461082e578063e3d670d714610843578063e5c8b03d14610876578063eb12d61e1461088b578063ed9fe44a146108be578063ef6e86cb146108f1578063f2801e2b14610906578063f2fde38b1461091b578063f37e8d381461094e575b600080fd5b34801561017157600080fd5b5061017a610a21565b005b34801561018857600080fd5b50610191610bd4565b604051808260028111156101a157fe5b60ff16815260200191505060405180910390f35b3480156101c157600080fd5b5061017a600480360360208110156101d857600080fd5b8101906020810181356401000000008111156101f357600080fd5b82018360208201111561020557600080fd5b8035906020019184600183028401116401000000008311171561022757600080fd5b91908080601f016020809104026020016040519081016040528093929190818152602001838380828437600092019190915250929550610bdd945050505050565b34801561027457600080fd5b5061017a600480360360e081101561028b57600080fd5b600160a060020a03823581169260208101359091169160408201359161ffff606082013516916080820135919081019060c0810160a08201356401000000008111156102d657600080fd5b8201836020820111156102e857600080fd5b8035906020019184600183028401116401000000008311171561030a57600080fd5b91908080601f016020809104026020016040519081016040528093929190818152602001838380828437600092019190915250929594936020810193503591505064010000000081111561035d57600080fd5b82018360208201111561036f57600080fd5b8035906020019184600183028401116401000000008311171561039157600080fd5b91908080601f016020809104026020016040519081016040528093929190818152602001838380828437600092019190915250929550610d2f945050505050565b3480156103de57600080fd5b5061017a600480360360408110156103f557600080fd5b50600160a060020a03813516906020013561117b565b34801561041757600080fd5b506104466004803603604081101561042e57600080fd5b50600160a060020a0381358116916020013516611362565b60408051918252519081900360200190f35b34801561046457600080fd5b506104466004803603606081101561047b57600080fd5b50600160a060020a038135811691602081013590911690604001356113d8565b3480156104a757600080fd5b50610446600480360360608110156104be57600080fd5b508035600160a060020a03908116916020810135909116906040013561ffff16611451565b3480156104ef57600080fd5b5061017a6114a0565b34801561050457600080fd5b506104466004803603602081101561051b57600080fd5b5035600160a060020a031661150a565b34801561053757600080fd5b5061055e6004803603602081101561054e57600080fd5b5035600160a060020a0316611571565b604080519115158252519081900360200190f35b34801561057e57600080fd5b50610587611584565b60408051600160a060020a039092168252519081900360200190f35b3480156105af57600080fd5b5061055e611593565b3480156105c457600080fd5b5061017a600480360360408110156105db57600080fd5b813591908101906040810160208201356401000000008111156105fd57600080fd5b82018360208201111561060f57600080fd5b8035906020019184600183028401116401000000008311171561063157600080fd5b91908080601f0160208091040260200160405190810160405280939291908181526020018383808284376000920191909152509295506115a4945050505050565b34801561067e57600080fd5b506104466117e0565b34801561069357600080fd5b506106b1600480360360208110156106aa57600080fd5b50356117e6565b60408051600160a060020a03968716815294909516602085015283850192909252606083015261ffff16608082015290519081900360a00190f35b3480156106f857600080fd5b50610587611825565b34801561070d57600080fd5b50610446611839565b34801561072257600080fd5b5061017a6004803603604081101561073957600080fd5b8135919081019060408101602082013564010000000081111561075b57600080fd5b82018360208201111561076d57600080fd5b8035906020019184600183028401116401000000008311171561078f57600080fd5b91908080601f01602080910402602001604051908101604052809392919081815260200183838082843760009201919091525092955061183f945050505050565b3480156107dc57600080fd5b50610446611da7565b3480156107f157600080fd5b506104466004803603608081101561080857600080fd5b50600160a060020a03813581169160208101359091169060408101359060600135611dad565b34801561083a57600080fd5b50610587611e2f565b34801561084f57600080fd5b506104466004803603602081101561086657600080fd5b5035600160a060020a0316611e3e565b34801561088257600080fd5b5061017a611e50565b34801561089757600080fd5b5061017a600480360360208110156108ae57600080fd5b5035600160a060020a0316611e5b565b3480156108ca57600080fd5b50610446600480360360208110156108e157600080fd5b5035600160a060020a0316611e7b565b3480156108fd57600080fd5b50610446611ee2565b34801561091257600080fd5b50610191611ee8565b34801561092757600080fd5b5061017a6004803603602081101561093e57600080fd5b5035600160a060020a0316611ef1565b34801561095a57600080fd5b5061017a6004803603608081101561097157600080fd5b600160a060020a038235811692602081013590911691604082013591908101906080810160608201356401000000008111156109ac57600080fd5b8201836020820111156109be57600080fd5b803590602001918460018302840111640100000000831117156109e057600080fd5b91908080601f016020809104026020016040519081016040528093929190818152602001838380828437600092019190915250929550611f0d945050505050565b60055415801590610a3457506005544210155b15610a46576002805460ff1916811790555b6002805460ff1681811115610a5757fe5b14610aac576040805160e560020a62461bcd02815260206004820181905260248201527f73746f703a204d75737420626520696e204469736d6973736564207374617465604482015290519081900360640190fd5b60065415610b2a576040805160e560020a62461bcd02815260206004820152602d60248201527f73746f703a2054686572652061726520736f6d6520646562747320657869737460448201527f7320696e20636f6e747261637400000000000000000000000000000000000000606482015290519081900360840190fd5b60075415610ba8576040805160e560020a62461bcd02815260206004820152603660248201527f73746f703a204e65656420746f2068617665206e756c6c2062616c616e63657360448201527f20666f72207573696e672073746f70206d6574686f6400000000000000000000606482015290519081900360840190fd5b6040517fe9bfaf6fba36e18b5ab59d3ce474c3c6ca70a774281a289427aedb69a046a1ea90600090a133ff5b60025460ff1690565b60055415801590610bf057506005544210155b15610c02576002805460ff1916811790555b60006002805460ff1690811115610c1557fe5b14610c6a576040805160e560020a62461bcd02815260206004820152601f60248201527f7265746972653a204d75737420626520696e2041637469766520737461746500604482015290519081900360640190fd5b6000610c7d610c783061150a565b6121fc565b90506000610c8b828461224d565b9050610c9681611571565b1515610cec576040805160e560020a62461bcd02815260206004820152601860248201527f7265746972653a2053686f756c64206265207369676e65640000000000000000604482015290519081900360640190fd5b60045442016005556002805460ff191660011790556040517fdea62f60aed6357392635b274709928e0e2e422770c1885e3075f93f63237fbe90600090a1505050565b60055415801590610d4257506005544210155b15610dd3576002805460ff191681179055600554421115610dd3576040805160e560020a62461bcd02815260206004820152603d60248201527f616464446562743a20436f6e747261637420697320696e206469736d6973736560448201527f642073746174652e2043616e206e6f7420616464206e65772064656274000000606482015290519081900360840190fd5b6000610de4610c7889898988611dad565b90506000610df2828561224d565b9050610dfd81611571565b1515610e79576040805160e560020a62461bcd02815260206004820152602260248201527f616464446562743a2053686f756c64206265207369676e6564206279206f776e60448201527f6572000000000000000000000000000000000000000000000000000000000000606482015290519081900360840190fd5b6000610e85838561224d565b905060008a905080600160a060020a0316637df73e27836040518263ffffffff1660e060020a0281526004018082600160a060020a0316600160a060020a0316815260200191505060206040518083038186803b158015610ee557600080fd5b505afa158015610ef9573d6000803e3d6000fd5b505050506040513d6020811015610f0f57600080fd5b50511515610f8d576040805160e560020a62461bcd02815260206004820152602560248201527f616464446562743a2053686f756c64206265207369676e65642062792063726560448201527f6469746f72000000000000000000000000000000000000000000000000000000606482015290519081900360840190fd5b6000610f9a8c8c8b611451565b6000818152600860205260409020600201549091501561102a576040805160e560020a62461bcd02815260206004820152602260248201527f616464446562743a2043616e206e6f74206f766572726964652065786973746960448201527f6e67000000000000000000000000000000000000000000000000000000000000606482015290519081900360840190fd5b60a0604051908101604052808d600160a060020a031681526020018c600160a060020a0316815260200189420181526020018b81526020018a61ffff168152506008600083815260200190815260200160002060008201518160000160006101000a815481600160a060020a030219169083600160a060020a0316021790555060208201518160010160006101000a815481600160a060020a030219169083600160a060020a03160217905550604082015181600201556060820151816003015560808201518160040160006101000a81548161ffff021916908361ffff16021790555090505060016006600082825401925050819055508a600160a060020a03168c600160a060020a03167f2d078bdbe31a4f135549319bb8f04e34ce787751d920f5649c307e61e2d8755b8c6040518082815260200191505060405180910390a3505050505050505050505050565b6005541580159061118e57506005544210155b156111a0576002805460ff1916811790555b604080517f23b872dd0000000000000000000000000000000000000000000000000000000081523360048201523060248201526044810183905290518391600160a060020a038316916323b872dd916064808201926020929091908290030181600087803b15801561121157600080fd5b505af1158015611225573d6000803e3d6000fd5b505050506040513d602081101561123b57600080fd5b505115156112b9576040805160e560020a62461bcd02815260206004820152603160248201527f6465706f7369743a20556e61626c6520746f207472616e7366657220746f6b6560448201527f6e20746f2074686520636f6e7472616374000000000000000000000000000000606482015290519081900360840190fd5b600160a060020a03831660009081526009602052604090205415156112e2576007805460010190555b600160a060020a03831660009081526009602052604090205461130b908363ffffffff61232316565b600160a060020a038416600081815260096020908152604091829020939093558051858152905191927f67b910fa040657b3d16456bb3485c92024c708a57feebdd18e1fbd5b7d028d9f92918290030190a2505050565b60408051600160a060020a03808516828401528316606080830191909152602080830191909152600260808301527f666f00000000000000000000000000000000000000000000000000000000000060a0808401919091528351808403909101815260c090920190925280519101205b92915050565b60408051600160a060020a0394851681830152929093166060830152608080830191909152602080830191909152600260a08301527f776900000000000000000000000000000000000000000000000000000000000060c0808401919091528351808403909101815260e0909201909252805191012090565b6040805130602080830191909152600160a060020a039586168284015293909416606085015261ffff919091166080808501919091528151808503909101815260a09093019052815191012090565b6114a8611593565b15156114b357600080fd5b60008054604051600160a060020a03909116907f8be0079c531659141344cd1fd0a4f28419497f9722a3daafe3b4186f6b6457e0908390a36000805473ffffffffffffffffffffffffffffffffffffffff19169055565b60408051600160a060020a038316818301526020808201839052600260608301527f72650000000000000000000000000000000000000000000000000000000000006080808401919091528351808403909101815260a09092019092528051910120919050565b60006113d260018363ffffffff61233c16565b600054600160a060020a031690565b600054600160a060020a0316331490565b6115ac61252f565b506000828152600860209081526040808320815160a0810183528154600160a060020a0390811680835260018401549091169482018590526002830154938201939093526003820154606082015260049091015461ffff16608082015292909190829061161c610c788385611362565b9050600061162a828861224d565b905082600160a060020a0316637df73e27826040518263ffffffff1660e060020a0281526004018082600160a060020a0316600160a060020a0316815260200191505060206040518083038186803b15801561168557600080fd5b505afa158015611699573d6000803e3d6000fd5b505050506040513d60208110156116af57600080fd5b5051151561172d576040805160e560020a62461bcd02815260206004820152602660248201527f666f7267697665446562743a2053686f756c64206265207369676e656420627960448201527f206f746865720000000000000000000000000000000000000000000000000000606482015290519081900360840190fd5b83600160a060020a031685600160a060020a03167f072344a4137dcbffc9234fb806e11a55d95c374109775da8c77d5ed36b8fe9ed88606001516040518082815260200191505060405180910390a3505050600094855250506008602052505060408120805473ffffffffffffffffffffffffffffffffffffffff1990811682556001820180549091169055600281018290556003810191909155600401805461ffff1916905560068054600019019055565b60065481565b60086020526000908152604090208054600182015460028301546003840154600490940154600160a060020a03938416949390921692909161ffff1685565b6002546101009004600160a060020a031681565b60045481565b6005541580159061185257506005544210155b15611864576002805460ff1916811790555b61186c61252f565b50600082815260086020908152604091829020825160a0810184528154600160a060020a039081168252600183015416928101929092526002810154928201839052600381015460608301526004015461ffff166080820152901515611942576040805160e560020a62461bcd02815260206004820152603260248201527f636f6c6c656374446562743a204465627420776974682073706563696669656460448201527f20494420646f6573206e6f7420666f756e640000000000000000000000000000606482015290519081900360840190fd5b80516020820151816000611958610c7884611e7b565b90506000611966828861224d565b905082600160a060020a0316637df73e27826040518263ffffffff1660e060020a0281526004018082600160a060020a0316600160a060020a0316815260200191505060206040518083038186803b1580156119c157600080fd5b505afa1580156119d5573d6000803e3d6000fd5b505050506040513d60208110156119eb57600080fd5b50511515611a69576040805160e560020a62461bcd02815260206004820152602660248201527f636f6c6c656374446562743a2053686f756c64206265207369676e656420627960448201527f206f746865720000000000000000000000000000000000000000000000000000606482015290519081900360840190fd5b6040860151421015611aeb576040805160e560020a62461bcd02815260206004820152602c60248201527f636f6c6c656374446562743a2043616e206f6e6c7920636f6c6c65637420657860448201527f697374696e672073747566660000000000000000000000000000000000000000606482015290519081900360840190fd5b600160a060020a03841660009081526009602052604081205460608801518692911015611b315750600160a060020a038516600090815260096020526040902054611b7a565b506060870151604080518281529051600160a060020a0380891692908a16917e6961675c3a86ce692a816fc0690bea5024beddb204bddab036805b1e41ed649181900360200190a35b6060880151611b8f908263ffffffff61237316565b6060890152600160a060020a038616600090815260096020526040902054611bbd908263ffffffff61237316565b600160a060020a03808816600081815260096020908152604091829020859055815194855290519193928b16927f324f9155ed66e3244ff2c26eac5aa58c6544c9a886cb7008e8e1d9f4c6b76d89929081900390910190a381600160a060020a031663095ea7b388836040518363ffffffff1660e060020a0281526004018083600160a060020a0316600160a060020a0316815260200182815260200192505050602060405180830381600087803b158015611c7857600080fd5b505af1158015611c8c573d6000803e3d6000fd5b505050506040513d6020811015611ca257600080fd5b50511515611d20576040805160e560020a62461bcd02815260206004820152602b60248201527f636f6c6c656374446562743a2043616e206e6f7420617070726f766520746f6b60448201527f656e207472616e73666572000000000000000000000000000000000000000000606482015290519081900360840190fd5b84600160a060020a03166347e7ef2487836040518363ffffffff1660e060020a0281526004018083600160a060020a0316600160a060020a0316815260200182815260200192505050600060405180830381600087803b158015611d8357600080fd5b505af1158015611d97573d6000803e3d6000fd5b5050505050505050505050505050565b60075481565b60408051600160a060020a0395861681830152939094166060840152608083019190915260a080830191909152602080830191909152600260c08301527f616400000000000000000000000000000000000000000000000000000000000060e08084019190915283518084039091018152610100909201909252805191012090565b600354600160a060020a031681565b60096020526000908152604090205481565b611e5933612388565b565b611e6433611571565b1515611e6f57600080fd5b611e78816123d0565b50565b60408051600160a060020a038316818301526020808201839052600260608301527f636f0000000000000000000000000000000000000000000000000000000000006080808401919091528351808403909101815260a09092019092528051910120919050565b60055481565b60025460ff1681565b611ef9611593565b1515611f0457600080fd5b611e7881612418565b600160a060020a038316600090815260096020526040902054821115611fc9576040805160e560020a62461bcd02815260206004820152605460248201527f77697468647261773a20547279696e6720746f20776974686472617720616d6f60448201527f756e7420776869636820657863656564732063757272656e742062616c616e6360648201527f6520696e2073706563696669656420746f6b656e000000000000000000000000608482015290519081900360a40190fd5b60055415801590611fdc57506005544210155b15611fee576002805460ff1916811790555b826000611fff610c788784876113d8565b9050600061200d828561224d565b905061201881611571565b151561206e576040805160e560020a62461bcd02815260206004820152601a60248201527f77697468647261773a2053686f756c64206265207369676e6564000000000000604482015290519081900360640190fd5b82600160a060020a031663a9059cbb88876040518363ffffffff1660e060020a0281526004018083600160a060020a0316600160a060020a0316815260200182815260200192505050602060405180830381600087803b1580156120d157600080fd5b505af11580156120e5573d6000803e3d6000fd5b505050506040513d60208110156120fb57600080fd5b50511515612153576040805160e560020a62461bcd02815260206004820181905260248201527f77697468647261773a2043616e206e6f74207472616e7366657220746f6b656e604482015290519081900360640190fd5b600160a060020a03861660009081526009602052604090205461217c908663ffffffff61237316565b600160a060020a038716600090815260096020526040902081905515156121a857600780546000190190555b85600160a060020a031687600160a060020a03167f30e6a5fbc5561e2b7f128a4a32fcb64e4c1eb6b72d14ba951dac89307c4d3291876040518082815260200191505060405180910390a350505050505050565b604080517f19457468657265756d205369676e6564204d6573736167653a0a333200000000602080830191909152603c8083019490945282518083039094018452605c909101909152815191012090565b6000806000808451604114151561226a57600093505050506113d2565b50505060208201516040830151606084015160001a601b60ff8216101561228f57601b015b8060ff16601b141580156122a757508060ff16601c14155b156122b857600093505050506113d2565b6040805160008152602080820180845289905260ff8416828401526060820186905260808201859052915160019260a0808401939192601f1981019281900390910190855afa15801561230f573d6000803e3d6000fd5b5050506020604051035193505050506113d2565b60008282018381101561233557600080fd5b9392505050565b6000600160a060020a038216151561235357600080fd5b50600160a060020a03166000908152602091909152604090205460ff1690565b60008282111561238257600080fd5b50900390565b61239960018263ffffffff61249516565b604051600160a060020a038216907f3525e22824a8a7df2c9a6029941c824cf95b6447f1e13d5128fd3826d35afe8b90600090a250565b6123e160018263ffffffff6124e116565b604051600160a060020a038216907f47d1c22a25bb3a5d4e481b9b1e6944c2eade3181a0a20b495ed61d35b5323f2490600090a250565b600160a060020a038116151561242d57600080fd5b60008054604051600160a060020a03808516939216917f8be0079c531659141344cd1fd0a4f28419497f9722a3daafe3b4186f6b6457e091a36000805473ffffffffffffffffffffffffffffffffffffffff1916600160a060020a0392909216919091179055565b600160a060020a03811615156124aa57600080fd5b6124b4828261233c565b15156124bf57600080fd5b600160a060020a0316600090815260209190915260409020805460ff19169055565b600160a060020a03811615156124f657600080fd5b612500828261233c565b1561250a57600080fd5b600160a060020a0316600090815260209190915260409020805460ff19166001179055565b6040805160a0810182526000808252602082018190529181018290526060810182905260808101919091529056fea165627a7a72305820b888856a90b904b983881bac4d62d399af69214114857f01954479e08a2239340029",
  "source": "pragma solidity ^0.5.0;\n\nimport \"./vendor/IERC20.sol\";\nimport \"./vendor/SafeMath.sol\";\nimport \"./vendor/Ownable.sol\";\nimport \"./vendor/SignerRole.sol\";\nimport \"./vendor/ECDSA.sol\";\n\n/// @title Holding\ncontract Holding is Ownable, SignerRole  {\n    using SafeMath for uint256;\n\n    enum State {\n        Active,      // Usual case, all operations are permitted\n        Retired,     // End of life of contract state, contract will terminated soon.\n        Dismissed    // No new debts could be added. One could only repay the existing debts.\n    }\n\n    struct Debt {\n        address destination;     // Receiver address of debt\n        address token;           // Currency of debt\n        uint256 collectionAfter; // Creditor can claim debt after \"collectionAfter\" seconds\n        uint256 amount;          // Amount of debt\n        uint16  salt;            // ID of debt\n    }\n\n    State public _currentState;\n    address public _owner;\n    address public _clearingHouse;\n    uint256 public _retiringPeriod;\n    uint256 public _retiringUntil;\n    uint256 public _debtsSize;\n    uint256 public _balanceSize;\n\n    mapping (bytes32 => Debt) public debts;\n    // mapping (address of token contract) => (balance in tokens)\n    mapping (address => uint256) public balance;\n\n    event DidDeposit(address indexed token, uint256 amount);\n    event DidAddDebt(address indexed destination, address indexed token, uint256 amount);\n    event DidCollect(address indexed destination, address indexed token, uint256 amount);\n    event DidClose(address indexed destination, address indexed token, uint256 amount);\n    event DidWithdraw(address indexed destination, address indexed token, uint256 amount);\n    event DidForgive(address indexed destination, address indexed token, uint256 amount);\n    event DidRetired();\n    event DidStop();\n\n    /*** ACTIONS AND CONSTRAINTS ***/\n\n    /// @notice Constructs the new \"Holding\" contract.\n    /// @param owner Address of holding's owner.\n    /// @param retiringPeriod How many time Holding resides in Retire state since retire() method called.\n    /// @param clearingHouse Address of contract that available to clear debts.\n    constructor (address owner, uint256 retiringPeriod, address clearingHouse) public {\n        _owner = owner;\n        _retiringPeriod = retiringPeriod;\n        _retiringUntil = 0;\n        _clearingHouse = clearingHouse;\n        _currentState = State.Active;\n        _debtsSize = 0;\n    }\n\n    /// @notice Get current contract lifecycle stage.\n    /// @return { State.Active OR State.Retire OR State.Dismissed\n    function currentState () public view returns (State) {\n        return _currentState;\n    }\n\n    /// @notice Prepare contract for termination. Starts a retiring period.\n    /// After retiring period no new debts could be added. One could only repay the existing debts.\n    /// @param _signature Signature of contract owner\n    function retire (bytes memory _signature) public {\n        if (_retiringUntil != 0 && block.timestamp >= _retiringUntil) {\n            _currentState = State.Dismissed;\n        }\n        require(_currentState == State.Active, \"retire: Must be in Active state\");\n        bytes32 digest = ECDSA.toEthSignedMessageHash(retireDigest(address(this)));\n        address recovered = ECDSA.recover(digest, _signature);\n        require(isSigner(recovered), \"retire: Should be signed\");\n\n        _retiringUntil = block.timestamp + _retiringPeriod;\n        _currentState = State.Retired;\n\n        emit DidRetired();\n    }\n\n    /// @notice Prepare contract for termination. Starts a retiring period.\n    //  After retiring period no new debts could be added. One could only repay the existing debts.\n    function stop() public {\n        if (_retiringUntil != 0 && block.timestamp >= _retiringUntil) {\n            _currentState = State.Dismissed;\n        }\n        require(_currentState == State.Dismissed, \"stop: Must be in Dismissed state\");\n        require(_debtsSize == 0, \"stop: There are some debts exists in contract\");\n        require(_balanceSize == 0, \"stop: Need to have null balances for using stop method\");\n\n        emit DidStop();\n\n        selfdestruct(address(msg.sender));\n\n    }\n\n    /// @notice Add deposit with value _amount in currency _token\n    /// @param _token Currency of deposit\n    /// @param _amount Value of deposit\n    function deposit (address _token, uint256 _amount) public {\n        if (_retiringUntil != 0 && block.timestamp >= _retiringUntil) {\n            _currentState = State.Dismissed;\n        }\n        IERC20 token = IERC20(_token);\n        require(token.transferFrom(msg.sender, address(this), _amount), \"deposit: Unable to transfer token to the contract\");\n        if (balance[_token] == 0) {\n            _balanceSize += 1;\n        }\n\n        balance[_token] = balance[_token].add(_amount);\n        emit DidDeposit(_token, _amount);\n    }\n\n    /// @notice Transfer _amount of _token to _destination address.\n    /// @param _destination Destination of tokens\n    /// @param _token Currency of withdraw\n    /// @param _amount Value of withdraw\n    /// @param _signature Signature of contract owner (debtor) of withdrawDigest\n    function withdraw (address _destination, address _token, uint256 _amount, bytes memory _signature) public {\n        require(_amount <= balance[_token], \"withdraw: Trying to withdraw amount which exceeds current balance in specified token\");\n        if (_retiringUntil != 0 && block.timestamp >= _retiringUntil) {\n            _currentState = State.Dismissed;\n        }\n        IERC20 token = IERC20(_token);\n        bytes32 digest = ECDSA.toEthSignedMessageHash(withdrawDigest(_destination, _token, _amount));\n        address recovered = ECDSA.recover(digest, _signature);\n        require(isSigner(recovered), \"withdraw: Should be signed\");\n        require(token.transfer(_destination, _amount), \"withdraw: Can not transfer token\");\n        balance[_token] = balance[_token].sub(_amount);\n        if (balance[_token] == 0) {\n            _balanceSize -= 1;\n        }\n\n        emit DidWithdraw(_destination, _token, _amount);\n    }\n\n    /// @notice Claim the debt from debtor\n    /// @param _id ID of debt in debt mapping\n    /// @param _signature Signature of debtor of collectDigest\n    function collectDebt (bytes32 _id, bytes memory _signature) public {\n        if (_retiringUntil != 0 && block.timestamp >= _retiringUntil) {\n            _currentState = State.Dismissed;\n        }\n        Debt memory debt = debts[_id];\n        require(debt.collectionAfter != 0, \"collectDebt: Debt with specified ID does not found\");\n        address destination = debt.destination;\n\n        address tokenContract = debt.token;\n        Holding other = Holding(destination);\n\n        bytes32 digest = ECDSA.toEthSignedMessageHash(collectDigest(tokenContract));\n        address recoveredOther = ECDSA.recover(digest, _signature);\n\n        require(other.isSigner(recoveredOther), \"collectDebt: Should be signed by other\");\n\n        require(debt.collectionAfter <= block.timestamp, \"collectDebt: Can only collect existing stuff\");\n        IERC20 token = IERC20(tokenContract);\n        uint256 amountToSend;\n        if (debt.amount > balance[tokenContract]) {\n            amountToSend = balance[tokenContract];\n        } else {\n            amountToSend = debt.amount;\n            emit DidClose(destination, tokenContract, amountToSend);\n        }\n\n        debt.amount = debt.amount.sub(amountToSend);\n        balance[tokenContract] = balance[tokenContract].sub(amountToSend);\n        emit DidCollect(destination, tokenContract, balance[tokenContract]);\n\n        require(token.approve(destination, amountToSend), \"collectDebt: Can not approve token transfer\");\n        other.deposit(tokenContract, amountToSend);\n    }\n\n    /// @notice Add debt to contract\n    /// @param _destination Address of creditor\n    /// @param _token Currency of debt\n    /// @param _amount Value of debt\n    /// @param _salt ID of debt between creditor and debtor\n    /// @param _settlementPeriod Time in seconds after that creditor can claim to return debt\n    /// @param _sigDebtor Signature of debtor\n    /// @param _sigCreditor Signature of creditor\n    function addDebt (\n        address _destination,\n        address _token,\n        uint256 _amount,\n        uint16 _salt,\n        uint256 _settlementPeriod,\n        bytes memory _sigDebtor,\n        bytes memory _sigCreditor\n    ) public {\n        if (_retiringUntil != 0 && block.timestamp >= _retiringUntil) {\n            _currentState = State.Dismissed;\n            require(block.timestamp <= _retiringUntil, \"addDebt: Contract is in dismissed state. Can not add new debt\");\n        }\n        bytes32 digest = ECDSA.toEthSignedMessageHash(addDebtDigest(_destination, _token, _amount, _settlementPeriod));\n        address recoveredOwner = ECDSA.recover(digest, _sigDebtor);\n        require(isSigner(recoveredOwner), \"addDebt: Should be signed by owner\");\n\n        address recoveredCreditor = ECDSA.recover(digest, _sigCreditor);\n        Holding creditor = Holding(_destination);\n        require(creditor.isSigner(recoveredCreditor), \"addDebt: Should be signed by creditor\");\n\n        bytes32 debtID = debtIdentifier(_destination, _token, _salt);\n\n        require(debts[debtID].collectionAfter == 0, \"addDebt: Can not override existing\");\n\n        debts[debtID] = Debt({\n            destination: _destination,\n            token: _token,\n            amount: _amount,\n            collectionAfter: block.timestamp + _settlementPeriod,\n            salt: _salt\n        });\n\n        _debtsSize += 1;\n\n        emit DidAddDebt(_destination, _token, _amount);\n    }\n\n    /// @notice Forgive a debt. Can be called by creditor.\n    /// @param _id ID of debt in debt mapping\n    /// @param _signature Currency of creditor\n    function forgiveDebt (bytes32 _id, bytes memory _signature) public {\n        Debt memory debt = debts[_id];\n        address destination = debt.destination;\n        address tokenContract = debt.token;\n        Holding other = Holding(destination);\n        bytes32 digest = ECDSA.toEthSignedMessageHash(forgiveDigest(destination, tokenContract));\n        address recoveredOther = ECDSA.recover(digest, _signature);\n        require(other.isSigner(recoveredOther), \"forgiveDebt: Should be signed by other\");\n\n        emit DidForgive(destination, tokenContract, debt.amount);\n\n        delete debts[_id];\n        _debtsSize -= 1;\n    }\n\n    function forgiveDigest (address _destination, address _token) public pure returns (bytes32) {\n        return keccak256(abi.encode(\"fo\", _destination, _token));\n    }\n\n    function collectDigest (address _token) public pure returns (bytes32) {\n        return keccak256(abi.encode(\"co\", _token));\n    }\n\n    function withdrawDigest (address _destination, address _token, uint256 _amount) public pure returns (bytes32) {\n        return keccak256(abi.encode(\"wi\", _destination, _token, _amount));\n    }\n\n    function retireDigest (address contractAddress) public pure returns (bytes32) {\n        return keccak256(abi.encode(\"re\", contractAddress));\n    }\n\n    function addDebtDigest (\n        address _destination,\n        address _token,\n        uint256 _amount,\n        uint256 _settlementPeriod\n    ) public pure returns (bytes32) {\n        return keccak256(abi.encode(\"ad\", _destination, _token, _amount, _settlementPeriod));\n    }\n\n    function debtIdentifier (address _destination, address _token, uint16 _salt) public view returns (bytes32) {\n        return keccak256(abi.encode(address(this), _destination, _token, _salt));\n    }\n}\n",
  "sourcePath": "/Users/user/Desktop/projects/debt_channel/packages/contracts/contracts/Holding.sol",
  "compiler": {
    "name": "solc",
    "version": "0.5.1+commit.c8a2cb62.Emscripten.clang"
  },
  "schemaVersion": "3.0.0-beta.2",
  "updatedAt": "2019-02-05T17:19:05.449Z",
  "devdoc": {
    "methods": {
      "addDebt(address,address,uint256,uint16,uint256,bytes,bytes)": {
        "params": {
          "_amount": "Value of debt",
          "_destination": "Address of creditor",
          "_salt": "ID of debt between creditor and debtor",
          "_settlementPeriod": "Time in seconds after that creditor can claim to return debt",
          "_sigCreditor": "Signature of creditor",
          "_sigDebtor": "Signature of debtor",
          "_token": "Currency of debt"
        }
      },
      "collectDebt(bytes32,bytes)": {
        "params": {
          "_id": "ID of debt in debt mapping",
          "_signature": "Signature of debtor of collectDigest"
        }
      },
      "constructor": {
        "params": {
          "clearingHouse": "Address of contract that available to clear debts.",
          "owner": "Address of holding's owner.",
          "retiringPeriod": "How many time Holding resides in Retire state since retire() method called."
        }
      },
      "currentState()": {
        "return": "{ State.Active OR State.Retire OR State.Dismissed"
      },
      "deposit(address,uint256)": {
        "params": {
          "_amount": "Value of deposit",
          "_token": "Currency of deposit"
        }
      },
      "forgiveDebt(bytes32,bytes)": {
        "params": {
          "_id": "ID of debt in debt mapping",
          "_signature": "Currency of creditor"
        }
      },
      "isOwner()": {
        "return": "true if `msg.sender` is the owner of the contract."
      },
      "owner()": {
        "return": "the address of the owner."
      },
      "renounceOwnership()": {
        "details": "Allows the current owner to relinquish control of the contract."
      },
      "retire(bytes)": {
        "params": {
          "_signature": "Signature of contract owner"
        }
      },
      "transferOwnership(address)": {
        "details": "Allows the current owner to transfer control of the contract to a newOwner.",
        "params": {
          "newOwner": "The address to transfer ownership to."
        }
      },
      "withdraw(address,address,uint256,bytes)": {
        "params": {
          "_amount": "Value of withdraw",
          "_destination": "Destination of tokens",
          "_signature": "Signature of contract owner (debtor) of withdrawDigest",
          "_token": "Currency of withdraw"
        }
      }
    },
    "title": "Holding"
  },
  "userdoc": {
    "methods": {
      "addDebt(address,address,uint256,uint16,uint256,bytes,bytes)": {
        "notice": "Add debt to contract"
      },
      "collectDebt(bytes32,bytes)": {
        "notice": "Claim the debt from debtor"
      },
      "constructor": "Constructs the new \"Holding\" contract.",
      "currentState()": {
        "notice": "Get current contract lifecycle stage."
      },
      "deposit(address,uint256)": {
        "notice": "Add deposit with value _amount in currency _token"
      },
      "forgiveDebt(bytes32,bytes)": {
        "notice": "Forgive a debt. Can be called by creditor."
      },
      "renounceOwnership()": {
        "notice": "Renouncing to ownership will leave the contract without an owner. It will not be possible to call the functions with the `onlyOwner` modifier anymore."
      },
      "retire(bytes)": {
        "notice": "Prepare contract for termination. Starts a retiring period. After retiring period no new debts could be added. One could only repay the existing debts."
      },
      "stop()": {
        "notice": "Prepare contract for termination. Starts a retiring period."
      },
      "withdraw(address,address,uint256,bytes)": {
        "notice": "Transfer _amount of _token to _destination address."
      }
    }
  }
}