{
  "contractName": "Holding",
  "abi": [
    {
      "constant": true,
      "inputs": [
        {
          "name": "",
          "type": "address"
        },
        {
          "name": "",
          "type": "address"
        }
      ],
      "name": "debts",
      "outputs": [
        {
          "name": "collectionAfter",
          "type": "uint256"
        },
        {
          "name": "amount",
          "type": "uint256"
        }
      ],
      "payable": false,
      "stateMutability": "view",
      "type": "function"
    },
    {
      "constant": false,
      "inputs": [],
      "name": "renounceOwnership",
      "outputs": [],
      "payable": false,
      "stateMutability": "nonpayable",
      "type": "function"
    },
    {
      "constant": true,
      "inputs": [
        {
          "name": "account",
          "type": "address"
        }
      ],
      "name": "isSigner",
      "outputs": [
        {
          "name": "",
          "type": "bool"
        }
      ],
      "payable": false,
      "stateMutability": "view",
      "type": "function"
    },
    {
      "constant": true,
      "inputs": [],
      "name": "owner",
      "outputs": [
        {
          "name": "",
          "type": "address"
        }
      ],
      "payable": false,
      "stateMutability": "view",
      "type": "function"
    },
    {
      "constant": true,
      "inputs": [],
      "name": "isOwner",
      "outputs": [
        {
          "name": "",
          "type": "bool"
        }
      ],
      "payable": false,
      "stateMutability": "view",
      "type": "function"
    },
    {
      "constant": false,
      "inputs": [],
      "name": "renounceSigner",
      "outputs": [],
      "payable": false,
      "stateMutability": "nonpayable",
      "type": "function"
    },
    {
      "constant": false,
      "inputs": [
        {
          "name": "account",
          "type": "address"
        }
      ],
      "name": "addSigner",
      "outputs": [],
      "payable": false,
      "stateMutability": "nonpayable",
      "type": "function"
    },
    {
      "constant": false,
      "inputs": [
        {
          "name": "newOwner",
          "type": "address"
        }
      ],
      "name": "transferOwnership",
      "outputs": [],
      "payable": false,
      "stateMutability": "nonpayable",
      "type": "function"
    },
    {
      "constant": true,
      "inputs": [
        {
          "name": "",
          "type": "address"
        }
      ],
      "name": "deposits",
      "outputs": [
        {
          "name": "",
          "type": "uint256"
        }
      ],
      "payable": false,
      "stateMutability": "view",
      "type": "function"
    },
    {
      "anonymous": false,
      "inputs": [
        {
          "indexed": true,
          "name": "token",
          "type": "address"
        },
        {
          "indexed": false,
          "name": "amount",
          "type": "uint256"
        }
      ],
      "name": "DidDeposit",
      "type": "event"
    },
    {
      "anonymous": false,
      "inputs": [
        {
          "indexed": true,
          "name": "destination",
          "type": "address"
        },
        {
          "indexed": true,
          "name": "token",
          "type": "address"
        },
        {
          "indexed": false,
          "name": "amount",
          "type": "uint256"
        }
      ],
      "name": "DidAddDebt",
      "type": "event"
    },
    {
      "anonymous": false,
      "inputs": [
        {
          "indexed": true,
          "name": "destination",
          "type": "address"
        },
        {
          "indexed": true,
          "name": "token",
          "type": "address"
        },
        {
          "indexed": false,
          "name": "amount",
          "type": "uint256"
        }
      ],
      "name": "DidCollect",
      "type": "event"
    },
    {
      "anonymous": false,
      "inputs": [
        {
          "indexed": true,
          "name": "destination",
          "type": "address"
        },
        {
          "indexed": true,
          "name": "token",
          "type": "address"
        },
        {
          "indexed": false,
          "name": "amount",
          "type": "uint256"
        }
      ],
      "name": "DidClose",
      "type": "event"
    },
    {
      "anonymous": false,
      "inputs": [
        {
          "indexed": true,
          "name": "destination",
          "type": "address"
        },
        {
          "indexed": true,
          "name": "token",
          "type": "address"
        },
        {
          "indexed": false,
          "name": "amount",
          "type": "uint256"
        }
      ],
      "name": "DidWithdraw",
      "type": "event"
    },
    {
      "anonymous": false,
      "inputs": [
        {
          "indexed": true,
          "name": "destination",
          "type": "address"
        },
        {
          "indexed": true,
          "name": "token",
          "type": "address"
        },
        {
          "indexed": false,
          "name": "amount",
          "type": "uint256"
        }
      ],
      "name": "DidForgive",
      "type": "event"
    },
    {
      "anonymous": false,
      "inputs": [
        {
          "indexed": true,
          "name": "account",
          "type": "address"
        }
      ],
      "name": "SignerAdded",
      "type": "event"
    },
    {
      "anonymous": false,
      "inputs": [
        {
          "indexed": true,
          "name": "account",
          "type": "address"
        }
      ],
      "name": "SignerRemoved",
      "type": "event"
    },
    {
      "anonymous": false,
      "inputs": [
        {
          "indexed": true,
          "name": "previousOwner",
          "type": "address"
        },
        {
          "indexed": true,
          "name": "newOwner",
          "type": "address"
        }
      ],
      "name": "OwnershipTransferred",
      "type": "event"
    },
    {
      "constant": false,
      "inputs": [
        {
          "name": "_token",
          "type": "address"
        },
        {
          "name": "_amount",
          "type": "uint256"
        }
      ],
      "name": "deposit",
      "outputs": [],
      "payable": false,
      "stateMutability": "nonpayable",
      "type": "function"
    },
    {
      "constant": false,
      "inputs": [
        {
          "name": "_destination",
          "type": "address"
        },
        {
          "name": "_token",
          "type": "address"
        },
        {
          "name": "_amount",
          "type": "uint256"
        },
        {
          "name": "_signature",
          "type": "bytes"
        }
      ],
      "name": "withdraw",
      "outputs": [],
      "payable": false,
      "stateMutability": "nonpayable",
      "type": "function"
    },
    {
      "constant": false,
      "inputs": [
        {
          "name": "_destination",
          "type": "address"
        },
        {
          "name": "_token",
          "type": "address"
        },
        {
          "name": "_signature",
          "type": "bytes"
        }
      ],
      "name": "collect",
      "outputs": [],
      "payable": false,
      "stateMutability": "nonpayable",
      "type": "function"
    },
    {
      "constant": false,
      "inputs": [
        {
          "name": "_destination",
          "type": "address"
        },
        {
          "name": "_token",
          "type": "address"
        },
        {
          "name": "_amount",
          "type": "uint256"
        },
        {
          "name": "_settlementPeriod",
          "type": "uint256"
        },
        {
          "name": "_sigMine",
          "type": "bytes"
        },
        {
          "name": "_sigOther",
          "type": "bytes"
        }
      ],
      "name": "addDebt",
      "outputs": [],
      "payable": false,
      "stateMutability": "nonpayable",
      "type": "function"
    },
    {
      "constant": false,
      "inputs": [
        {
          "name": "_destination",
          "type": "address"
        },
        {
          "name": "_token",
          "type": "address"
        },
        {
          "name": "_sigMine",
          "type": "bytes"
        },
        {
          "name": "_sigOther",
          "type": "bytes"
        }
      ],
      "name": "forgive",
      "outputs": [],
      "payable": false,
      "stateMutability": "nonpayable",
      "type": "function"
    },
    {
      "constant": true,
      "inputs": [
        {
          "name": "_destination",
          "type": "address"
        },
        {
          "name": "_token",
          "type": "address"
        }
      ],
      "name": "forgiveDigest",
      "outputs": [
        {
          "name": "",
          "type": "bytes32"
        }
      ],
      "payable": false,
      "stateMutability": "pure",
      "type": "function"
    },
    {
      "constant": true,
      "inputs": [
        {
          "name": "_token",
          "type": "address"
        }
      ],
      "name": "collectDigest",
      "outputs": [
        {
          "name": "",
          "type": "bytes32"
        }
      ],
      "payable": false,
      "stateMutability": "pure",
      "type": "function"
    },
    {
      "constant": true,
      "inputs": [
        {
          "name": "_destination",
          "type": "address"
        },
        {
          "name": "_token",
          "type": "address"
        },
        {
          "name": "_amount",
          "type": "uint256"
        }
      ],
      "name": "withdrawDigest",
      "outputs": [
        {
          "name": "",
          "type": "bytes32"
        }
      ],
      "payable": false,
      "stateMutability": "pure",
      "type": "function"
    },
    {
      "constant": true,
      "inputs": [
        {
          "name": "_destination",
          "type": "address"
        },
        {
          "name": "_token",
          "type": "address"
        },
        {
          "name": "_amount",
          "type": "uint256"
        }
      ],
      "name": "addDebtDigest",
      "outputs": [
        {
          "name": "",
          "type": "bytes32"
        }
      ],
      "payable": false,
      "stateMutability": "pure",
      "type": "function"
    }
  ],
  "bytecode": "0x6080604081905260008054600160a060020a0319163317808255600160a060020a0316917f8be0079c531659141344cd1fd0a4f28419497f9722a3daafe3b4186f6b6457e0908290a36200005c3364010000000062000062810204565b62000147565b6200007d60018264010000000062001a63620000b482021704565b604051600160a060020a038216907f47d1c22a25bb3a5d4e481b9b1e6944c2eade3181a0a20b495ed61d35b5323f2490600090a250565b600160a060020a0381161515620000ca57600080fd5b620000df82826401000000006200010f810204565b15620000ea57600080fd5b600160a060020a0316600090815260209190915260409020805460ff19166001179055565b6000600160a060020a03821615156200012757600080fd5b50600160a060020a03166000908152602091909152604090205460ff1690565b611af480620001576000396000f3fe6080604052600436106100dc5760e060020a60003504633e5cb34881146100e157806347e7ef24146101af5780634ac1c33d146101e85780635461087a1461023c578063659378aa14610289578063715018a6146102cc57806377b575d8146102e15780637df73e27146103245780638da5cb5b1461036b5780638f32d59b1461039c57806395a10986146103b1578063b22e571614610510578063e5c8b03d14610663578063eb12d61e14610678578063ed9fe44a146106ab578063f2fde38b146106de578063f37e8d3814610711578063fc7e286d146107e4575b600080fd5b3480156100ed57600080fd5b506101ad6004803603606081101561010457600080fd5b600160a060020a03823581169260208101359091169181019060608101604082013564010000000081111561013857600080fd5b82018360208201111561014a57600080fd5b8035906020019184600183028401116401000000008311171561016c57600080fd5b91908080601f016020809104026020016040519081016040528093929190818152602001838380828437600092019190915250929550610817945050505050565b005b3480156101bb57600080fd5b506101ad600480360360408110156101d257600080fd5b50600160a060020a038135169060200135610c5b565b3480156101f457600080fd5b506102236004803603604081101561020b57600080fd5b50600160a060020a0381358116916020013516610df4565b6040805192835260208301919091528051918290030190f35b34801561024857600080fd5b506102776004803603604081101561025f57600080fd5b50600160a060020a0381358116916020013516610e18565b60408051918252519081900360200190f35b34801561029557600080fd5b50610277600480360360608110156102ac57600080fd5b50600160a060020a03813581169160208101359091169060400135610e8e565b3480156102d857600080fd5b506101ad610f07565b3480156102ed57600080fd5b506102776004803603606081101561030457600080fd5b50600160a060020a03813581169160208101359091169060400135610f71565b34801561033057600080fd5b506103576004803603602081101561034757600080fd5b5035600160a060020a0316610fea565b604080519115158252519081900360200190f35b34801561037757600080fd5b50610380610ffd565b60408051600160a060020a039092168252519081900360200190f35b3480156103a857600080fd5b5061035761100c565b3480156103bd57600080fd5b506101ad600480360360c08110156103d457600080fd5b600160a060020a03823581169260208101359091169160408201359160608101359181019060a08101608082013564010000000081111561041457600080fd5b82018360208201111561042657600080fd5b8035906020019184600183028401116401000000008311171561044857600080fd5b91908080601f016020809104026020016040519081016040528093929190818152602001838380828437600092019190915250929594936020810193503591505064010000000081111561049b57600080fd5b8201836020820111156104ad57600080fd5b803590602001918460018302840111640100000000831117156104cf57600080fd5b91908080601f01602080910402602001604051908101604052809392919081815260200183838082843760009201919091525092955061101d945050505050565b34801561051c57600080fd5b506101ad6004803603608081101561053357600080fd5b600160a060020a03823581169260208101359091169181019060608101604082013564010000000081111561056757600080fd5b82018360208201111561057957600080fd5b8035906020019184600183028401116401000000008311171561059b57600080fd5b91908080601f01602080910402602001604051908101604052809392919081815260200183838082843760009201919091525092959493602081019350359150506401000000008111156105ee57600080fd5b82018360208201111561060057600080fd5b8035906020019184600183028401116401000000008311171561062257600080fd5b91908080601f0160208091040260200160405190810160405280939291908181526020018383808284376000920191909152509295506112d2945050505050565b34801561066f57600080fd5b506101ad6114d0565b34801561068457600080fd5b506101ad6004803603602081101561069b57600080fd5b5035600160a060020a03166114db565b3480156106b757600080fd5b50610277600480360360208110156106ce57600080fd5b5035600160a060020a03166114fb565b3480156106ea57600080fd5b506101ad6004803603602081101561070157600080fd5b5035600160a060020a0316611562565b34801561071d57600080fd5b506101ad6004803603608081101561073457600080fd5b600160a060020a0382358116926020810135909116916040820135919081019060808101606082013564010000000081111561076f57600080fd5b82018360208201111561078157600080fd5b803590602001918460018302840111640100000000831117156107a357600080fd5b91908080601f01602080910402602001604051908101604052809392919081815260200183838082843760009201919091525092955061157e945050505050565b3480156107f057600080fd5b506102776004803603602081101561080757600080fd5b5035600160a060020a031661176c565b82600061082b610826856114fb565b61177e565b9050600061083982856117cf565b905082600160a060020a0316637df73e27826040518263ffffffff1660e060020a0281526004018082600160a060020a0316600160a060020a0316815260200191505060206040518083038186803b15801561089457600080fd5b505afa1580156108a8573d6000803e3d6000fd5b505050506040513d60208110156108be57600080fd5b50511515610916576040805160e560020a62461bcd02815260206004820152601960248201527f53686f756c64206265207369676e6564206279206f7468657200000000000000604482015290519081900360640190fd5b61091e611ab1565b50600160a060020a03808716600090815260036020908152604080832093891683529281529082902082518084019093528054808452600190910154918301919091524211156109b8576040805160e560020a62461bcd02815260206004820152601f60248201527f43616e206f6e6c7920636f6c6c656374206578697374696e6720737475666600604482015290519081900360640190fd5b600160a060020a03861660009081526002602090815260408220549083015188929110156109ff5750600160a060020a038716600090815260026020526040902054610a51565b8260200151905087600160a060020a031689600160a060020a03167e6961675c3a86ce692a816fc0690bea5024beddb204bddab036805b1e41ed64836040518082815260200191505060405180910390a35b6020830151610a66908263ffffffff6118a516565b602080850191909152600160a060020a038916600090815260029091526040902054610a98908263ffffffff6118a516565b600160a060020a03808a16600081815260026020908152604091829020859055815194855290519193928d16927f324f9155ed66e3244ff2c26eac5aa58c6544c9a886cb7008e8e1d9f4c6b76d89929081900390910190a381600160a060020a031663095ea7b38a836040518363ffffffff1660e060020a0281526004018083600160a060020a0316600160a060020a0316815260200182815260200192505050602060405180830381600087803b158015610b5357600080fd5b505af1158015610b67573d6000803e3d6000fd5b505050506040513d6020811015610b7d57600080fd5b50511515610bd5576040805160e560020a62461bcd02815260206004820152601e60248201527f43616e206e6f7420617070726f766520746f6b656e207472616e736665720000604482015290519081900360640190fd5b85600160a060020a03166347e7ef2489836040518363ffffffff1660e060020a0281526004018083600160a060020a0316600160a060020a0316815260200182815260200192505050600060405180830381600087803b158015610c3857600080fd5b505af1158015610c4c573d6000803e3d6000fd5b50505050505050505050505050565b604080517f23b872dd0000000000000000000000000000000000000000000000000000000081523360048201523060248201526044810183905290518391600160a060020a038316916323b872dd916064808201926020929091908290030181600087803b158015610ccc57600080fd5b505af1158015610ce0573d6000803e3d6000fd5b505050506040513d6020811015610cf657600080fd5b50511515610d74576040805160e560020a62461bcd02815260206004820152602860248201527f556e61626c6520746f207472616e7366657220746f6b656e20746f207468652060448201527f636f6e7472616374000000000000000000000000000000000000000000000000606482015290519081900360840190fd5b600160a060020a038316600090815260026020526040902054610d9d908363ffffffff6118ba16565b600160a060020a038416600081815260026020908152604091829020939093558051858152905191927f67b910fa040657b3d16456bb3485c92024c708a57feebdd18e1fbd5b7d028d9f92918290030190a2505050565b60036020908152600092835260408084209091529082529020805460019091015482565b60408051600160a060020a03808516828401528316606080830191909152602080830191909152600260808301527f666f00000000000000000000000000000000000000000000000000000000000060a0808401919091528351808403909101815260c090920190925280519101205b92915050565b60408051600160a060020a0394851681830152929093166060830152608080830191909152602080830191909152600260a08301527f776900000000000000000000000000000000000000000000000000000000000060c0808401919091528351808403909101815260e0909201909252805191012090565b610f0f61100c565b1515610f1a57600080fd5b60008054604051600160a060020a03909116907f8be0079c531659141344cd1fd0a4f28419497f9722a3daafe3b4186f6b6457e0908390a36000805473ffffffffffffffffffffffffffffffffffffffff19169055565b60408051600160a060020a0394851681830152929093166060830152608080830191909152602080830191909152600260a08301527f616400000000000000000000000000000000000000000000000000000000000060c0808401919091528351808403909101815260e0909201909252805191012090565b6000610e8860018363ffffffff6118d316565b600054600160a060020a031690565b600054600160a060020a0316331490565b600061102d610826888888610f71565b9050600061103b82856117cf565b905061104681610fea565b151561109c576040805160e560020a62461bcd02815260206004820152601660248201527f53686f756c64206265207369676e6564206279206d6500000000000000000000604482015290519081900360640190fd5b60006110a883856117cf565b9050600089905080600160a060020a0316637df73e27836040518263ffffffff1660e060020a0281526004018082600160a060020a0316600160a060020a0316815260200191505060206040518083038186803b15801561110857600080fd5b505afa15801561111c573d6000803e3d6000fd5b505050506040513d602081101561113257600080fd5b5051151561118a576040805160e560020a62461bcd02815260206004820152601960248201527f53686f756c64206265207369676e6564206279206f7468657200000000000000604482015290519081900360640190fd5b600160a060020a03808b166000908152600360209081526040808320938d168352929052205415611205576040805160e560020a62461bcd02815260206004820152601960248201527f43616e206e6f74206f76657272696465206578697374696e6700000000000000604482015290519081900360640190fd5b6040805190810160405280884201815260200189815250600360008c600160a060020a0316600160a060020a0316815260200190815260200160002060008b600160a060020a0316600160a060020a03168152602001908152602001600020600082015181600001556020820151816001015590505088600160a060020a03168a600160a060020a03167f2d078bdbe31a4f135549319bb8f04e34ce787751d920f5649c307e61e2d8755b8a6040518082815260200191505060405180910390a350505050505050505050565b8360006112e26108268387610e18565b905060006112f082856117cf565b905082600160a060020a0316637df73e27826040518263ffffffff1660e060020a0281526004018082600160a060020a0316600160a060020a0316815260200191505060206040518083038186803b15801561134b57600080fd5b505afa15801561135f573d6000803e3d6000fd5b505050506040513d602081101561137557600080fd5b505115156113cd576040805160e560020a62461bcd02815260206004820152601960248201527f53686f756c64206265207369676e6564206279206f7468657200000000000000604482015290519081900360640190fd5b60006113d983876117cf565b90506113e481610fea565b151561143a576040805160e560020a62461bcd02815260206004820152601660248201527f53686f756c64206265207369676e6564206279206d6500000000000000000000604482015290519081900360640190fd5b600160a060020a038881166000818152600360209081526040808320948c168084529482529182902060010154825190815291517f072344a4137dcbffc9234fb806e11a55d95c374109775da8c77d5ed36b8fe9ed9281900390910190a3505050600160a060020a0394851660009081526003602090815260408083209690971682529490945250505090812081815560010155565b6114d93361190a565b565b6114e433610fea565b15156114ef57600080fd5b6114f881611952565b50565b60408051600160a060020a038316818301526020808201839052600260608301527f636f0000000000000000000000000000000000000000000000000000000000006080808401919091528351808403909101815260a09092019092528051910120919050565b61156a61100c565b151561157557600080fd5b6114f88161199a565b82600061158f610826878487610e8e565b9050600061159d82856117cf565b90506115a881610fea565b15156115fe576040805160e560020a62461bcd02815260206004820152601060248201527f53686f756c64206265207369676e656400000000000000000000000000000000604482015290519081900360640190fd5b82600160a060020a031663a9059cbb88876040518363ffffffff1660e060020a0281526004018083600160a060020a0316600160a060020a0316815260200182815260200192505050602060405180830381600087803b15801561166157600080fd5b505af1158015611675573d6000803e3d6000fd5b505050506040513d602081101561168b57600080fd5b505115156116e3576040805160e560020a62461bcd02815260206004820152601660248201527f43616e206e6f74207472616e7366657220746f6b656e00000000000000000000604482015290519081900360640190fd5b600160a060020a03861660009081526002602052604090205461170c908663ffffffff6118a516565b600160a060020a0380881660008181526002602090815260409182902094909455805189815290519193928b16927f30e6a5fbc5561e2b7f128a4a32fcb64e4c1eb6b72d14ba951dac89307c4d329192918290030190a350505050505050565b60026020526000908152604090205481565b604080517f19457468657265756d205369676e6564204d6573736167653a0a333200000000602080830191909152603c8083019490945282518083039094018452605c909101909152815191012090565b600080600080845160411415156117ec5760009350505050610e88565b50505060208201516040830151606084015160001a601b60ff8216101561181157601b015b8060ff16601b1415801561182957508060ff16601c14155b1561183a5760009350505050610e88565b6040805160008152602080820180845289905260ff8416828401526060820186905260808201859052915160019260a0808401939192601f1981019281900390910190855afa158015611891573d6000803e3d6000fd5b505050602060405103519350505050610e88565b6000828211156118b457600080fd5b50900390565b6000828201838110156118cc57600080fd5b9392505050565b6000600160a060020a03821615156118ea57600080fd5b50600160a060020a03166000908152602091909152604090205460ff1690565b61191b60018263ffffffff611a1716565b604051600160a060020a038216907f3525e22824a8a7df2c9a6029941c824cf95b6447f1e13d5128fd3826d35afe8b90600090a250565b61196360018263ffffffff611a6316565b604051600160a060020a038216907f47d1c22a25bb3a5d4e481b9b1e6944c2eade3181a0a20b495ed61d35b5323f2490600090a250565b600160a060020a03811615156119af57600080fd5b60008054604051600160a060020a03808516939216917f8be0079c531659141344cd1fd0a4f28419497f9722a3daafe3b4186f6b6457e091a36000805473ffffffffffffffffffffffffffffffffffffffff1916600160a060020a0392909216919091179055565b600160a060020a0381161515611a2c57600080fd5b611a3682826118d3565b1515611a4157600080fd5b600160a060020a0316600090815260209190915260409020805460ff19169055565b600160a060020a0381161515611a7857600080fd5b611a8282826118d3565b15611a8c57600080fd5b600160a060020a0316600090815260209190915260409020805460ff19166001179055565b60408051808201909152600080825260208201529056fea165627a7a72305820d7801e61302435dddf196c962da1abdd6cf41522fd789f0739d9848d46e968420029",
  "source": "pragma solidity ^0.5.0;\n\nimport \"./vendor/IERC20.sol\";\nimport \"./vendor/SafeMath.sol\";\nimport \"./vendor/Ownable.sol\";\nimport \"./vendor/SignerRole.sol\";\nimport \"./vendor/ECDSA.sol\";\n\ncontract Holding is Ownable, SignerRole {\n    using SafeMath for uint256;\n\n    struct Debt {\n        uint256 collectionAfter;\n        uint256 amount;\n    }\n\n    mapping (address => uint256) public deposits;\n    mapping (address => mapping (address => Debt)) public debts;\n\n    event DidDeposit(address indexed token, uint256 amount);\n    event DidAddDebt(address indexed destination, address indexed token, uint256 amount);\n    event DidCollect(address indexed destination, address indexed token, uint256 amount);\n    event DidClose(address indexed destination, address indexed token, uint256 amount);\n    event DidWithdraw(address indexed destination, address indexed token, uint256 amount);\n    event DidForgive(address indexed destination, address indexed token, uint256 amount);\n\n    function deposit (address _token, uint256 _amount) public {\n        IERC20 token = IERC20(_token);\n        require(token.transferFrom(msg.sender, address(this), _amount), \"Unable to transfer token to the contract\");\n        deposits[_token] = deposits[_token].add(_amount);\n        emit DidDeposit(_token, _amount);\n    }\n\n    function withdraw (address _destination, address _token, uint256 _amount, bytes memory _signature) public {\n        IERC20 token = IERC20(_token);\n        bytes32 digest = ECDSA.toEthSignedMessageHash(withdrawDigest(_destination, _token, _amount));\n        address recovered = ECDSA.recover(digest, _signature);\n        require(isSigner(recovered), \"Should be signed\");\n        require(token.transfer(_destination, _amount), \"Can not transfer token\");\n        deposits[_token] = deposits[_token].sub(_amount);\n        emit DidWithdraw(_destination, _token, _amount);\n    }\n\n    function collect (address _destination, address _token, bytes memory _signature) public {\n        Holding other = Holding(_destination);\n        bytes32 digest = ECDSA.toEthSignedMessageHash(collectDigest(_token));\n        address recoveredOther = ECDSA.recover(digest, _signature);\n        require(other.isSigner(recoveredOther), \"Should be signed by other\");\n\n        Debt memory debt = debts[_destination][_token];\n        require(debt.collectionAfter >= block.timestamp, \"Can only collect existing stuff\");\n        IERC20 token = IERC20(_token);\n        uint256 amountToSend;\n        if (debt.amount > deposits[_token]) {\n            amountToSend = deposits[_token];\n        } else {\n            amountToSend = debt.amount;\n            emit DidClose(_destination, _token, amountToSend);\n        }\n\n        debt.amount = debt.amount.sub(amountToSend);\n        deposits[_token] = deposits[_token].sub(amountToSend);\n        emit DidCollect(_destination, _token, deposits[_token]);\n\n        require(token.approve(_destination, amountToSend), \"Can not approve token transfer\");\n        other.deposit(_token, amountToSend);\n    }\n\n    function addDebt (\n        address _destination,\n        address _token,\n        uint256 _amount,\n        uint256 _settlementPeriod,\n        bytes memory _sigMine,\n        bytes memory _sigOther\n    ) public {\n        bytes32 digest = ECDSA.toEthSignedMessageHash(addDebtDigest(_destination, _token, _amount));\n        address recoveredMine = ECDSA.recover(digest, _sigMine);\n        require(isSigner(recoveredMine), \"Should be signed by me\");\n\n        address recoveredOther = ECDSA.recover(digest, _sigOther);\n        Holding other = Holding(_destination);\n        require(other.isSigner(recoveredOther), \"Should be signed by other\");\n\n        require(debts[_destination][_token].collectionAfter == 0, \"Can not override existing\");\n\n        debts[_destination][_token] = Debt({\n            amount: _amount,\n            collectionAfter: block.timestamp + _settlementPeriod\n        });\n\n        emit DidAddDebt(_destination, _token, _amount);\n    }\n\n    function forgive (\n        address _destination,\n        address _token,\n        bytes memory _sigMine,\n        bytes memory _sigOther\n    ) public {\n        Holding other = Holding(_destination);\n        bytes32 digest = ECDSA.toEthSignedMessageHash(forgiveDigest(_destination, _token));\n        address recoveredOther = ECDSA.recover(digest, _sigOther);\n        require(other.isSigner(recoveredOther), \"Should be signed by other\");\n\n        address recoveredMine = ECDSA.recover(digest, _sigMine);\n        require(isSigner(recoveredMine), \"Should be signed by me\");\n\n        emit DidForgive(_destination, _token, debts[_destination][_token].amount);\n\n        delete debts[_destination][_token];\n    }\n\n    function forgiveDigest (address _destination, address _token) public pure returns (bytes32) {\n        return keccak256(abi.encode(\"fo\", _destination, _token));\n    }\n\n    function collectDigest (address _token) public pure returns (bytes32) {\n        return keccak256(abi.encode(\"co\", _token));\n    }\n\n    function withdrawDigest (address _destination, address _token, uint256 _amount) public pure returns (bytes32) {\n        return keccak256(abi.encode(\"wi\", _destination, _token, _amount));\n    }\n\n    function addDebtDigest (\n        address _destination,\n        address _token,\n        uint256 _amount\n    ) public pure returns (bytes32) {\n        return keccak256(abi.encode(\"ad\", _destination, _token, _amount));\n    }\n}\n",
  "sourcePath": "/Users/ukstv/Desktop/debt_channel/packages/contracts/contracts/Holding.sol",
  "compiler": {
    "name": "solc",
    "version": "0.5.1+commit.c8a2cb62.Emscripten.clang"
  },
  "schemaVersion": "3.0.0-beta.2",
  "updatedAt": "2018-12-09T00:24:02.638Z",
  "devdoc": {
    "methods": {
      "isOwner()": {
        "return": "true if `msg.sender` is the owner of the contract."
      },
      "owner()": {
        "return": "the address of the owner."
      },
      "renounceOwnership()": {
        "details": "Allows the current owner to relinquish control of the contract."
      },
      "transferOwnership(address)": {
        "details": "Allows the current owner to transfer control of the contract to a newOwner.",
        "params": {
          "newOwner": "The address to transfer ownership to."
        }
      }
    }
  },
  "userdoc": {
    "methods": {
      "renounceOwnership()": {
        "notice": "Renouncing to ownership will leave the contract without an owner. It will not be possible to call the functions with the `onlyOwner` modifier anymore."
      }
    }
  }
}