{
  "contractName": "Holding",
  "abi": [
    {
      "constant": false,
      "inputs": [],
      "name": "renounceOwnership",
      "outputs": [],
      "payable": false,
      "stateMutability": "nonpayable",
      "type": "function"
    },
    {
      "constant": true,
      "inputs": [
        {
          "name": "account",
          "type": "address"
        }
      ],
      "name": "isSigner",
      "outputs": [
        {
          "name": "",
          "type": "bool"
        }
      ],
      "payable": false,
      "stateMutability": "view",
      "type": "function"
    },
    {
      "constant": true,
      "inputs": [],
      "name": "owner",
      "outputs": [
        {
          "name": "",
          "type": "address"
        }
      ],
      "payable": false,
      "stateMutability": "view",
      "type": "function"
    },
    {
      "constant": true,
      "inputs": [],
      "name": "isOwner",
      "outputs": [
        {
          "name": "",
          "type": "bool"
        }
      ],
      "payable": false,
      "stateMutability": "view",
      "type": "function"
    },
    {
      "constant": false,
      "inputs": [],
      "name": "renounceSigner",
      "outputs": [],
      "payable": false,
      "stateMutability": "nonpayable",
      "type": "function"
    },
    {
      "constant": false,
      "inputs": [
        {
          "name": "account",
          "type": "address"
        }
      ],
      "name": "addSigner",
      "outputs": [],
      "payable": false,
      "stateMutability": "nonpayable",
      "type": "function"
    },
    {
      "constant": false,
      "inputs": [
        {
          "name": "newOwner",
          "type": "address"
        }
      ],
      "name": "transferOwnership",
      "outputs": [],
      "payable": false,
      "stateMutability": "nonpayable",
      "type": "function"
    },
    {
      "constant": true,
      "inputs": [
        {
          "name": "",
          "type": "address"
        }
      ],
      "name": "deposits",
      "outputs": [
        {
          "name": "",
          "type": "uint256"
        }
      ],
      "payable": false,
      "stateMutability": "view",
      "type": "function"
    },
    {
      "anonymous": false,
      "inputs": [
        {
          "indexed": true,
          "name": "token",
          "type": "address"
        },
        {
          "indexed": false,
          "name": "amount",
          "type": "uint256"
        }
      ],
      "name": "DidDeposit",
      "type": "event"
    },
    {
      "anonymous": false,
      "inputs": [
        {
          "indexed": true,
          "name": "account",
          "type": "address"
        }
      ],
      "name": "SignerAdded",
      "type": "event"
    },
    {
      "anonymous": false,
      "inputs": [
        {
          "indexed": true,
          "name": "account",
          "type": "address"
        }
      ],
      "name": "SignerRemoved",
      "type": "event"
    },
    {
      "anonymous": false,
      "inputs": [
        {
          "indexed": true,
          "name": "previousOwner",
          "type": "address"
        },
        {
          "indexed": true,
          "name": "newOwner",
          "type": "address"
        }
      ],
      "name": "OwnershipTransferred",
      "type": "event"
    },
    {
      "constant": false,
      "inputs": [
        {
          "name": "_token",
          "type": "address"
        },
        {
          "name": "_amount",
          "type": "uint256"
        }
      ],
      "name": "deposit",
      "outputs": [],
      "payable": false,
      "stateMutability": "nonpayable",
      "type": "function"
    }
  ],
  "bytecode": "0x6080604081905260008054600160a060020a0319163317808255600160a060020a0316917f8be0079c531659141344cd1fd0a4f28419497f9722a3daafe3b4186f6b6457e0908290a361005a3364010000000061005f810204565b61013c565b6100776001826401000000006106896100ae82021704565b604051600160a060020a038216907f47d1c22a25bb3a5d4e481b9b1e6944c2eade3181a0a20b495ed61d35b5323f2490600090a250565b600160a060020a03811615156100c357600080fd5b6100d68282640100000000610105810204565b156100e057600080fd5b600160a060020a0316600090815260209190915260409020805460ff19166001179055565b6000600160a060020a038216151561011c57600080fd5b50600160a060020a03166000908152602091909152604090205460ff1690565b6107038061014b6000396000f3fe608060405260043610610092577c0100000000000000000000000000000000000000000000000000000000600035046347e7ef248114610097578063715018a6146100d25780637df73e27146100e75780638da5cb5b1461012e5780638f32d59b1461015f578063e5c8b03d14610174578063eb12d61e14610189578063f2fde38b146101bc578063fc7e286d146101ef575b600080fd5b3480156100a357600080fd5b506100d0600480360360408110156100ba57600080fd5b50600160a060020a038135169060200135610234565b005b3480156100de57600080fd5b506100d06103e4565b3480156100f357600080fd5b5061011a6004803603602081101561010a57600080fd5b5035600160a060020a031661044e565b604080519115158252519081900360200190f35b34801561013a57600080fd5b50610143610467565b60408051600160a060020a039092168252519081900360200190f35b34801561016b57600080fd5b5061011a610476565b34801561018057600080fd5b506100d0610487565b34801561019557600080fd5b506100d0600480360360208110156101ac57600080fd5b5035600160a060020a0316610492565b3480156101c857600080fd5b506100d0600480360360208110156101df57600080fd5b5035600160a060020a03166104b2565b3480156101fb57600080fd5b506102226004803603602081101561021257600080fd5b5035600160a060020a03166104ce565b60408051918252519081900360200190f35b604080517f23b872dd0000000000000000000000000000000000000000000000000000000081523360048201523060248201526044810183905290518391600160a060020a038316916323b872dd916064808201926020929091908290030181600087803b1580156102a557600080fd5b505af11580156102b9573d6000803e3d6000fd5b505050506040513d60208110156102cf57600080fd5b5051151561036457604080517f08c379a000000000000000000000000000000000000000000000000000000000815260206004820152602860248201527f556e61626c6520746f207472616e7366657220746f6b656e20746f207468652060448201527f636f6e7472616374000000000000000000000000000000000000000000000000606482015290519081900360840190fd5b600160a060020a03831660009081526002602052604090205461038d908363ffffffff6104e016565b600160a060020a038416600081815260026020908152604091829020939093558051858152905191927f67b910fa040657b3d16456bb3485c92024c708a57feebdd18e1fbd5b7d028d9f92918290030190a2505050565b6103ec610476565b15156103f757600080fd5b60008054604051600160a060020a03909116907f8be0079c531659141344cd1fd0a4f28419497f9722a3daafe3b4186f6b6457e0908390a36000805473ffffffffffffffffffffffffffffffffffffffff19169055565b600061046160018363ffffffff6104f916565b92915050565b600054600160a060020a031690565b600054600160a060020a0316331490565b61049033610530565b565b61049b3361044e565b15156104a657600080fd5b6104af81610578565b50565b6104ba610476565b15156104c557600080fd5b6104af816105c0565b60026020526000908152604090205481565b6000828201838110156104f257600080fd5b9392505050565b6000600160a060020a038216151561051057600080fd5b50600160a060020a03166000908152602091909152604090205460ff1690565b61054160018263ffffffff61063d16565b604051600160a060020a038216907f3525e22824a8a7df2c9a6029941c824cf95b6447f1e13d5128fd3826d35afe8b90600090a250565b61058960018263ffffffff61068916565b604051600160a060020a038216907f47d1c22a25bb3a5d4e481b9b1e6944c2eade3181a0a20b495ed61d35b5323f2490600090a250565b600160a060020a03811615156105d557600080fd5b60008054604051600160a060020a03808516939216917f8be0079c531659141344cd1fd0a4f28419497f9722a3daafe3b4186f6b6457e091a36000805473ffffffffffffffffffffffffffffffffffffffff1916600160a060020a0392909216919091179055565b600160a060020a038116151561065257600080fd5b61065c82826104f9565b151561066757600080fd5b600160a060020a0316600090815260209190915260409020805460ff19169055565b600160a060020a038116151561069e57600080fd5b6106a882826104f9565b156106b257600080fd5b600160a060020a0316600090815260209190915260409020805460ff1916600117905556fea165627a7a7230582019210795cea92cba0eb6a3ad43b32452c6ade4bc353222ca0d5b8b2b42561af60029",
  "source": "pragma solidity ^0.5.0;\n\nimport \"./vendor/IERC20.sol\";\nimport \"./vendor/SafeMath.sol\";\nimport \"./vendor/Ownable.sol\";\nimport \"./vendor/SignerRole.sol\";\n\ncontract Holding is Ownable, SignerRole {\n    using SafeMath for uint256;\n\n    mapping (address => uint256) public deposits;\n\n    event DidDeposit(address indexed token, uint256 amount);\n\n    function deposit (address _token, uint256 _amount) public {\n        IERC20 token = IERC20(_token);\n        require(token.transferFrom(msg.sender, address(this), _amount), \"Unable to transfer token to the contract\");\n        deposits[_token] = deposits[_token].add(_amount);\n        emit DidDeposit(_token, _amount);\n    }\n}\n",
  "sourcePath": "/Users/ukstv/Desktop/debt_channel/packages/contracts/contracts/Holding.sol",
  "compiler": {
    "name": "solc",
    "version": "0.5.1+commit.c8a2cb62.Emscripten.clang"
  },
  "schemaVersion": "3.0.0-beta.2",
  "updatedAt": "2018-12-08T12:34:40.916Z",
  "devdoc": {
    "methods": {
      "isOwner()": {
        "return": "true if `msg.sender` is the owner of the contract."
      },
      "owner()": {
        "return": "the address of the owner."
      },
      "renounceOwnership()": {
        "details": "Allows the current owner to relinquish control of the contract."
      },
      "transferOwnership(address)": {
        "details": "Allows the current owner to transfer control of the contract to a newOwner.",
        "params": {
          "newOwner": "The address to transfer ownership to."
        }
      }
    }
  },
  "userdoc": {
    "methods": {
      "renounceOwnership()": {
        "notice": "Renouncing to ownership will leave the contract without an owner. It will not be possible to call the functions with the `onlyOwner` modifier anymore."
      }
    }
  }
}