{
  "contractName": "Holding",
  "abi": [
    {
      "constant": true,
      "inputs": [
        {
          "name": "",
          "type": "address"
        },
        {
          "name": "",
          "type": "address"
        }
      ],
      "name": "debts",
      "outputs": [
        {
          "name": "collectionAfter",
          "type": "uint256"
        },
        {
          "name": "amount",
          "type": "uint256"
        }
      ],
      "payable": false,
      "stateMutability": "view",
      "type": "function"
    },
    {
      "constant": false,
      "inputs": [],
      "name": "renounceOwnership",
      "outputs": [],
      "payable": false,
      "stateMutability": "nonpayable",
      "type": "function"
    },
    {
      "constant": true,
      "inputs": [
        {
          "name": "account",
          "type": "address"
        }
      ],
      "name": "isSigner",
      "outputs": [
        {
          "name": "",
          "type": "bool"
        }
      ],
      "payable": false,
      "stateMutability": "view",
      "type": "function"
    },
    {
      "constant": true,
      "inputs": [],
      "name": "owner",
      "outputs": [
        {
          "name": "",
          "type": "address"
        }
      ],
      "payable": false,
      "stateMutability": "view",
      "type": "function"
    },
    {
      "constant": true,
      "inputs": [],
      "name": "isOwner",
      "outputs": [
        {
          "name": "",
          "type": "bool"
        }
      ],
      "payable": false,
      "stateMutability": "view",
      "type": "function"
    },
    {
      "constant": false,
      "inputs": [],
      "name": "renounceSigner",
      "outputs": [],
      "payable": false,
      "stateMutability": "nonpayable",
      "type": "function"
    },
    {
      "constant": false,
      "inputs": [
        {
          "name": "account",
          "type": "address"
        }
      ],
      "name": "addSigner",
      "outputs": [],
      "payable": false,
      "stateMutability": "nonpayable",
      "type": "function"
    },
    {
      "constant": false,
      "inputs": [
        {
          "name": "newOwner",
          "type": "address"
        }
      ],
      "name": "transferOwnership",
      "outputs": [],
      "payable": false,
      "stateMutability": "nonpayable",
      "type": "function"
    },
    {
      "constant": true,
      "inputs": [
        {
          "name": "",
          "type": "address"
        }
      ],
      "name": "deposits",
      "outputs": [
        {
          "name": "",
          "type": "uint256"
        }
      ],
      "payable": false,
      "stateMutability": "view",
      "type": "function"
    },
    {
      "anonymous": false,
      "inputs": [
        {
          "indexed": true,
          "name": "token",
          "type": "address"
        },
        {
          "indexed": false,
          "name": "amount",
          "type": "uint256"
        }
      ],
      "name": "DidDeposit",
      "type": "event"
    },
    {
      "anonymous": false,
      "inputs": [
        {
          "indexed": true,
          "name": "destination",
          "type": "address"
        },
        {
          "indexed": true,
          "name": "token",
          "type": "address"
        },
        {
          "indexed": false,
          "name": "amount",
          "type": "uint256"
        }
      ],
      "name": "DidAddDebt",
      "type": "event"
    },
    {
      "anonymous": false,
      "inputs": [
        {
          "indexed": true,
          "name": "destination",
          "type": "address"
        },
        {
          "indexed": true,
          "name": "token",
          "type": "address"
        },
        {
          "indexed": false,
          "name": "amount",
          "type": "uint256"
        }
      ],
      "name": "DidCollect",
      "type": "event"
    },
    {
      "anonymous": false,
      "inputs": [
        {
          "indexed": true,
          "name": "destination",
          "type": "address"
        },
        {
          "indexed": true,
          "name": "token",
          "type": "address"
        },
        {
          "indexed": false,
          "name": "amount",
          "type": "uint256"
        }
      ],
      "name": "DidClose",
      "type": "event"
    },
    {
      "anonymous": false,
      "inputs": [
        {
          "indexed": true,
          "name": "destination",
          "type": "address"
        },
        {
          "indexed": true,
          "name": "token",
          "type": "address"
        },
        {
          "indexed": false,
          "name": "amount",
          "type": "uint256"
        }
      ],
      "name": "DidWithdraw",
      "type": "event"
    },
    {
      "anonymous": false,
      "inputs": [
        {
          "indexed": true,
          "name": "account",
          "type": "address"
        }
      ],
      "name": "SignerAdded",
      "type": "event"
    },
    {
      "anonymous": false,
      "inputs": [
        {
          "indexed": true,
          "name": "account",
          "type": "address"
        }
      ],
      "name": "SignerRemoved",
      "type": "event"
    },
    {
      "anonymous": false,
      "inputs": [
        {
          "indexed": true,
          "name": "previousOwner",
          "type": "address"
        },
        {
          "indexed": true,
          "name": "newOwner",
          "type": "address"
        }
      ],
      "name": "OwnershipTransferred",
      "type": "event"
    },
    {
      "constant": false,
      "inputs": [
        {
          "name": "_token",
          "type": "address"
        },
        {
          "name": "_amount",
          "type": "uint256"
        }
      ],
      "name": "deposit",
      "outputs": [],
      "payable": false,
      "stateMutability": "nonpayable",
      "type": "function"
    },
    {
      "constant": false,
      "inputs": [
        {
          "name": "_destination",
          "type": "address"
        },
        {
          "name": "_token",
          "type": "address"
        },
        {
          "name": "_amount",
          "type": "uint256"
        },
        {
          "name": "_signature",
          "type": "bytes"
        }
      ],
      "name": "withdraw",
      "outputs": [],
      "payable": false,
      "stateMutability": "nonpayable",
      "type": "function"
    },
    {
      "constant": false,
      "inputs": [
        {
          "name": "_destination",
          "type": "address"
        },
        {
          "name": "_token",
          "type": "address"
        },
        {
          "name": "_signature",
          "type": "bytes"
        }
      ],
      "name": "collect",
      "outputs": [],
      "payable": false,
      "stateMutability": "nonpayable",
      "type": "function"
    },
    {
      "constant": false,
      "inputs": [
        {
          "name": "_destination",
          "type": "address"
        },
        {
          "name": "_token",
          "type": "address"
        },
        {
          "name": "_amount",
          "type": "uint256"
        },
        {
          "name": "_settlementPeriod",
          "type": "uint256"
        },
        {
          "name": "_sigMine",
          "type": "bytes"
        },
        {
          "name": "_sigOther",
          "type": "bytes"
        }
      ],
      "name": "addDebt",
      "outputs": [],
      "payable": false,
      "stateMutability": "nonpayable",
      "type": "function"
    },
    {
      "constant": true,
      "inputs": [
        {
          "name": "_token",
          "type": "address"
        }
      ],
      "name": "collectDigest",
      "outputs": [
        {
          "name": "",
          "type": "bytes32"
        }
      ],
      "payable": false,
      "stateMutability": "pure",
      "type": "function"
    },
    {
      "constant": true,
      "inputs": [
        {
          "name": "_destination",
          "type": "address"
        },
        {
          "name": "_token",
          "type": "address"
        },
        {
          "name": "_amount",
          "type": "uint256"
        }
      ],
      "name": "withdrawDigest",
      "outputs": [
        {
          "name": "",
          "type": "bytes32"
        }
      ],
      "payable": false,
      "stateMutability": "pure",
      "type": "function"
    },
    {
      "constant": true,
      "inputs": [
        {
          "name": "_destination",
          "type": "address"
        },
        {
          "name": "_token",
          "type": "address"
        },
        {
          "name": "_amount",
          "type": "uint256"
        }
      ],
      "name": "addDebtDigest",
      "outputs": [
        {
          "name": "",
          "type": "bytes32"
        }
      ],
      "payable": false,
      "stateMutability": "pure",
      "type": "function"
    }
  ],
  "bytecode": "0x6080604081905260008054600160a060020a0319163317808255600160a060020a0316917f8be0079c531659141344cd1fd0a4f28419497f9722a3daafe3b4186f6b6457e0908290a36200005c3364010000000062000062810204565b62000147565b6200007d600182640100000000620015e8620000b482021704565b604051600160a060020a038216907f47d1c22a25bb3a5d4e481b9b1e6944c2eade3181a0a20b495ed61d35b5323f2490600090a250565b600160a060020a0381161515620000ca57600080fd5b620000df82826401000000006200010f810204565b15620000ea57600080fd5b600160a060020a0316600090815260209190915260409020805460ff19166001179055565b6000600160a060020a03821615156200012757600080fd5b50600160a060020a03166000908152602091909152604090205460ff1690565b61167980620001576000396000f3fe6080604052600436106100c65760e060020a60003504633e5cb34881146100cb57806347e7ef24146101995780634ac1c33d146101d2578063659378aa14610226578063715018a61461027b57806377b575d8146102905780637df73e27146102d35780638da5cb5b1461031a5780638f32d59b1461034b57806395a1098614610360578063e5c8b03d146104bf578063eb12d61e146104d4578063ed9fe44a14610507578063f2fde38b1461053a578063f37e8d381461056d578063fc7e286d14610640575b600080fd5b3480156100d757600080fd5b50610197600480360360608110156100ee57600080fd5b600160a060020a03823581169260208101359091169181019060608101604082013564010000000081111561012257600080fd5b82018360208201111561013457600080fd5b8035906020019184600183028401116401000000008311171561015657600080fd5b91908080601f016020809104026020016040519081016040528093929190818152602001838380828437600092019190915250929550610673945050505050565b005b3480156101a557600080fd5b50610197600480360360408110156101bc57600080fd5b50600160a060020a038135169060200135610a4d565b3480156101de57600080fd5b5061020d600480360360408110156101f557600080fd5b50600160a060020a0381358116916020013516610be6565b6040805192835260208301919091528051918290030190f35b34801561023257600080fd5b506102696004803603606081101561024957600080fd5b50600160a060020a03813581169160208101359091169060400135610c0a565b60408051918252519081900360200190f35b34801561028757600080fd5b50610197610c83565b34801561029c57600080fd5b50610269600480360360608110156102b357600080fd5b50600160a060020a03813581169160208101359091169060400135610ced565b3480156102df57600080fd5b50610306600480360360208110156102f657600080fd5b5035600160a060020a0316610d66565b604080519115158252519081900360200190f35b34801561032657600080fd5b5061032f610d7f565b60408051600160a060020a039092168252519081900360200190f35b34801561035757600080fd5b50610306610d8e565b34801561036c57600080fd5b50610197600480360360c081101561038357600080fd5b600160a060020a03823581169260208101359091169160408201359160608101359181019060a0810160808201356401000000008111156103c357600080fd5b8201836020820111156103d557600080fd5b803590602001918460018302840111640100000000831117156103f757600080fd5b91908080601f016020809104026020016040519081016040528093929190818152602001838380828437600092019190915250929594936020810193503591505064010000000081111561044a57600080fd5b82018360208201111561045c57600080fd5b8035906020019184600183028401116401000000008311171561047e57600080fd5b91908080601f016020809104026020016040519081016040528093929190818152602001838380828437600092019190915250929550610d9f945050505050565b3480156104cb57600080fd5b50610197611054565b3480156104e057600080fd5b50610197600480360360208110156104f757600080fd5b5035600160a060020a031661105f565b34801561051357600080fd5b506102696004803603602081101561052a57600080fd5b5035600160a060020a031661107f565b34801561054657600080fd5b506101976004803603602081101561055d57600080fd5b5035600160a060020a03166110e6565b34801561057957600080fd5b506101976004803603608081101561059057600080fd5b600160a060020a038235811692602081013590911691604082013591908101906080810160608201356401000000008111156105cb57600080fd5b8201836020820111156105dd57600080fd5b803590602001918460018302840111640100000000831117156105ff57600080fd5b91908080601f016020809104026020016040519081016040528093929190818152602001838380828437600092019190915250929550611102945050505050565b34801561064c57600080fd5b506102696004803603602081101561066357600080fd5b5035600160a060020a03166112f0565b8260006106876106828561107f565b611302565b905060006106958285611353565b905082600160a060020a0316637df73e27826040518263ffffffff1660e060020a0281526004018082600160a060020a0316600160a060020a0316815260200191505060206040518083038186803b1580156106f057600080fd5b505afa158015610704573d6000803e3d6000fd5b505050506040513d602081101561071a57600080fd5b50511515610772576040805160e560020a62461bcd02815260206004820152601960248201527f53686f756c64206265207369676e6564206279206f7468657200000000000000604482015290519081900360640190fd5b61077a611636565b50600160a060020a038087166000908152600360209081526040808320938916808452938252808320815180830183528154815260019091015481840190815294845260029092528220549251909288929111156107f15750600160a060020a038716600090815260026020526040902054610843565b8260200151905087600160a060020a031689600160a060020a03167e6961675c3a86ce692a816fc0690bea5024beddb204bddab036805b1e41ed64836040518082815260200191505060405180910390a35b6020830151610858908263ffffffff61142a16565b602080850191909152600160a060020a03891660009081526002909152604090205461088a908263ffffffff61142a16565b600160a060020a03808a16600081815260026020908152604091829020859055815194855290519193928d16927f324f9155ed66e3244ff2c26eac5aa58c6544c9a886cb7008e8e1d9f4c6b76d89929081900390910190a381600160a060020a031663095ea7b38a836040518363ffffffff1660e060020a0281526004018083600160a060020a0316600160a060020a0316815260200182815260200192505050602060405180830381600087803b15801561094557600080fd5b505af1158015610959573d6000803e3d6000fd5b505050506040513d602081101561096f57600080fd5b505115156109c7576040805160e560020a62461bcd02815260206004820152601e60248201527f43616e206e6f7420617070726f766520746f6b656e207472616e736665720000604482015290519081900360640190fd5b85600160a060020a03166347e7ef2489836040518363ffffffff1660e060020a0281526004018083600160a060020a0316600160a060020a0316815260200182815260200192505050600060405180830381600087803b158015610a2a57600080fd5b505af1158015610a3e573d6000803e3d6000fd5b50505050505050505050505050565b604080517f23b872dd0000000000000000000000000000000000000000000000000000000081523360048201523060248201526044810183905290518391600160a060020a038316916323b872dd916064808201926020929091908290030181600087803b158015610abe57600080fd5b505af1158015610ad2573d6000803e3d6000fd5b505050506040513d6020811015610ae857600080fd5b50511515610b66576040805160e560020a62461bcd02815260206004820152602860248201527f556e61626c6520746f207472616e7366657220746f6b656e20746f207468652060448201527f636f6e7472616374000000000000000000000000000000000000000000000000606482015290519081900360840190fd5b600160a060020a038316600090815260026020526040902054610b8f908363ffffffff61143f16565b600160a060020a038416600081815260026020908152604091829020939093558051858152905191927f67b910fa040657b3d16456bb3485c92024c708a57feebdd18e1fbd5b7d028d9f92918290030190a2505050565b60036020908152600092835260408084209091529082529020805460019091015482565b60408051600160a060020a0394851681830152929093166060830152608080830191909152602080830191909152600260a08301527f776900000000000000000000000000000000000000000000000000000000000060c0808401919091528351808403909101815260e0909201909252805191012090565b610c8b610d8e565b1515610c9657600080fd5b60008054604051600160a060020a03909116907f8be0079c531659141344cd1fd0a4f28419497f9722a3daafe3b4186f6b6457e0908390a36000805473ffffffffffffffffffffffffffffffffffffffff19169055565b60408051600160a060020a0394851681830152929093166060830152608080830191909152602080830191909152600260a08301527f616400000000000000000000000000000000000000000000000000000000000060c0808401919091528351808403909101815260e0909201909252805191012090565b6000610d7960018363ffffffff61145816565b92915050565b600054600160a060020a031690565b600054600160a060020a0316331490565b6000610daf610682888888610ced565b90506000610dbd8285611353565b9050610dc881610d66565b1515610e1e576040805160e560020a62461bcd02815260206004820152601660248201527f53686f756c64206265207369676e6564206279206d6500000000000000000000604482015290519081900360640190fd5b6000610e2a8385611353565b9050600089905080600160a060020a0316637df73e27836040518263ffffffff1660e060020a0281526004018082600160a060020a0316600160a060020a0316815260200191505060206040518083038186803b158015610e8a57600080fd5b505afa158015610e9e573d6000803e3d6000fd5b505050506040513d6020811015610eb457600080fd5b50511515610f0c576040805160e560020a62461bcd02815260206004820152601960248201527f53686f756c64206265207369676e6564206279206f7468657200000000000000604482015290519081900360640190fd5b600160a060020a03808b166000908152600360209081526040808320938d168352929052205415610f87576040805160e560020a62461bcd02815260206004820152601960248201527f43616e206e6f74206f76657272696465206578697374696e6700000000000000604482015290519081900360640190fd5b6040805190810160405280884201815260200189815250600360008c600160a060020a0316600160a060020a0316815260200190815260200160002060008b600160a060020a0316600160a060020a03168152602001908152602001600020600082015181600001556020820151816001015590505088600160a060020a03168a600160a060020a03167f2d078bdbe31a4f135549319bb8f04e34ce787751d920f5649c307e61e2d8755b8a6040518082815260200191505060405180910390a350505050505050505050565b61105d3361148f565b565b61106833610d66565b151561107357600080fd5b61107c816114d7565b50565b60408051600160a060020a038316818301526020808201839052600260608301527f636f0000000000000000000000000000000000000000000000000000000000006080808401919091528351808403909101815260a09092019092528051910120919050565b6110ee610d8e565b15156110f957600080fd5b61107c8161151f565b826000611113610682878487610c0a565b905060006111218285611353565b905061112c81610d66565b1515611182576040805160e560020a62461bcd02815260206004820152601060248201527f53686f756c64206265207369676e656400000000000000000000000000000000604482015290519081900360640190fd5b82600160a060020a031663a9059cbb88876040518363ffffffff1660e060020a0281526004018083600160a060020a0316600160a060020a0316815260200182815260200192505050602060405180830381600087803b1580156111e557600080fd5b505af11580156111f9573d6000803e3d6000fd5b505050506040513d602081101561120f57600080fd5b50511515611267576040805160e560020a62461bcd02815260206004820152601660248201527f43616e206e6f74207472616e7366657220746f6b656e00000000000000000000604482015290519081900360640190fd5b600160a060020a038616600090815260026020526040902054611290908663ffffffff61142a16565b600160a060020a0380881660008181526002602090815260409182902094909455805189815290519193928b16927f30e6a5fbc5561e2b7f128a4a32fcb64e4c1eb6b72d14ba951dac89307c4d329192918290030190a350505050505050565b60026020526000908152604090205481565b604080517f19457468657265756d205369676e6564204d6573736167653a0a333200000000602080830191909152603c8083019490945282518083039094018452605c909101909152815191012090565b600080600080845160411415156113705760009350505050610d79565b50505060208201516040830151606084015160001a601b60ff8216101561139557601b015b8060ff16601b141580156113ad57508060ff16601c14155b156113be5760009350505050610d79565b6040805160008152602080820180845289905260ff8416828401526060820186905260808201859052915160019260a0808401939192601f1981019281900390910190855afa158015611415573d6000803e3d6000fd5b5050604051601f190151979650505050505050565b60008282111561143957600080fd5b50900390565b60008282018381101561145157600080fd5b9392505050565b6000600160a060020a038216151561146f57600080fd5b50600160a060020a03166000908152602091909152604090205460ff1690565b6114a060018263ffffffff61159c16565b604051600160a060020a038216907f3525e22824a8a7df2c9a6029941c824cf95b6447f1e13d5128fd3826d35afe8b90600090a250565b6114e860018263ffffffff6115e816565b604051600160a060020a038216907f47d1c22a25bb3a5d4e481b9b1e6944c2eade3181a0a20b495ed61d35b5323f2490600090a250565b600160a060020a038116151561153457600080fd5b60008054604051600160a060020a03808516939216917f8be0079c531659141344cd1fd0a4f28419497f9722a3daafe3b4186f6b6457e091a36000805473ffffffffffffffffffffffffffffffffffffffff1916600160a060020a0392909216919091179055565b600160a060020a03811615156115b157600080fd5b6115bb8282611458565b15156115c657600080fd5b600160a060020a0316600090815260209190915260409020805460ff19169055565b600160a060020a03811615156115fd57600080fd5b6116078282611458565b1561161157600080fd5b600160a060020a0316600090815260209190915260409020805460ff19166001179055565b60408051808201909152600080825260208201529056fea165627a7a7230582065246376c53a2dfaea75a3c6123cb73d1fc147ac8f8cd3c893379a9e8d6799670029",
  "source": "pragma solidity ^0.5.0;\n\nimport \"./vendor/IERC20.sol\";\nimport \"./vendor/SafeMath.sol\";\nimport \"./vendor/Ownable.sol\";\nimport \"./vendor/SignerRole.sol\";\nimport \"./vendor/ECDSA.sol\";\n\ncontract Holding is Ownable, SignerRole {\n    using SafeMath for uint256;\n\n    struct Debt {\n        uint256 collectionAfter;\n        uint256 amount;\n    }\n\n    mapping (address => uint256) public deposits;\n    mapping (address => mapping (address => Debt)) public debts;\n\n    event DidDeposit(address indexed token, uint256 amount);\n    event DidAddDebt(address indexed destination, address indexed token, uint256 amount);\n    event DidCollect(address indexed destination, address indexed token, uint256 amount);\n    event DidClose(address indexed destination, address indexed token, uint256 amount);\n    event DidWithdraw(address indexed destination, address indexed token, uint256 amount);\n\n    function deposit (address _token, uint256 _amount) public {\n        IERC20 token = IERC20(_token);\n        require(token.transferFrom(msg.sender, address(this), _amount), \"Unable to transfer token to the contract\");\n        deposits[_token] = deposits[_token].add(_amount);\n        emit DidDeposit(_token, _amount);\n    }\n\n    function withdraw (address _destination, address _token, uint256 _amount, bytes memory _signature) public {\n        IERC20 token = IERC20(_token);\n        bytes32 digest = ECDSA.toEthSignedMessageHash(withdrawDigest(_destination, _token, _amount));\n        address recovered = ECDSA.recover(digest, _signature);\n        require(isSigner(recovered), \"Should be signed\");\n        require(token.transfer(_destination, _amount), \"Can not transfer token\");\n        deposits[_token] = deposits[_token].sub(_amount);\n        emit DidWithdraw(_destination, _token, _amount);\n    }\n\n    function collect (address _destination, address _token, bytes memory _signature) public {\n        Holding other = Holding(_destination);\n        bytes32 digest = ECDSA.toEthSignedMessageHash(collectDigest(_token));\n        address recoveredOther = ECDSA.recover(digest, _signature);\n        require(other.isSigner(recoveredOther), \"Should be signed by other\");\n\n        Debt memory debt = debts[_destination][_token];\n        IERC20 token = IERC20(_token);\n        uint256 amountToSend;\n        if (debt.amount > deposits[_token]) {\n            amountToSend = deposits[_token];\n        } else {\n            amountToSend = debt.amount;\n            emit DidClose(_destination, _token, amountToSend);\n        }\n\n        debt.amount = debt.amount.sub(amountToSend);\n        deposits[_token] = deposits[_token].sub(amountToSend);\n        emit DidCollect(_destination, _token, deposits[_token]);\n\n        require(token.approve(_destination, amountToSend), \"Can not approve token transfer\");\n        other.deposit(_token, amountToSend);\n    }\n\n    function addDebt (\n        address _destination,\n        address _token,\n        uint256 _amount,\n        uint256 _settlementPeriod,\n        bytes memory _sigMine,\n        bytes memory _sigOther\n    ) public {\n        bytes32 digest = ECDSA.toEthSignedMessageHash(addDebtDigest(_destination, _token, _amount));\n        address recoveredMine = ECDSA.recover(digest, _sigMine);\n        require(isSigner(recoveredMine), \"Should be signed by me\");\n\n        address recoveredOther = ECDSA.recover(digest, _sigOther);\n        Holding other = Holding(_destination);\n        require(other.isSigner(recoveredOther), \"Should be signed by other\");\n\n        require(debts[_destination][_token].collectionAfter == 0, \"Can not override existing\");\n\n        debts[_destination][_token] = Debt({\n            amount: _amount,\n            collectionAfter: now + _settlementPeriod\n        });\n\n        emit DidAddDebt(_destination, _token, _amount);\n    }\n\n    function collectDigest (address _token) public pure returns (bytes32) {\n        return keccak256(abi.encode(\"co\", _token));\n    }\n\n    function withdrawDigest (address _destination, address _token, uint256 _amount) public pure returns (bytes32) {\n        return keccak256(abi.encode(\"wi\", _destination, _token, _amount));\n    }\n\n    function addDebtDigest (\n        address _destination,\n        address _token,\n        uint256 _amount\n    ) public pure returns (bytes32) {\n        return keccak256(abi.encode(\"ad\", _destination, _token, _amount));\n    }\n}\n",
  "sourcePath": "/Users/ukstv/Desktop/debt_channel/packages/contracts/contracts/Holding.sol",
  "compiler": {
    "name": "solc",
    "version": "0.5.1+commit.c8a2cb62.Emscripten.clang"
  },
  "schemaVersion": "3.0.0-beta.2",
  "updatedAt": "2018-12-09T00:06:15.063Z",
  "devdoc": {
    "methods": {
      "isOwner()": {
        "return": "true if `msg.sender` is the owner of the contract."
      },
      "owner()": {
        "return": "the address of the owner."
      },
      "renounceOwnership()": {
        "details": "Allows the current owner to relinquish control of the contract."
      },
      "transferOwnership(address)": {
        "details": "Allows the current owner to transfer control of the contract to a newOwner.",
        "params": {
          "newOwner": "The address to transfer ownership to."
        }
      }
    }
  },
  "userdoc": {
    "methods": {
      "renounceOwnership()": {
        "notice": "Renouncing to ownership will leave the contract without an owner. It will not be possible to call the functions with the `onlyOwner` modifier anymore."
      }
    }
  }
}