{
  "contractName": "Holding",
  "abi": [
    {
      "constant": false,
      "inputs": [],
      "name": "renounceWhitelistAdmin",
      "outputs": [],
      "payable": false,
      "stateMutability": "nonpayable",
      "type": "function"
    },
    {
      "constant": false,
      "inputs": [
        {
          "name": "account",
          "type": "address"
        }
      ],
      "name": "addWhitelistAdmin",
      "outputs": [],
      "payable": false,
      "stateMutability": "nonpayable",
      "type": "function"
    },
    {
      "constant": true,
      "inputs": [
        {
          "name": "account",
          "type": "address"
        }
      ],
      "name": "isSigner",
      "outputs": [
        {
          "name": "",
          "type": "bool"
        }
      ],
      "payable": false,
      "stateMutability": "view",
      "type": "function"
    },
    {
      "constant": true,
      "inputs": [],
      "name": "_debtsSize",
      "outputs": [
        {
          "name": "",
          "type": "uint256"
        }
      ],
      "payable": false,
      "stateMutability": "view",
      "type": "function"
    },
    {
      "constant": true,
      "inputs": [
        {
          "name": "",
          "type": "bytes32"
        }
      ],
      "name": "debts",
      "outputs": [
        {
          "name": "destination",
          "type": "address"
        },
        {
          "name": "token",
          "type": "address"
        },
        {
          "name": "collectionAfter",
          "type": "uint256"
        },
        {
          "name": "amount",
          "type": "uint256"
        },
        {
          "name": "salt",
          "type": "uint16"
        }
      ],
      "payable": false,
      "stateMutability": "view",
      "type": "function"
    },
    {
      "constant": true,
      "inputs": [],
      "name": "_retiringPeriod",
      "outputs": [
        {
          "name": "",
          "type": "uint256"
        }
      ],
      "payable": false,
      "stateMutability": "view",
      "type": "function"
    },
    {
      "constant": true,
      "inputs": [
        {
          "name": "account",
          "type": "address"
        }
      ],
      "name": "isWhitelistAdmin",
      "outputs": [
        {
          "name": "",
          "type": "bool"
        }
      ],
      "payable": false,
      "stateMutability": "view",
      "type": "function"
    },
    {
      "constant": true,
      "inputs": [],
      "name": "_balanceSize",
      "outputs": [
        {
          "name": "",
          "type": "uint256"
        }
      ],
      "payable": false,
      "stateMutability": "view",
      "type": "function"
    },
    {
      "constant": true,
      "inputs": [],
      "name": "_clearingHouse",
      "outputs": [
        {
          "name": "",
          "type": "address"
        }
      ],
      "payable": false,
      "stateMutability": "view",
      "type": "function"
    },
    {
      "constant": true,
      "inputs": [
        {
          "name": "",
          "type": "address"
        }
      ],
      "name": "balance",
      "outputs": [
        {
          "name": "",
          "type": "uint256"
        }
      ],
      "payable": false,
      "stateMutability": "view",
      "type": "function"
    },
    {
      "constant": false,
      "inputs": [],
      "name": "renounceSigner",
      "outputs": [],
      "payable": false,
      "stateMutability": "nonpayable",
      "type": "function"
    },
    {
      "constant": false,
      "inputs": [
        {
          "name": "account",
          "type": "address"
        }
      ],
      "name": "addSigner",
      "outputs": [],
      "payable": false,
      "stateMutability": "nonpayable",
      "type": "function"
    },
    {
      "constant": true,
      "inputs": [],
      "name": "_retiringUntil",
      "outputs": [
        {
          "name": "",
          "type": "uint256"
        }
      ],
      "payable": false,
      "stateMutability": "view",
      "type": "function"
    },
    {
      "constant": true,
      "inputs": [],
      "name": "_currentState",
      "outputs": [
        {
          "name": "",
          "type": "uint8"
        }
      ],
      "payable": false,
      "stateMutability": "view",
      "type": "function"
    },
    {
      "inputs": [
        {
          "name": "owner",
          "type": "address"
        },
        {
          "name": "retiringPeriod",
          "type": "uint256"
        },
        {
          "name": "clearingHouse",
          "type": "address"
        }
      ],
      "payable": false,
      "stateMutability": "nonpayable",
      "type": "constructor"
    },
    {
      "anonymous": false,
      "inputs": [
        {
          "indexed": true,
          "name": "token",
          "type": "address"
        },
        {
          "indexed": false,
          "name": "amount",
          "type": "uint256"
        }
      ],
      "name": "DidDeposit",
      "type": "event"
    },
    {
      "anonymous": false,
      "inputs": [
        {
          "indexed": true,
          "name": "destination",
          "type": "address"
        },
        {
          "indexed": true,
          "name": "token",
          "type": "address"
        },
        {
          "indexed": false,
          "name": "amount",
          "type": "uint256"
        }
      ],
      "name": "DidAddDebt",
      "type": "event"
    },
    {
      "anonymous": false,
      "inputs": [
        {
          "indexed": true,
          "name": "destination",
          "type": "address"
        },
        {
          "indexed": true,
          "name": "token",
          "type": "address"
        },
        {
          "indexed": false,
          "name": "amount",
          "type": "uint256"
        }
      ],
      "name": "DidCollect",
      "type": "event"
    },
    {
      "anonymous": false,
      "inputs": [
        {
          "indexed": true,
          "name": "destination",
          "type": "address"
        },
        {
          "indexed": true,
          "name": "token",
          "type": "address"
        },
        {
          "indexed": false,
          "name": "amount",
          "type": "uint256"
        }
      ],
      "name": "DidClose",
      "type": "event"
    },
    {
      "anonymous": false,
      "inputs": [
        {
          "indexed": true,
          "name": "destination",
          "type": "address"
        },
        {
          "indexed": true,
          "name": "token",
          "type": "address"
        },
        {
          "indexed": false,
          "name": "amount",
          "type": "uint256"
        }
      ],
      "name": "DidWithdraw",
      "type": "event"
    },
    {
      "anonymous": false,
      "inputs": [
        {
          "indexed": true,
          "name": "destination",
          "type": "address"
        },
        {
          "indexed": true,
          "name": "token",
          "type": "address"
        },
        {
          "indexed": false,
          "name": "amount",
          "type": "uint256"
        }
      ],
      "name": "DidForgive",
      "type": "event"
    },
    {
      "anonymous": false,
      "inputs": [],
      "name": "DidRetired",
      "type": "event"
    },
    {
      "anonymous": false,
      "inputs": [],
      "name": "DidStop",
      "type": "event"
    },
    {
      "anonymous": false,
      "inputs": [
        {
          "indexed": true,
          "name": "account",
          "type": "address"
        }
      ],
      "name": "WhitelistAdminAdded",
      "type": "event"
    },
    {
      "anonymous": false,
      "inputs": [
        {
          "indexed": true,
          "name": "account",
          "type": "address"
        }
      ],
      "name": "WhitelistAdminRemoved",
      "type": "event"
    },
    {
      "anonymous": false,
      "inputs": [
        {
          "indexed": true,
          "name": "account",
          "type": "address"
        }
      ],
      "name": "SignerAdded",
      "type": "event"
    },
    {
      "anonymous": false,
      "inputs": [
        {
          "indexed": true,
          "name": "account",
          "type": "address"
        }
      ],
      "name": "SignerRemoved",
      "type": "event"
    },
    {
      "constant": false,
      "inputs": [],
      "name": "currentState",
      "outputs": [
        {
          "name": "",
          "type": "uint8"
        }
      ],
      "payable": false,
      "stateMutability": "nonpayable",
      "type": "function"
    },
    {
      "constant": false,
      "inputs": [
        {
          "name": "_signature",
          "type": "bytes"
        }
      ],
      "name": "retire",
      "outputs": [],
      "payable": false,
      "stateMutability": "nonpayable",
      "type": "function"
    },
    {
      "constant": false,
      "inputs": [],
      "name": "stop",
      "outputs": [],
      "payable": false,
      "stateMutability": "nonpayable",
      "type": "function"
    },
    {
      "constant": false,
      "inputs": [
        {
          "name": "_token",
          "type": "address"
        },
        {
          "name": "_amount",
          "type": "uint256"
        }
      ],
      "name": "deposit",
      "outputs": [],
      "payable": false,
      "stateMutability": "nonpayable",
      "type": "function"
    },
    {
      "constant": false,
      "inputs": [
        {
          "name": "_destination",
          "type": "address"
        },
        {
          "name": "_token",
          "type": "address"
        },
        {
          "name": "_amount",
          "type": "uint256"
        },
        {
          "name": "_signature",
          "type": "bytes"
        }
      ],
      "name": "withdraw",
      "outputs": [],
      "payable": false,
      "stateMutability": "nonpayable",
      "type": "function"
    },
    {
      "constant": false,
      "inputs": [
        {
          "name": "_id",
          "type": "bytes32"
        },
        {
          "name": "_signature",
          "type": "bytes"
        }
      ],
      "name": "collectDebt",
      "outputs": [],
      "payable": false,
      "stateMutability": "nonpayable",
      "type": "function"
    },
    {
      "constant": false,
      "inputs": [
        {
          "name": "_destination",
          "type": "address"
        },
        {
          "name": "_token",
          "type": "address"
        },
        {
          "name": "_amount",
          "type": "uint256"
        },
        {
          "name": "_salt",
          "type": "uint16"
        },
        {
          "name": "_settlementPeriod",
          "type": "uint256"
        },
        {
          "name": "_sigDebtor",
          "type": "bytes"
        },
        {
          "name": "_sigCreditor",
          "type": "bytes"
        }
      ],
      "name": "addDebt",
      "outputs": [],
      "payable": false,
      "stateMutability": "nonpayable",
      "type": "function"
    },
    {
      "constant": false,
      "inputs": [
        {
          "name": "_id",
          "type": "bytes32"
        },
        {
          "name": "_signature",
          "type": "bytes"
        }
      ],
      "name": "forgiveDebt",
      "outputs": [],
      "payable": false,
      "stateMutability": "nonpayable",
      "type": "function"
    },
    {
      "constant": true,
      "inputs": [
        {
          "name": "_destination",
          "type": "address"
        },
        {
          "name": "_token",
          "type": "address"
        }
      ],
      "name": "forgiveDigest",
      "outputs": [
        {
          "name": "",
          "type": "bytes32"
        }
      ],
      "payable": false,
      "stateMutability": "pure",
      "type": "function"
    },
    {
      "constant": true,
      "inputs": [
        {
          "name": "_token",
          "type": "address"
        }
      ],
      "name": "collectDigest",
      "outputs": [
        {
          "name": "",
          "type": "bytes32"
        }
      ],
      "payable": false,
      "stateMutability": "pure",
      "type": "function"
    },
    {
      "constant": true,
      "inputs": [
        {
          "name": "_destination",
          "type": "address"
        },
        {
          "name": "_token",
          "type": "address"
        },
        {
          "name": "_amount",
          "type": "uint256"
        }
      ],
      "name": "withdrawDigest",
      "outputs": [
        {
          "name": "",
          "type": "bytes32"
        }
      ],
      "payable": false,
      "stateMutability": "pure",
      "type": "function"
    },
    {
      "constant": true,
      "inputs": [
        {
          "name": "contractAddress",
          "type": "address"
        }
      ],
      "name": "retireDigest",
      "outputs": [
        {
          "name": "",
          "type": "bytes32"
        }
      ],
      "payable": false,
      "stateMutability": "pure",
      "type": "function"
    },
    {
      "constant": true,
      "inputs": [
        {
          "name": "_newOwner",
          "type": "address"
        }
      ],
      "name": "addOwnerDigest",
      "outputs": [
        {
          "name": "",
          "type": "bytes32"
        }
      ],
      "payable": false,
      "stateMutability": "view",
      "type": "function"
    },
    {
      "constant": true,
      "inputs": [
        {
          "name": "_owner",
          "type": "address"
        }
      ],
      "name": "removeOwnerDigest",
      "outputs": [
        {
          "name": "",
          "type": "bytes32"
        }
      ],
      "payable": false,
      "stateMutability": "view",
      "type": "function"
    },
    {
      "constant": true,
      "inputs": [
        {
          "name": "_destination",
          "type": "address"
        },
        {
          "name": "_token",
          "type": "address"
        },
        {
          "name": "_amount",
          "type": "uint256"
        },
        {
          "name": "_settlementPeriod",
          "type": "uint256"
        }
      ],
      "name": "addDebtDigest",
      "outputs": [
        {
          "name": "",
          "type": "bytes32"
        }
      ],
      "payable": false,
      "stateMutability": "pure",
      "type": "function"
    },
    {
      "constant": true,
      "inputs": [
        {
          "name": "_destination",
          "type": "address"
        },
        {
          "name": "_token",
          "type": "address"
        },
        {
          "name": "_salt",
          "type": "uint16"
        }
      ],
      "name": "debtIdentifier",
      "outputs": [
        {
          "name": "",
          "type": "bytes32"
        }
      ],
      "payable": false,
      "stateMutability": "view",
      "type": "function"
    },
    {
      "constant": true,
      "inputs": [
        {
          "name": "_owner",
          "type": "address"
        }
      ],
      "name": "isOwner",
      "outputs": [
        {
          "name": "",
          "type": "bool"
        }
      ],
      "payable": false,
      "stateMutability": "view",
      "type": "function"
    },
    {
      "constant": false,
      "inputs": [
        {
          "name": "_newOwner",
          "type": "address"
        },
        {
          "name": "_signature",
          "type": "bytes"
        }
      ],
      "name": "addOwner",
      "outputs": [],
      "payable": false,
      "stateMutability": "nonpayable",
      "type": "function"
    },
    {
      "constant": false,
      "inputs": [
        {
          "name": "_owner",
          "type": "address"
        },
        {
          "name": "_signature",
          "type": "bytes"
        }
      ],
      "name": "removeOwner",
      "outputs": [],
      "payable": false,
      "stateMutability": "nonpayable",
      "type": "function"
    }
  ],
  "bytecode": "0x60806040523480156200001157600080fd5b5060405160608062002b04833981018060405260608110156200003357600080fd5b50805160208201516040909201519091906200005833640100000000620000af810204565b6200006c3364010000000062000101810204565b600391909155600060048190556002805460ff19600160a060020a03949094166101000261010060a860020a0319909116179290921690915560055550620001e6565b620000ca600082640100000000620028666200015382021704565b604051600160a060020a038216907f47d1c22a25bb3a5d4e481b9b1e6944c2eade3181a0a20b495ed61d35b5323f2490600090a250565b6200011c600182640100000000620028666200015382021704565b604051600160a060020a038216907f22380c05984257a1cb900161c713dd71d39e74820f1aea43bd3f1bdd2096129990600090a250565b600160a060020a03811615156200016957600080fd5b6200017e8282640100000000620001ae810204565b156200018957600080fd5b600160a060020a0316600090815260209190915260409020805460ff19166001179055565b6000600160a060020a0382161515620001c657600080fd5b50600160a060020a03166000908152602091909152604090205460ff1690565b61290e80620001f66000396000f3fe6080604052600436106101875763ffffffff60e060020a6000350416630338f63a811461018c57806307da68f5146102515780630c3f6acf146102665780631cfb50d91461029f5780632f54bf6e146102e4578063343b286f1461032b5780633785f7a9146103de57806347e7ef24146105485780634c5a628c146105815780635461087a14610596578063659378aa146105d157806368ff2365146106145780637362d9c81461065c578063782efb141461068f5780637df73e27146106c25780638cdcd73c146106f5578063900b5a1b146107285780639894b279146107e2578063a9caa411146107f7578063b2ddae421461085c578063b3d9774514610871578063bb5f747b1461092b578063c3d066411461095e578063c48fa7be14610a21578063c760c5a114610a36578063e27dd7b614610a7f578063e3d670d714610ab0578063e5c8b03d14610ae3578063eb12d61e14610af8578063ed9fe44a14610b2b578063ef6e86cb14610b5e578063f2801e2b14610b73578063f37e8d3814610b88575b600080fd5b34801561019857600080fd5b5061024f600480360360408110156101af57600080fd5b600160a060020a0382351691908101906040810160208201356401000000008111156101da57600080fd5b8201836020820111156101ec57600080fd5b8035906020019184600183028401116401000000008311171561020e57600080fd5b91908080601f016020809104026020016040519081016040528093929190818152602001838380828437600092019190915250929550610c5b945050505050565b005b34801561025d57600080fd5b5061024f610d12565b34801561027257600080fd5b5061027b610ea4565b6040518082600281111561028b57fe5b60ff16815260200191505060405180910390f35b3480156102ab57600080fd5b506102d2600480360360208110156102c257600080fd5b5035600160a060020a0316610ed7565b60408051918252519081900360200190f35b3480156102f057600080fd5b506103176004803603602081101561030757600080fd5b5035600160a060020a0316610f49565b604080519115158252519081900360200190f35b34801561033757600080fd5b5061024f6004803603602081101561034e57600080fd5b81019060208101813564010000000081111561036957600080fd5b82018360208201111561037b57600080fd5b8035906020019184600183028401116401000000008311171561039d57600080fd5b91908080601f016020809104026020016040519081016040528093929190818152602001838380828437600092019190915250929550610f5a945050505050565b3480156103ea57600080fd5b5061024f600480360360e081101561040157600080fd5b600160a060020a03823581169260208101359091169160408201359161ffff606082013516916080820135919081019060c0810160a082013564010000000081111561044c57600080fd5b82018360208201111561045e57600080fd5b8035906020019184600183028401116401000000008311171561048057600080fd5b91908080601f01602080910402602001604051908101604052809392919081815260200183838082843760009201919091525092959493602081019350359150506401000000008111156104d357600080fd5b8201836020820111156104e557600080fd5b8035906020019184600183028401116401000000008311171561050757600080fd5b91908080601f016020809104026020016040519081016040528093929190818152602001838380828437600092019190915250929550611084945050505050565b34801561055457600080fd5b5061024f6004803603604081101561056b57600080fd5b50600160a060020a0381351690602001356114bd565b34801561058d57600080fd5b5061024f61167f565b3480156105a257600080fd5b506102d2600480360360408110156105b957600080fd5b50600160a060020a038135811691602001351661168a565b3480156105dd57600080fd5b506102d2600480360360608110156105f457600080fd5b50600160a060020a038135811691602081013590911690604001356116fe565b34801561062057600080fd5b506102d26004803603606081101561063757600080fd5b508035600160a060020a03908116916020810135909116906040013561ffff16611777565b34801561066857600080fd5b5061024f6004803603602081101561067f57600080fd5b5035600160a060020a03166117c6565b34801561069b57600080fd5b506102d2600480360360208110156106b257600080fd5b5035600160a060020a03166117e6565b3480156106ce57600080fd5b50610317600480360360208110156106e557600080fd5b5035600160a060020a031661184d565b34801561070157600080fd5b506102d26004803603602081101561071857600080fd5b5035600160a060020a031661185f565b34801561073457600080fd5b5061024f6004803603604081101561074b57600080fd5b8135919081019060408101602082013564010000000081111561076d57600080fd5b82018360208201111561077f57600080fd5b803590602001918460018302840111640100000000831117156107a157600080fd5b91908080601f0160208091040260200160405190810160405280939291908181526020018383808284376000920191909152509295506118d1945050505050565b3480156107ee57600080fd5b506102d2611b0d565b34801561080357600080fd5b506108216004803603602081101561081a57600080fd5b5035611b13565b60408051600160a060020a03968716815294909516602085015283850192909252606083015261ffff16608082015290519081900360a00190f35b34801561086857600080fd5b506102d2611b52565b34801561087d57600080fd5b5061024f6004803603604081101561089457600080fd5b813591908101906040810160208201356401000000008111156108b657600080fd5b8201836020820111156108c857600080fd5b803590602001918460018302840111640100000000831117156108ea57600080fd5b91908080601f016020809104026020016040519081016040528093929190818152602001838380828437600092019190915250929550611b58945050505050565b34801561093757600080fd5b506103176004803603602081101561094e57600080fd5b5035600160a060020a031661209b565b34801561096a57600080fd5b5061024f6004803603604081101561098157600080fd5b600160a060020a0382351691908101906040810160208201356401000000008111156109ac57600080fd5b8201836020820111156109be57600080fd5b803590602001918460018302840111640100000000831117156109e057600080fd5b91908080601f0160208091040260200160405190810160405280939291908181526020018383808284376000920191909152509295506120ae945050505050565b348015610a2d57600080fd5b506102d261215a565b348015610a4257600080fd5b506102d260048036036080811015610a5957600080fd5b50600160a060020a03813581169160208101359091169060408101359060600135612160565b348015610a8b57600080fd5b50610a946121e2565b60408051600160a060020a039092168252519081900360200190f35b348015610abc57600080fd5b506102d260048036036020811015610ad357600080fd5b5035600160a060020a03166121f6565b348015610aef57600080fd5b5061024f612208565b348015610b0457600080fd5b5061024f60048036036020811015610b1b57600080fd5b5035600160a060020a0316612211565b348015610b3757600080fd5b506102d260048036036020811015610b4e57600080fd5b5035600160a060020a031661222e565b348015610b6a57600080fd5b506102d2612295565b348015610b7f57600080fd5b5061027b61229b565b348015610b9457600080fd5b5061024f60048036036080811015610bab57600080fd5b600160a060020a03823581169260208101359091169160408201359190810190608081016060820135640100000000811115610be657600080fd5b820183602082011115610bf857600080fd5b80359060200191846001830284011164010000000083111715610c1a57600080fd5b91908080601f0160208091040260200160405190810160405280939291908181526020018383808284376000920191909152509295506122a4945050505050565b6000610c6e610c6984610ed7565b61256e565b90506000610c7c82846125bf565b9050610c8781610f49565b1515610d03576040805160e560020a62461bcd02815260206004820152602b60248201527f6164644f776e65723a2053686f756c64206265207369676e6564206279206f6e60448201527f65206f66206f776e657273000000000000000000000000000000000000000000606482015290519081900360840190fd5b610d0c846117c6565b50505050565b6002610d1c610ea4565b6002811115610d2757fe5b14610d7c576040805160e560020a62461bcd02815260206004820181905260248201527f73746f703a204d75737420626520696e204469736d6973736564207374617465604482015290519081900360640190fd5b60055415610dfa576040805160e560020a62461bcd02815260206004820152602d60248201527f73746f703a2054686572652061726520736f6d6520646562747320657869737460448201527f7320696e20636f6e747261637400000000000000000000000000000000000000606482015290519081900360840190fd5b60065415610e78576040805160e560020a62461bcd02815260206004820152603660248201527f73746f703a204e65656420746f2068617665206e756c6c2062616c616e63657360448201527f20666f72207573696e672073746f70206d6574686f6400000000000000000000606482015290519081900360840190fd5b6040517fe9bfaf6fba36e18b5ab59d3ce474c3c6ca70a774281a289427aedb69a046a1ea90600090a133ff5b6000600454600014158015610ebb57506004544210155b15610ecd576002805460ff1916811790555b5060025460ff1690565b604080513081830152600160a060020a038316606080830191909152602080830191909152600260808301527f616f00000000000000000000000000000000000000000000000000000000000060a0808401919091528351808403909101815260c09092019092528051910120919050565b6000610f548261209b565b92915050565b6000610f64610ea4565b6002811115610f6f57fe5b14610fc4576040805160e560020a62461bcd02815260206004820152601f60248201527f7265746972653a204d75737420626520696e2041637469766520737461746500604482015290519081900360640190fd5b6000610fd2610c69306117e6565b90506000610fe082846125bf565b9050610feb8161184d565b1515611041576040805160e560020a62461bcd02815260206004820152601860248201527f7265746972653a2053686f756c64206265207369676e65640000000000000000604482015290519081900360640190fd5b60035442016004556002805460ff191660011790556040517fdea62f60aed6357392635b274709928e0e2e422770c1885e3075f93f63237fbe90600090a1505050565b600261108e610ea4565b600281111561109957fe5b1415611115576040805160e560020a62461bcd02815260206004820152603d60248201527f616464446562743a20436f6e747261637420697320696e206469736d6973736560448201527f642073746174652e2043616e206e6f7420616464206e65772064656274000000606482015290519081900360840190fd5b6000611126610c6989898988612160565b9050600061113482856125bf565b905061113f8161184d565b15156111bb576040805160e560020a62461bcd02815260206004820152602260248201527f616464446562743a2053686f756c64206265207369676e6564206279206f776e60448201527f6572000000000000000000000000000000000000000000000000000000000000606482015290519081900360840190fd5b60006111c783856125bf565b905060008a905080600160a060020a0316637df73e27836040518263ffffffff1660e060020a0281526004018082600160a060020a0316600160a060020a0316815260200191505060206040518083038186803b15801561122757600080fd5b505afa15801561123b573d6000803e3d6000fd5b505050506040513d602081101561125157600080fd5b505115156112cf576040805160e560020a62461bcd02815260206004820152602560248201527f616464446562743a2053686f756c64206265207369676e65642062792063726560448201527f6469746f72000000000000000000000000000000000000000000000000000000606482015290519081900360840190fd5b60006112dc8c8c8b611777565b6000818152600760205260409020600201549091501561136c576040805160e560020a62461bcd02815260206004820152602260248201527f616464446562743a2043616e206e6f74206f766572726964652065786973746960448201527f6e67000000000000000000000000000000000000000000000000000000000000606482015290519081900360840190fd5b60a0604051908101604052808d600160a060020a031681526020018c600160a060020a0316815260200189420181526020018b81526020018a61ffff168152506007600083815260200190815260200160002060008201518160000160006101000a815481600160a060020a030219169083600160a060020a0316021790555060208201518160010160006101000a815481600160a060020a030219169083600160a060020a03160217905550604082015181600201556060820151816003015560808201518160040160006101000a81548161ffff021916908361ffff16021790555090505060016005600082825401925050819055508a600160a060020a03168c600160a060020a03167f2d078bdbe31a4f135549319bb8f04e34ce787751d920f5649c307e61e2d8755b8c6040518082815260200191505060405180910390a3505050505050505050505050565b604080517f23b872dd0000000000000000000000000000000000000000000000000000000081523360048201523060248201526044810183905290518391600160a060020a038316916323b872dd916064808201926020929091908290030181600087803b15801561152e57600080fd5b505af1158015611542573d6000803e3d6000fd5b505050506040513d602081101561155857600080fd5b505115156115d6576040805160e560020a62461bcd02815260206004820152603160248201527f6465706f7369743a20556e61626c6520746f207472616e7366657220746f6b6560448201527f6e20746f2074686520636f6e7472616374000000000000000000000000000000606482015290519081900360840190fd5b600160a060020a03831660009081526008602052604090205415156115ff576006805460010190555b600160a060020a038316600090815260086020526040902054611628908363ffffffff61269516565b600160a060020a038416600081815260086020908152604091829020939093558051858152905191927f67b910fa040657b3d16456bb3485c92024c708a57feebdd18e1fbd5b7d028d9f92918290030190a2505050565b611688336126ae565b565b60408051600160a060020a039384168183015291909216606080830191909152602080830191909152600260808301527f666f00000000000000000000000000000000000000000000000000000000000060a0808401919091528351808403909101815260c0909201909252805191012090565b60408051600160a060020a0394851681830152929093166060830152608080830191909152602080830191909152600260a08301527f776900000000000000000000000000000000000000000000000000000000000060c0808401919091528351808403909101815260e0909201909252805191012090565b6040805130602080830191909152600160a060020a039586168284015293909416606085015261ffff919091166080808501919091528151808503909101815260a09093019052815191012090565b6117cf3361209b565b15156117da57600080fd5b6117e3816126f6565b50565b60408051600160a060020a038316818301526020808201839052600260608301527f72650000000000000000000000000000000000000000000000000000000000006080808401919091528351808403909101815260a09092019092528051910120919050565b6000610f54818363ffffffff61273e16565b604080513081830152600160a060020a038316606080830191909152602080830191909152600260808301527f726f00000000000000000000000000000000000000000000000000000000000060a0808401919091528351808403909101815260c09092019092528051910120919050565b6118d96128b4565b506000828152600760209081526040808320815160a0810183528154600160a060020a0390811680835260018401549091169482018590526002830154938201939093526003820154606082015260049091015461ffff166080820152929091908290611949610c69838561168a565b9050600061195782886125bf565b905082600160a060020a0316637df73e27826040518263ffffffff1660e060020a0281526004018082600160a060020a0316600160a060020a0316815260200191505060206040518083038186803b1580156119b257600080fd5b505afa1580156119c6573d6000803e3d6000fd5b505050506040513d60208110156119dc57600080fd5b50511515611a5a576040805160e560020a62461bcd02815260206004820152602660248201527f666f7267697665446562743a2053686f756c64206265207369676e656420627960448201527f206f746865720000000000000000000000000000000000000000000000000000606482015290519081900360840190fd5b83600160a060020a031685600160a060020a03167f072344a4137dcbffc9234fb806e11a55d95c374109775da8c77d5ed36b8fe9ed88606001516040518082815260200191505060405180910390a3505050600094855250506007602052505060408120805473ffffffffffffffffffffffffffffffffffffffff1990811682556001820180549091169055600281018290556003810191909155600401805461ffff1916905560058054600019019055565b60055481565b60076020526000908152604090208054600182015460028301546003840154600490940154600160a060020a03938416949390921692909161ffff1685565b60035481565b611b606128b4565b50600082815260076020908152604091829020825160a0810184528154600160a060020a039081168252600183015416928101929092526002810154928201839052600381015460608301526004015461ffff166080820152901515611c36576040805160e560020a62461bcd02815260206004820152603260248201527f636f6c6c656374446562743a204465627420776974682073706563696669656460448201527f20494420646f6573206e6f7420666f756e640000000000000000000000000000606482015290519081900360840190fd5b80516020820151816000611c4c610c698461222e565b90506000611c5a82886125bf565b905082600160a060020a0316637df73e27826040518263ffffffff1660e060020a0281526004018082600160a060020a0316600160a060020a0316815260200191505060206040518083038186803b158015611cb557600080fd5b505afa158015611cc9573d6000803e3d6000fd5b505050506040513d6020811015611cdf57600080fd5b50511515611d5d576040805160e560020a62461bcd02815260206004820152602660248201527f636f6c6c656374446562743a2053686f756c64206265207369676e656420627960448201527f206f746865720000000000000000000000000000000000000000000000000000606482015290519081900360840190fd5b6040860151421015611ddf576040805160e560020a62461bcd02815260206004820152602c60248201527f636f6c6c656374446562743a2043616e206f6e6c7920636f6c6c65637420657860448201527f697374696e672073747566660000000000000000000000000000000000000000606482015290519081900360840190fd5b600160a060020a03841660009081526008602052604081205460608801518692911015611e255750600160a060020a038516600090815260086020526040902054611e6e565b506060870151604080518281529051600160a060020a0380891692908a16917e6961675c3a86ce692a816fc0690bea5024beddb204bddab036805b1e41ed649181900360200190a35b6060880151611e83908263ffffffff61277516565b6060890152600160a060020a038616600090815260086020526040902054611eb1908263ffffffff61277516565b600160a060020a03808816600081815260086020908152604091829020859055815194855290519193928b16927f324f9155ed66e3244ff2c26eac5aa58c6544c9a886cb7008e8e1d9f4c6b76d89929081900390910190a381600160a060020a031663095ea7b388836040518363ffffffff1660e060020a0281526004018083600160a060020a0316600160a060020a0316815260200182815260200192505050602060405180830381600087803b158015611f6c57600080fd5b505af1158015611f80573d6000803e3d6000fd5b505050506040513d6020811015611f9657600080fd5b50511515612014576040805160e560020a62461bcd02815260206004820152602b60248201527f636f6c6c656374446562743a2043616e206e6f7420617070726f766520746f6b60448201527f656e207472616e73666572000000000000000000000000000000000000000000606482015290519081900360840190fd5b84600160a060020a03166347e7ef2487836040518363ffffffff1660e060020a0281526004018083600160a060020a0316600160a060020a0316815260200182815260200192505050600060405180830381600087803b15801561207757600080fd5b505af115801561208b573d6000803e3d6000fd5b5050505050505050505050505050565b6000610f5460018363ffffffff61273e16565b60006120bc610c698461185f565b905060006120ca82846125bf565b90506120d581610f49565b1515612151576040805160e560020a62461bcd02815260206004820152602e60248201527f72656d6f76654f776e65723a2053686f756c64206265207369676e656420627960448201527f206f6e65206f66206f776e657273000000000000000000000000000000000000606482015290519081900360840190fd5b610d0c846126ae565b60065481565b60408051600160a060020a0395861681830152939094166060840152608083019190915260a080830191909152602080830191909152600260c08301527f616400000000000000000000000000000000000000000000000000000000000060e08084019190915283518084039091018152610100909201909252805191012090565b6002546101009004600160a060020a031681565b60086020526000908152604090205481565b6116883361278a565b61221a3361184d565b151561222557600080fd5b6117e3816127d2565b60408051600160a060020a038316818301526020808201839052600260608301527f636f0000000000000000000000000000000000000000000000000000000000006080808401919091528351808403909101815260a09092019092528051910120919050565b60045481565b60025460ff1681565b600160a060020a038316600090815260086020526040902054821115612360576040805160e560020a62461bcd02815260206004820152605460248201527f77697468647261773a20547279696e6720746f20776974686472617720616d6f60448201527f756e7420776869636820657863656564732063757272656e742062616c616e6360648201527f6520696e2073706563696669656420746f6b656e000000000000000000000000608482015290519081900360a40190fd5b826000612371610c698784876116fe565b9050600061237f82856125bf565b905061238a8161184d565b15156123e0576040805160e560020a62461bcd02815260206004820152601a60248201527f77697468647261773a2053686f756c64206265207369676e6564000000000000604482015290519081900360640190fd5b82600160a060020a031663a9059cbb88876040518363ffffffff1660e060020a0281526004018083600160a060020a0316600160a060020a0316815260200182815260200192505050602060405180830381600087803b15801561244357600080fd5b505af1158015612457573d6000803e3d6000fd5b505050506040513d602081101561246d57600080fd5b505115156124c5576040805160e560020a62461bcd02815260206004820181905260248201527f77697468647261773a2043616e206e6f74207472616e7366657220746f6b656e604482015290519081900360640190fd5b600160a060020a0386166000908152600860205260409020546124ee908663ffffffff61277516565b600160a060020a0387166000908152600860205260409020819055151561251a57600680546000190190555b85600160a060020a031687600160a060020a03167f30e6a5fbc5561e2b7f128a4a32fcb64e4c1eb6b72d14ba951dac89307c4d3291876040518082815260200191505060405180910390a350505050505050565b604080517f19457468657265756d205369676e6564204d6573736167653a0a333200000000602080830191909152603c8083019490945282518083039094018452605c909101909152815191012090565b600080600080845160411415156125dc5760009350505050610f54565b50505060208201516040830151606084015160001a601b60ff8216101561260157601b015b8060ff16601b1415801561261957508060ff16601c14155b1561262a5760009350505050610f54565b6040805160008152602080820180845289905260ff8416828401526060820186905260808201859052915160019260a0808401939192601f1981019281900390910190855afa158015612681573d6000803e3d6000fd5b505050602060405103519350505050610f54565b6000828201838110156126a757600080fd5b9392505050565b6126bf60018263ffffffff61281a16565b604051600160a060020a038216907f0a8eb35e5ca14b3d6f28e4abf2f128dbab231a58b56e89beb5d636115001e16590600090a250565b61270760018263ffffffff61286616565b604051600160a060020a038216907f22380c05984257a1cb900161c713dd71d39e74820f1aea43bd3f1bdd2096129990600090a250565b6000600160a060020a038216151561275557600080fd5b50600160a060020a03166000908152602091909152604090205460ff1690565b60008282111561278457600080fd5b50900390565b61279b60008263ffffffff61281a16565b604051600160a060020a038216907f3525e22824a8a7df2c9a6029941c824cf95b6447f1e13d5128fd3826d35afe8b90600090a250565b6127e360008263ffffffff61286616565b604051600160a060020a038216907f47d1c22a25bb3a5d4e481b9b1e6944c2eade3181a0a20b495ed61d35b5323f2490600090a250565b600160a060020a038116151561282f57600080fd5b612839828261273e565b151561284457600080fd5b600160a060020a0316600090815260209190915260409020805460ff19169055565b600160a060020a038116151561287b57600080fd5b612885828261273e565b1561288f57600080fd5b600160a060020a0316600090815260209190915260409020805460ff19166001179055565b6040805160a0810182526000808252602082018190529181018290526060810182905260808101919091529056fea165627a7a72305820b2672ef9a630962136ac69ff7f0a80d88d9489ca1461796ca6e58cb727d436aa0029",
  "source": "pragma solidity ^0.5.0;\n\nimport \"openzeppelin-solidity/contracts/token/ERC20/IERC20.sol\";\nimport \"openzeppelin-solidity/contracts/math/SafeMath.sol\";\nimport \"openzeppelin-solidity/contracts/ownership/Ownable.sol\";\nimport \"openzeppelin-solidity/contracts/cryptography/ECDSA.sol\";\nimport \"openzeppelin-solidity/contracts/access/roles/WhitelistAdminRole.sol\";\nimport \"openzeppelin-solidity/contracts/access/roles/SignerRole.sol\";\n\n\n/// @title Holding\ncontract Holding is SignerRole, WhitelistAdminRole {\n    using SafeMath for uint256;\n\n    enum State {\n        Active,      // Usual case, all operations are permitted\n        Retired,     // End of life of contract state, contract will terminated soon.\n        Dismissed    // No new debts could be added. One could only repay the existing debts.\n    }\n\n    struct Debt {\n        address destination;     // Receiver address of debt\n        address token;           // Currency of debt\n        uint256 collectionAfter; // Creditor can claim debt after \"collectionAfter\" seconds\n        uint256 amount;          // Amount of debt\n        uint16  salt;            // ID of debt\n    }\n\n    State public _currentState;\n    address public _clearingHouse;\n    uint256 public _retiringPeriod;\n    uint256 public _retiringUntil;\n    uint256 public _debtsSize;\n    uint256 public _balanceSize;\n\n    mapping (bytes32 => Debt) public debts;\n    // mapping (address of token contract) => (balance in tokens)\n    mapping (address => uint256) public balance;\n\n    event DidDeposit(address indexed token, uint256 amount);\n    event DidAddDebt(address indexed destination, address indexed token, uint256 amount);\n    event DidCollect(address indexed destination, address indexed token, uint256 amount);\n    event DidClose(address indexed destination, address indexed token, uint256 amount);\n    event DidWithdraw(address indexed destination, address indexed token, uint256 amount);\n    event DidForgive(address indexed destination, address indexed token, uint256 amount);\n    event DidRetired();\n    event DidStop();\n\n    /*** ACTIONS AND CONSTRAINTS ***/\n\n    /// @notice Constructs the new \"Holding\" contract.\n    /// @param owner Address of holding's owner.\n    /// @param retiringPeriod How many time Holding resides in Retire state since retire() method called.\n    /// @param clearingHouse Address of contract that available to clear debts.\n    constructor (address owner, uint256 retiringPeriod, address clearingHouse) public {\n        _retiringPeriod = retiringPeriod;\n        _retiringUntil = 0;\n        _clearingHouse = clearingHouse;\n        _currentState = State.Active;\n        _debtsSize = 0;\n    }\n\n    /// @notice Get current contract lifecycle stage.\n    /// @return { State.Active OR State.Retire OR State.Dismissed\n    function currentState () public returns (State) {\n        if (_retiringUntil != 0 && block.timestamp >= _retiringUntil) {\n            _currentState = State.Dismissed;\n        }\n        return _currentState;\n    }\n\n    /// @notice Prepare contract for termination. Starts a retiring period.\n    /// After retiring period no new debts could be added. One could only repay the existing debts.\n    /// @param _signature Signature of contract owner\n    function retire (bytes memory _signature) public {\n        require(currentState() == State.Active, \"retire: Must be in Active state\");\n        bytes32 digest = ECDSA.toEthSignedMessageHash(retireDigest(address(this)));\n        address recovered = ECDSA.recover(digest, _signature);\n        require(isSigner(recovered), \"retire: Should be signed\");\n\n        _retiringUntil = block.timestamp + _retiringPeriod;\n        _currentState = State.Retired;\n\n        emit DidRetired();\n    }\n\n    /// @notice Prepare contract for termination. Starts a retiring period.\n    //  After retiring period no new debts could be added. One could only repay the existing debts.\n    function stop() public {\n        require(currentState() == State.Dismissed, \"stop: Must be in Dismissed state\");\n        require(_debtsSize == 0, \"stop: There are some debts exists in contract\");\n        require(_balanceSize == 0, \"stop: Need to have null balances for using stop method\");\n\n        emit DidStop();\n\n        selfdestruct(address(msg.sender));\n\n    }\n\n    /// @notice Add deposit with value _amount in currency _token\n    /// @param _token Currency of deposit\n    /// @param _amount Value of deposit\n    function deposit (address _token, uint256 _amount) public {\n        IERC20 token = IERC20(_token);\n        require(token.transferFrom(msg.sender, address(this), _amount), \"deposit: Unable to transfer token to the contract\");\n        if (balance[_token] == 0) {\n            _balanceSize += 1;\n        }\n\n        balance[_token] = balance[_token].add(_amount);\n        emit DidDeposit(_token, _amount);\n    }\n\n    /// @notice Transfer _amount of _token to _destination address.\n    /// @param _destination Destination of tokens\n    /// @param _token Currency of withdraw\n    /// @param _amount Value of withdraw\n    /// @param _signature Signature of contract owner (debtor) of withdrawDigest\n    function withdraw (address _destination, address _token, uint256 _amount, bytes memory _signature) public {\n        require(_amount <= balance[_token], \"withdraw: Trying to withdraw amount which exceeds current balance in specified token\");\n        IERC20 token = IERC20(_token);\n        bytes32 digest = ECDSA.toEthSignedMessageHash(withdrawDigest(_destination, _token, _amount));\n        address recovered = ECDSA.recover(digest, _signature);\n        require(isSigner(recovered), \"withdraw: Should be signed\");\n        require(token.transfer(_destination, _amount), \"withdraw: Can not transfer token\");\n        balance[_token] = balance[_token].sub(_amount);\n        if (balance[_token] == 0) {\n            _balanceSize -= 1;\n        }\n\n        emit DidWithdraw(_destination, _token, _amount);\n    }\n\n    /// @notice Claim the debt from debtor\n    /// @param _id ID of debt in debt mapping\n    /// @param _signature Signature of debtor of collectDigest\n    function collectDebt (bytes32 _id, bytes memory _signature) public {\n        Debt memory debt = debts[_id];\n        require(debt.collectionAfter != 0, \"collectDebt: Debt with specified ID does not found\");\n        address destination = debt.destination;\n\n        address tokenContract = debt.token;\n        Holding other = Holding(destination);\n\n        bytes32 digest = ECDSA.toEthSignedMessageHash(collectDigest(tokenContract));\n        address recoveredOther = ECDSA.recover(digest, _signature);\n\n        require(other.isSigner(recoveredOther), \"collectDebt: Should be signed by other\");\n\n        require(debt.collectionAfter <= block.timestamp, \"collectDebt: Can only collect existing stuff\");\n        IERC20 token = IERC20(tokenContract);\n        uint256 amountToSend;\n        if (debt.amount > balance[tokenContract]) {\n            amountToSend = balance[tokenContract];\n        } else {\n            amountToSend = debt.amount;\n            emit DidClose(destination, tokenContract, amountToSend);\n        }\n\n        debt.amount = debt.amount.sub(amountToSend);\n        balance[tokenContract] = balance[tokenContract].sub(amountToSend);\n        emit DidCollect(destination, tokenContract, balance[tokenContract]);\n\n        require(token.approve(destination, amountToSend), \"collectDebt: Can not approve token transfer\");\n        other.deposit(tokenContract, amountToSend);\n    }\n\n    /// @notice Add debt to contract\n    /// @param _destination Address of creditor\n    /// @param _token Currency of debt\n    /// @param _amount Value of debt\n    /// @param _salt ID of debt between creditor and debtor\n    /// @param _settlementPeriod Time in seconds after that creditor can claim to return debt\n    /// @param _sigDebtor Signature of debtor\n    /// @param _sigCreditor Signature of creditor\n    function addDebt (\n        address _destination,\n        address _token,\n        uint256 _amount,\n        uint16 _salt,\n        uint256 _settlementPeriod,\n        bytes memory _sigDebtor,\n        bytes memory _sigCreditor\n    ) public\n    {\n        require(currentState() != State.Dismissed, \"addDebt: Contract is in dismissed state. Can not add new debt\");\n        bytes32 digest = ECDSA.toEthSignedMessageHash(addDebtDigest(_destination, _token, _amount, _settlementPeriod));\n        address recoveredOwner = ECDSA.recover(digest, _sigDebtor);\n        require(isSigner(recoveredOwner), \"addDebt: Should be signed by owner\");\n\n        address recoveredCreditor = ECDSA.recover(digest, _sigCreditor);\n        Holding creditor = Holding(_destination);\n        require(creditor.isSigner(recoveredCreditor), \"addDebt: Should be signed by creditor\");\n\n        bytes32 debtID = debtIdentifier(_destination, _token, _salt);\n\n        require(debts[debtID].collectionAfter == 0, \"addDebt: Can not override existing\");\n\n        debts[debtID] = Debt({\n            destination: _destination,\n            token: _token,\n            amount: _amount,\n            collectionAfter: block.timestamp + _settlementPeriod,\n            salt: _salt\n        });\n\n        _debtsSize += 1;\n\n        emit DidAddDebt(_destination, _token, _amount);\n    }\n\n    /// @notice Forgive a debt. Can be called by creditor.\n    /// @param _id ID of debt in debt mapping\n    /// @param _signature Currency of creditor\n    function forgiveDebt (bytes32 _id, bytes memory _signature) public {\n        Debt memory debt = debts[_id];\n        address destination = debt.destination;\n        address tokenContract = debt.token;\n        Holding other = Holding(destination);\n        bytes32 digest = ECDSA.toEthSignedMessageHash(forgiveDigest(destination, tokenContract));\n        address recoveredOther = ECDSA.recover(digest, _signature);\n        require(other.isSigner(recoveredOther), \"forgiveDebt: Should be signed by other\");\n\n        emit DidForgive(destination, tokenContract, debt.amount);\n\n        delete debts[_id];\n        _debtsSize -= 1;\n    }\n\n    function forgiveDigest (address _destination, address _token) public pure returns (bytes32) {\n        return keccak256(abi.encode(\"fo\", _destination, _token));\n    }\n\n    function collectDigest (address _token) public pure returns (bytes32) {\n        return keccak256(abi.encode(\"co\", _token));\n    }\n\n    function withdrawDigest (address _destination, address _token, uint256 _amount) public pure returns (bytes32) {\n        return keccak256(abi.encode(\"wi\", _destination, _token, _amount));\n    }\n\n    function retireDigest (address contractAddress) public pure returns (bytes32) {\n        return keccak256(abi.encode(\"re\", contractAddress));\n    }\n\n    function addOwnerDigest (address _newOwner) public view returns (bytes32) {\n        return keccak256(abi.encode(\"ao\", address(this), _newOwner));\n    }\n\n    function removeOwnerDigest (address _owner) public view returns (bytes32) {\n        return keccak256(abi.encode(\"ro\", address(this), _owner));\n    }\n\n    function addDebtDigest (\n        address _destination,\n        address _token,\n        uint256 _amount,\n        uint256 _settlementPeriod\n    ) public pure returns (bytes32)\n    {\n        return keccak256(abi.encode(\"ad\", _destination, _token, _amount, _settlementPeriod));\n    }\n\n    function debtIdentifier (address _destination, address _token, uint16 _salt) public view returns (bytes32) {\n        return keccak256(abi.encode(address(this), _destination, _token, _salt));\n    }\n\n    function isOwner (address _owner) public view returns (bool) {\n        return isWhitelistAdmin(_owner);\n    }\n\n    function addOwner (address _newOwner, bytes memory _signature) public {\n        bytes32 digest = ECDSA.toEthSignedMessageHash(addOwnerDigest(_newOwner));\n        address newOwner = ECDSA.recover(digest, _signature);\n        require(isOwner(newOwner), \"addOwner: Should be signed by one of owners\");\n        addWhitelistAdmin(_newOwner);\n    }\n\n    function removeOwner (address _owner, bytes memory _signature) public {\n        bytes32 digest = ECDSA.toEthSignedMessageHash(removeOwnerDigest(_owner));\n        address owner = ECDSA.recover(digest, _signature);\n        require(isOwner(owner), \"removeOwner: Should be signed by one of owners\");\n        _removeWhitelistAdmin(_owner);\n    }\n}\n",
  "sourcePath": "/Users/user/Desktop/projects/debt_channel/packages/contracts/contracts/Holding.sol",
  "compiler": {
    "name": "solc",
    "version": "0.5.0+commit.1d4f565a.Emscripten.clang"
  },
  "schemaVersion": "3.0.1",
  "updatedAt": "2019-02-06T13:41:37.976Z",
  "devdoc": {
    "methods": {
      "addDebt(address,address,uint256,uint16,uint256,bytes,bytes)": {
        "params": {
          "_amount": "Value of debt",
          "_destination": "Address of creditor",
          "_salt": "ID of debt between creditor and debtor",
          "_settlementPeriod": "Time in seconds after that creditor can claim to return debt",
          "_sigCreditor": "Signature of creditor",
          "_sigDebtor": "Signature of debtor",
          "_token": "Currency of debt"
        }
      },
      "collectDebt(bytes32,bytes)": {
        "params": {
          "_id": "ID of debt in debt mapping",
          "_signature": "Signature of debtor of collectDigest"
        }
      },
      "constructor": {
        "params": {
          "clearingHouse": "Address of contract that available to clear debts.",
          "owner": "Address of holding's owner.",
          "retiringPeriod": "How many time Holding resides in Retire state since retire() method called."
        }
      },
      "currentState()": {
        "return": "{ State.Active OR State.Retire OR State.Dismissed"
      },
      "deposit(address,uint256)": {
        "params": {
          "_amount": "Value of deposit",
          "_token": "Currency of deposit"
        }
      },
      "forgiveDebt(bytes32,bytes)": {
        "params": {
          "_id": "ID of debt in debt mapping",
          "_signature": "Currency of creditor"
        }
      },
      "retire(bytes)": {
        "params": {
          "_signature": "Signature of contract owner"
        }
      },
      "withdraw(address,address,uint256,bytes)": {
        "params": {
          "_amount": "Value of withdraw",
          "_destination": "Destination of tokens",
          "_signature": "Signature of contract owner (debtor) of withdrawDigest",
          "_token": "Currency of withdraw"
        }
      }
    },
    "title": "Holding"
  },
  "userdoc": {
    "methods": {
      "addDebt(address,address,uint256,uint16,uint256,bytes,bytes)": {
        "notice": "Add debt to contract"
      },
      "collectDebt(bytes32,bytes)": {
        "notice": "Claim the debt from debtor"
      },
      "constructor": "Constructs the new \"Holding\" contract.",
      "currentState()": {
        "notice": "Get current contract lifecycle stage."
      },
      "deposit(address,uint256)": {
        "notice": "Add deposit with value _amount in currency _token"
      },
      "forgiveDebt(bytes32,bytes)": {
        "notice": "Forgive a debt. Can be called by creditor."
      },
      "retire(bytes)": {
        "notice": "Prepare contract for termination. Starts a retiring period. After retiring period no new debts could be added. One could only repay the existing debts."
      },
      "stop()": {
        "notice": "Prepare contract for termination. Starts a retiring period."
      },
      "withdraw(address,address,uint256,bytes)": {
        "notice": "Transfer _amount of _token to _destination address."
      }
    }
  }
}