{
  "contractName": "Holding",
  "abi": [
    {
      "constant": false,
      "inputs": [
        {
          "name": "_newOwner",
          "type": "address"
        },
        {
          "name": "_signature",
          "type": "bytes"
        }
      ],
      "name": "addOwner",
      "outputs": [],
      "payable": false,
      "stateMutability": "nonpayable",
      "type": "function"
    },
    {
      "constant": true,
      "inputs": [
        {
          "name": "_newOwner",
          "type": "address"
        }
      ],
      "name": "addOwnerDigest",
      "outputs": [
        {
          "name": "",
          "type": "bytes32"
        }
      ],
      "payable": false,
      "stateMutability": "view",
      "type": "function"
    },
    {
      "constant": true,
      "inputs": [
        {
          "name": "_address",
          "type": "address"
        }
      ],
      "name": "isOwner",
      "outputs": [
        {
          "name": "",
          "type": "bool"
        }
      ],
      "payable": false,
      "stateMutability": "view",
      "type": "function"
    },
    {
      "constant": false,
      "inputs": [
        {
          "name": "_newSigner",
          "type": "address"
        },
        {
          "name": "_signature",
          "type": "bytes"
        }
      ],
      "name": "addSigner",
      "outputs": [],
      "payable": false,
      "stateMutability": "nonpayable",
      "type": "function"
    },
    {
      "constant": true,
      "inputs": [
        {
          "name": "_signer",
          "type": "address"
        }
      ],
      "name": "removeSignerDigest",
      "outputs": [
        {
          "name": "",
          "type": "bytes32"
        }
      ],
      "payable": false,
      "stateMutability": "view",
      "type": "function"
    },
    {
      "constant": true,
      "inputs": [
        {
          "name": "_address",
          "type": "address"
        }
      ],
      "name": "isSigner",
      "outputs": [
        {
          "name": "",
          "type": "bool"
        }
      ],
      "payable": false,
      "stateMutability": "view",
      "type": "function"
    },
    {
      "constant": false,
      "inputs": [
        {
          "name": "_signer",
          "type": "address"
        },
        {
          "name": "_signature",
          "type": "bytes"
        }
      ],
      "name": "removeSigner",
      "outputs": [],
      "payable": false,
      "stateMutability": "nonpayable",
      "type": "function"
    },
    {
      "constant": true,
      "inputs": [
        {
          "name": "_owner",
          "type": "address"
        }
      ],
      "name": "removeOwnerDigest",
      "outputs": [
        {
          "name": "",
          "type": "bytes32"
        }
      ],
      "payable": false,
      "stateMutability": "view",
      "type": "function"
    },
    {
      "constant": true,
      "inputs": [],
      "name": "_debtsSize",
      "outputs": [
        {
          "name": "",
          "type": "uint256"
        }
      ],
      "payable": false,
      "stateMutability": "view",
      "type": "function"
    },
    {
      "constant": true,
      "inputs": [
        {
          "name": "",
          "type": "bytes32"
        }
      ],
      "name": "debts",
      "outputs": [
        {
          "name": "destination",
          "type": "address"
        },
        {
          "name": "token",
          "type": "address"
        },
        {
          "name": "collectionAfter",
          "type": "uint256"
        },
        {
          "name": "amount",
          "type": "uint256"
        },
        {
          "name": "salt",
          "type": "uint16"
        }
      ],
      "payable": false,
      "stateMutability": "view",
      "type": "function"
    },
    {
      "constant": true,
      "inputs": [],
      "name": "_retiringPeriod",
      "outputs": [
        {
          "name": "",
          "type": "uint256"
        }
      ],
      "payable": false,
      "stateMutability": "view",
      "type": "function"
    },
    {
      "constant": false,
      "inputs": [
        {
          "name": "_owner",
          "type": "address"
        },
        {
          "name": "_signature",
          "type": "bytes"
        }
      ],
      "name": "removeOwner",
      "outputs": [],
      "payable": false,
      "stateMutability": "nonpayable",
      "type": "function"
    },
    {
      "constant": true,
      "inputs": [],
      "name": "_balanceSize",
      "outputs": [
        {
          "name": "",
          "type": "uint256"
        }
      ],
      "payable": false,
      "stateMutability": "view",
      "type": "function"
    },
    {
      "constant": true,
      "inputs": [
        {
          "name": "_newSigner",
          "type": "address"
        }
      ],
      "name": "addSignerDigest",
      "outputs": [
        {
          "name": "",
          "type": "bytes32"
        }
      ],
      "payable": false,
      "stateMutability": "view",
      "type": "function"
    },
    {
      "constant": true,
      "inputs": [],
      "name": "_clearingHouse",
      "outputs": [
        {
          "name": "",
          "type": "address"
        }
      ],
      "payable": false,
      "stateMutability": "view",
      "type": "function"
    },
    {
      "constant": true,
      "inputs": [
        {
          "name": "",
          "type": "address"
        }
      ],
      "name": "balance",
      "outputs": [
        {
          "name": "",
          "type": "uint256"
        }
      ],
      "payable": false,
      "stateMutability": "view",
      "type": "function"
    },
    {
      "constant": true,
      "inputs": [],
      "name": "_retiringUntil",
      "outputs": [
        {
          "name": "",
          "type": "uint256"
        }
      ],
      "payable": false,
      "stateMutability": "view",
      "type": "function"
    },
    {
      "constant": true,
      "inputs": [],
      "name": "_currentState",
      "outputs": [
        {
          "name": "",
          "type": "uint8"
        }
      ],
      "payable": false,
      "stateMutability": "view",
      "type": "function"
    },
    {
      "inputs": [
        {
          "name": "retiringPeriod",
          "type": "uint256"
        },
        {
          "name": "clearingHouse",
          "type": "address"
        }
      ],
      "payable": false,
      "stateMutability": "nonpayable",
      "type": "constructor"
    },
    {
      "payable": true,
      "stateMutability": "payable",
      "type": "fallback"
    },
    {
      "anonymous": false,
      "inputs": [
        {
          "indexed": true,
          "name": "token",
          "type": "address"
        },
        {
          "indexed": false,
          "name": "amount",
          "type": "uint256"
        }
      ],
      "name": "DidDeposit",
      "type": "event"
    },
    {
      "anonymous": false,
      "inputs": [
        {
          "indexed": true,
          "name": "destination",
          "type": "address"
        },
        {
          "indexed": true,
          "name": "token",
          "type": "address"
        },
        {
          "indexed": false,
          "name": "amount",
          "type": "uint256"
        }
      ],
      "name": "DidAddDebt",
      "type": "event"
    },
    {
      "anonymous": false,
      "inputs": [
        {
          "indexed": true,
          "name": "destination",
          "type": "address"
        },
        {
          "indexed": true,
          "name": "token",
          "type": "address"
        },
        {
          "indexed": false,
          "name": "amount",
          "type": "uint256"
        }
      ],
      "name": "DidCollect",
      "type": "event"
    },
    {
      "anonymous": false,
      "inputs": [
        {
          "indexed": true,
          "name": "destination",
          "type": "address"
        },
        {
          "indexed": true,
          "name": "token",
          "type": "address"
        },
        {
          "indexed": false,
          "name": "amount",
          "type": "uint256"
        }
      ],
      "name": "DidClose",
      "type": "event"
    },
    {
      "anonymous": false,
      "inputs": [
        {
          "indexed": true,
          "name": "destination",
          "type": "address"
        },
        {
          "indexed": true,
          "name": "token",
          "type": "address"
        },
        {
          "indexed": false,
          "name": "amount",
          "type": "uint256"
        }
      ],
      "name": "DidWithdraw",
      "type": "event"
    },
    {
      "anonymous": false,
      "inputs": [
        {
          "indexed": true,
          "name": "destination",
          "type": "address"
        },
        {
          "indexed": true,
          "name": "token",
          "type": "address"
        },
        {
          "indexed": false,
          "name": "amount",
          "type": "uint256"
        }
      ],
      "name": "DidForgive",
      "type": "event"
    },
    {
      "anonymous": false,
      "inputs": [
        {
          "indexed": false,
          "name": "_id",
          "type": "bytes32"
        }
      ],
      "name": "DidRemoveDebt",
      "type": "event"
    },
    {
      "anonymous": false,
      "inputs": [],
      "name": "DidRetired",
      "type": "event"
    },
    {
      "anonymous": false,
      "inputs": [],
      "name": "DidStop",
      "type": "event"
    },
    {
      "anonymous": false,
      "inputs": [
        {
          "indexed": true,
          "name": "account",
          "type": "address"
        }
      ],
      "name": "SignerAdded",
      "type": "event"
    },
    {
      "anonymous": false,
      "inputs": [
        {
          "indexed": true,
          "name": "account",
          "type": "address"
        }
      ],
      "name": "SignerRemoved",
      "type": "event"
    },
    {
      "constant": false,
      "inputs": [],
      "name": "currentState",
      "outputs": [
        {
          "name": "",
          "type": "uint8"
        }
      ],
      "payable": false,
      "stateMutability": "nonpayable",
      "type": "function"
    },
    {
      "constant": false,
      "inputs": [
        {
          "name": "_signature",
          "type": "bytes"
        }
      ],
      "name": "retire",
      "outputs": [],
      "payable": false,
      "stateMutability": "nonpayable",
      "type": "function"
    },
    {
      "constant": false,
      "inputs": [],
      "name": "stop",
      "outputs": [],
      "payable": false,
      "stateMutability": "nonpayable",
      "type": "function"
    },
    {
      "constant": false,
      "inputs": [
        {
          "name": "_token",
          "type": "address"
        },
        {
          "name": "_amount",
          "type": "uint256"
        }
      ],
      "name": "deposit",
      "outputs": [],
      "payable": true,
      "stateMutability": "payable",
      "type": "function"
    },
    {
      "constant": false,
      "inputs": [
        {
          "name": "_destination",
          "type": "address"
        },
        {
          "name": "_token",
          "type": "address"
        },
        {
          "name": "_amount",
          "type": "uint256"
        },
        {
          "name": "_signature",
          "type": "bytes"
        }
      ],
      "name": "withdraw",
      "outputs": [],
      "payable": false,
      "stateMutability": "nonpayable",
      "type": "function"
    },
    {
      "constant": false,
      "inputs": [
        {
          "name": "_id",
          "type": "bytes32"
        },
        {
          "name": "_signature",
          "type": "bytes"
        }
      ],
      "name": "collectDebt",
      "outputs": [],
      "payable": false,
      "stateMutability": "nonpayable",
      "type": "function"
    },
    {
      "constant": false,
      "inputs": [
        {
          "name": "_destination",
          "type": "address"
        },
        {
          "name": "_token",
          "type": "address"
        },
        {
          "name": "_amount",
          "type": "uint256"
        },
        {
          "name": "_salt",
          "type": "uint16"
        },
        {
          "name": "_settlementPeriod",
          "type": "uint256"
        },
        {
          "name": "_sigDebtor",
          "type": "bytes"
        },
        {
          "name": "_sigCreditor",
          "type": "bytes"
        }
      ],
      "name": "addDebt",
      "outputs": [],
      "payable": false,
      "stateMutability": "nonpayable",
      "type": "function"
    },
    {
      "constant": false,
      "inputs": [
        {
          "name": "_id",
          "type": "bytes32"
        },
        {
          "name": "_signature",
          "type": "bytes"
        }
      ],
      "name": "forgiveDebt",
      "outputs": [],
      "payable": false,
      "stateMutability": "nonpayable",
      "type": "function"
    },
    {
      "constant": false,
      "inputs": [
        {
          "name": "_id",
          "type": "bytes32"
        }
      ],
      "name": "removeDebt",
      "outputs": [],
      "payable": false,
      "stateMutability": "nonpayable",
      "type": "function"
    },
    {
      "constant": true,
      "inputs": [
        {
          "name": "_destination",
          "type": "address"
        },
        {
          "name": "_token",
          "type": "address"
        }
      ],
      "name": "forgiveDigest",
      "outputs": [
        {
          "name": "",
          "type": "bytes32"
        }
      ],
      "payable": false,
      "stateMutability": "pure",
      "type": "function"
    },
    {
      "constant": true,
      "inputs": [
        {
          "name": "_token",
          "type": "address"
        }
      ],
      "name": "collectDigest",
      "outputs": [
        {
          "name": "",
          "type": "bytes32"
        }
      ],
      "payable": false,
      "stateMutability": "pure",
      "type": "function"
    },
    {
      "constant": true,
      "inputs": [
        {
          "name": "_destination",
          "type": "address"
        },
        {
          "name": "_token",
          "type": "address"
        },
        {
          "name": "_amount",
          "type": "uint256"
        }
      ],
      "name": "withdrawDigest",
      "outputs": [
        {
          "name": "",
          "type": "bytes32"
        }
      ],
      "payable": false,
      "stateMutability": "pure",
      "type": "function"
    },
    {
      "constant": true,
      "inputs": [
        {
          "name": "contractAddress",
          "type": "address"
        }
      ],
      "name": "retireDigest",
      "outputs": [
        {
          "name": "",
          "type": "bytes32"
        }
      ],
      "payable": false,
      "stateMutability": "pure",
      "type": "function"
    },
    {
      "constant": true,
      "inputs": [
        {
          "name": "_destination",
          "type": "address"
        },
        {
          "name": "_token",
          "type": "address"
        },
        {
          "name": "_amount",
          "type": "uint256"
        },
        {
          "name": "_settlementPeriod",
          "type": "uint256"
        }
      ],
      "name": "addDebtDigest",
      "outputs": [
        {
          "name": "",
          "type": "bytes32"
        }
      ],
      "payable": false,
      "stateMutability": "pure",
      "type": "function"
    },
    {
      "constant": true,
      "inputs": [
        {
          "name": "_destination",
          "type": "address"
        },
        {
          "name": "_token",
          "type": "address"
        },
        {
          "name": "_salt",
          "type": "uint16"
        }
      ],
      "name": "debtIdentifier",
      "outputs": [
        {
          "name": "",
          "type": "bytes32"
        }
      ],
      "payable": false,
      "stateMutability": "view",
      "type": "function"
    }
  ],
  "bytecode": "0x60806040523480156200001157600080fd5b50604051604080620032fd833981018060405260408110156200003357600080fd5b50805160209091015160018054600160a060020a031916309081179091556200006c60003364010000000062003050620000ca82021704565b506200008860023364010000000062003050620000ca82021704565b600491909155600060058190556003805460ff19600160a060020a03949094166101000261010060a860020a031990911617929092169091556006556200015d565b600160a060020a0381161515620000e057600080fd5b620000f5828264010000000062000125810204565b156200010057600080fd5b600160a060020a0316600090815260209190915260409020805460ff19166001179055565b6000600160a060020a03821615156200013d57600080fd5b50600160a060020a03166000908152602091909152604090205460ff1690565b613190806200016d6000396000f3fe6080604052600436106101875763ffffffff60e060020a6000350416630338f63a811461027257806307da68f5146103375780630c3f6acf1461034c5780630c7bc5d4146103855780631cfb50d9146103af5780632f54bf6e146103f4578063343b286f1461043b5780633785f7a9146104ee57806347e7ef24146106585780634b544c1d146106845780635034c19b146107475780635461087a1461077a578063659378aa146107b557806368ff2365146107f8578063782efb14146108405780637df73e27146108735780637ebab117146108a65780638cdcd73c14610969578063900b5a1b1461099c5780639894b27914610a56578063a9caa41114610a6b578063b2ddae4214610ad0578063b3d9774514610ae5578063c3d0664114610b9f578063c48fa7be14610c62578063c760c5a114610c77578063c981a24c14610cc0578063e27dd7b614610cf3578063e3d670d714610d24578063ed9fe44a14610d57578063ef6e86cb14610d8a578063f2801e2b14610d9f578063f37e8d3814610db4575b6000805260096020527fec8156718a8372b1db44bb411437d0870f3e3790d4a08526d024ce1b0b668f6b5415156101d0576007546101cc90600163ffffffff610e8716565b6007555b6000805260096020527fec8156718a8372b1db44bb411437d0870f3e3790d4a08526d024ce1b0b668f6b5461020b903463ffffffff610e8716565b6000808052600960209081527fec8156718a8372b1db44bb411437d0870f3e3790d4a08526d024ce1b0b668f6b9290925560408051348152905191927f67b910fa040657b3d16456bb3485c92024c708a57feebdd18e1fbd5b7d028d9f92918290030190a2005b34801561027e57600080fd5b506103356004803603604081101561029557600080fd5b600160a060020a0382351691908101906040810160208201356401000000008111156102c057600080fd5b8201836020820111156102d257600080fd5b803590602001918460018302840111640100000000831117156102f457600080fd5b91908080601f016020809104026020016040519081016040528093929190818152602001838380828437600092019190915250929550610ea2945050505050565b005b34801561034357600080fd5b50610335610f61565b34801561035857600080fd5b506103616110f3565b6040518082600281111561037157fe5b60ff16815260200191505060405180910390f35b34801561039157600080fd5b50610335600480360360208110156103a857600080fd5b5035611127565b3480156103bb57600080fd5b506103e2600480360360208110156103d257600080fd5b5035600160a060020a0316611394565b60408051918252519081900360200190f35b34801561040057600080fd5b506104276004803603602081101561041757600080fd5b5035600160a060020a0316611406565b604080519115158252519081900360200190f35b34801561044757600080fd5b506103356004803603602081101561045e57600080fd5b81019060208101813564010000000081111561047957600080fd5b82018360208201111561048b57600080fd5b803590602001918460018302840111640100000000831117156104ad57600080fd5b91908080601f016020809104026020016040519081016040528093929190818152602001838380828437600092019190915250929550611419945050505050565b3480156104fa57600080fd5b50610335600480360360e081101561051157600080fd5b600160a060020a03823581169260208101359091169160408201359161ffff606082013516916080820135919081019060c0810160a082013564010000000081111561055c57600080fd5b82018360208201111561056e57600080fd5b8035906020019184600183028401116401000000008311171561059057600080fd5b91908080601f01602080910402602001604051908101604052809392919081815260200183838082843760009201919091525092959493602081019350359150506401000000008111156105e357600080fd5b8201836020820111156105f557600080fd5b8035906020019184600183028401116401000000008311171561061757600080fd5b91908080601f016020809104026020016040519081016040528093929190818152602001838380828437600092019190915250929550611543945050505050565b6103356004803603604081101561066e57600080fd5b50600160a060020a03813516906020013561197c565b34801561069057600080fd5b50610335600480360360408110156106a757600080fd5b600160a060020a0382351691908101906040810160208201356401000000008111156106d257600080fd5b8201836020820111156106e457600080fd5b8035906020019184600183028401116401000000008311171561070657600080fd5b91908080601f016020809104026020016040519081016040528093929190818152602001838380828437600092019190915250929550611baa945050505050565b34801561075357600080fd5b506103e26004803603602081101561076a57600080fd5b5035600160a060020a0316611d21565b34801561078657600080fd5b506103e26004803603604081101561079d57600080fd5b50600160a060020a0381358116916020013516611d93565b3480156107c157600080fd5b506103e2600480360360608110156107d857600080fd5b50600160a060020a03813581169160208101359091169060400135611e07565b34801561080457600080fd5b506103e26004803603606081101561081b57600080fd5b508035600160a060020a03908116916020810135909116906040013561ffff16611e80565b34801561084c57600080fd5b506103e26004803603602081101561086357600080fd5b5035600160a060020a0316611ecf565b34801561087f57600080fd5b506104276004803603602081101561089657600080fd5b5035600160a060020a0316611f36565b3480156108b257600080fd5b50610335600480360360408110156108c957600080fd5b600160a060020a0382351691908101906040810160208201356401000000008111156108f457600080fd5b82018360208201111561090657600080fd5b8035906020019184600183028401116401000000008311171561092857600080fd5b91908080601f016020809104026020016040519081016040528093929190818152602001838380828437600092019190915250929550611f48945050505050565b34801561097557600080fd5b506103e26004803603602081101561098c57600080fd5b5035600160a060020a03166120bf565b3480156109a857600080fd5b50610335600480360360408110156109bf57600080fd5b813591908101906040810160208201356401000000008111156109e157600080fd5b8201836020820111156109f357600080fd5b80359060200191846001830284011164010000000083111715610a1557600080fd5b91908080601f016020809104026020016040519081016040528093929190818152602001838380828437600092019190915250929550612131945050505050565b348015610a6257600080fd5b506103e2612404565b348015610a7757600080fd5b50610a9560048036036020811015610a8e57600080fd5b503561240a565b60408051600160a060020a03968716815294909516602085015283850192909252606083015261ffff16608082015290519081900360a00190f35b348015610adc57600080fd5b506103e2612449565b348015610af157600080fd5b5061033560048036036040811015610b0857600080fd5b81359190810190604081016020820135640100000000811115610b2a57600080fd5b820183602082011115610b3c57600080fd5b80359060200191846001830284011164010000000083111715610b5e57600080fd5b91908080601f01602080910402602001604051908101604052809392919081815260200183838082843760009201919091525092955061244f945050505050565b348015610bab57600080fd5b5061033560048036036040811015610bc257600080fd5b600160a060020a038235169190810190604081016020820135640100000000811115610bed57600080fd5b820183602082011115610bff57600080fd5b80359060200191846001830284011164010000000083111715610c2157600080fd5b91908080601f01602080910402602001604051908101604052809392919081815260200183838082843760009201919091525092955061296f945050505050565b348015610c6e57600080fd5b506103e2612a23565b348015610c8357600080fd5b506103e260048036036080811015610c9a57600080fd5b50600160a060020a03813581169160208101359091169060408101359060600135612a29565b348015610ccc57600080fd5b506103e260048036036020811015610ce357600080fd5b5035600160a060020a0316612aab565b348015610cff57600080fd5b50610d08612b1d565b60408051600160a060020a039092168252519081900360200190f35b348015610d3057600080fd5b506103e260048036036020811015610d4757600080fd5b5035600160a060020a0316612b31565b348015610d6357600080fd5b506103e260048036036020811015610d7a57600080fd5b5035600160a060020a0316612b43565b348015610d9657600080fd5b506103e2612baa565b348015610dab57600080fd5b50610361612bb0565b348015610dc057600080fd5b5061033560048036036080811015610dd757600080fd5b600160a060020a03823581169260208101359091169160408201359190810190608081016060820135640100000000811115610e1257600080fd5b820183602082011115610e2457600080fd5b80359060200191846001830284011164010000000083111715610e4657600080fd5b91908080601f016020809104026020016040519081016040528093929190818152602001838380828437600092019190915250929550612bb9945050505050565b600082820183811015610e9957600080fd5b90505b92915050565b6000610eb5610eb084611394565b612f29565b90506000610ec38284612f7a565b9050610ece81611406565b1515610f4a576040805160e560020a62461bcd02815260206004820152602b60248201527f6164644f776e65723a2053686f756c64206265207369676e6564206279206f6e60448201527f65206f66206f776e657273000000000000000000000000000000000000000000606482015290519081900360840190fd5b610f5b60028563ffffffff61305016565b50505050565b6002610f6b6110f3565b6002811115610f7657fe5b14610fcb576040805160e560020a62461bcd02815260206004820181905260248201527f73746f703a204d75737420626520696e204469736d6973736564207374617465604482015290519081900360640190fd5b60065415611049576040805160e560020a62461bcd02815260206004820152602d60248201527f73746f703a2054686572652061726520736f6d6520646562747320657869737460448201527f7320696e20636f6e747261637400000000000000000000000000000000000000606482015290519081900360840190fd5b600754156110c7576040805160e560020a62461bcd02815260206004820152603660248201527f73746f703a204e65656420746f2068617665206e756c6c2062616c616e63657360448201527f20666f72207573696e672073746f70206d6574686f6400000000000000000000606482015290519081900360840190fd5b6040517fe9bfaf6fba36e18b5ab59d3ce474c3c6ca70a774281a289427aedb69a046a1ea90600090a133ff5b600060055460001415801561110a57506005544210155b1561111d576003805460ff191660021790555b5060035460ff1690565b600354604080517f881b08da0000000000000000000000000000000000000000000000000000000081523060048201526024810184905290516000926101009004600160a060020a03169163881b08da916044808301926020929190829003018186803b15801561119757600080fd5b505afa1580156111ab573d6000803e3d6000fd5b505050506040513d60208110156111c157600080fd5b5051600083815260086020526040902060038101546002909101549192501590151561125d576040805160e560020a62461bcd02815260206004820152602960248201527f72656d6f7665446562743a20446562742077697468205f696420646f6573206e60448201527f6f74206578697374730000000000000000000000000000000000000000000000606482015290519081900360840190fd5b81806112665750805b1515611308576040805160e560020a62461bcd02815260206004820152604960248201527f72656d6f7665446562743a2052656d6f7665642064656274206d75737420626560448201527f20636c656172656420696e20436c656172696e67486f757365204f522066756c60648201527f6c79207265706169640000000000000000000000000000000000000000000000608482015290519081900360a40190fd5b6000838152600860209081526040808320805473ffffffffffffffffffffffffffffffffffffffff19908116825560018201805490911690556002810184905560038101939093556004909201805461ffff19169055815185815291517f7ce0cf327c370bf6b1e0620b0441056ef3f2b35ce01ab97a7316d61b047209389281900390910190a1505050565b604080513081830152600160a060020a038316606080830191909152602080830191909152600260808301527f616f00000000000000000000000000000000000000000000000000000000000060a0808401919091528351808403909101815260c09092019092528051910120919050565b6000610e9c60028363ffffffff61309e16565b60006114236110f3565b600281111561142e57fe5b14611483576040805160e560020a62461bcd02815260206004820152601f60248201527f7265746972653a204d75737420626520696e2041637469766520737461746500604482015290519081900360640190fd5b6000611491610eb030611ecf565b9050600061149f8284612f7a565b90506114aa81611f36565b1515611500576040805160e560020a62461bcd02815260206004820152601860248201527f7265746972653a2053686f756c64206265207369676e65640000000000000000604482015290519081900360640190fd5b60045442016005556003805460ff191660011790556040517fdea62f60aed6357392635b274709928e0e2e422770c1885e3075f93f63237fbe90600090a1505050565b600261154d6110f3565b600281111561155857fe5b14156115d4576040805160e560020a62461bcd02815260206004820152603d60248201527f616464446562743a20436f6e747261637420697320696e206469736d6973736560448201527f642073746174652e2043616e206e6f7420616464206e65772064656274000000606482015290519081900360840190fd5b60006115e5610eb089898988612a29565b905060006115f38285612f7a565b90506115fe81611f36565b151561167a576040805160e560020a62461bcd02815260206004820152602260248201527f616464446562743a2053686f756c64206265207369676e6564206279206f776e60448201527f6572000000000000000000000000000000000000000000000000000000000000606482015290519081900360840190fd5b60006116868385612f7a565b905060008a905080600160a060020a0316637df73e27836040518263ffffffff1660e060020a0281526004018082600160a060020a0316600160a060020a0316815260200191505060206040518083038186803b1580156116e657600080fd5b505afa1580156116fa573d6000803e3d6000fd5b505050506040513d602081101561171057600080fd5b5051151561178e576040805160e560020a62461bcd02815260206004820152602560248201527f616464446562743a2053686f756c64206265207369676e65642062792063726560448201527f6469746f72000000000000000000000000000000000000000000000000000000606482015290519081900360840190fd5b600061179b8c8c8b611e80565b6000818152600860205260409020600201549091501561182b576040805160e560020a62461bcd02815260206004820152602260248201527f616464446562743a2043616e206e6f74206f766572726964652065786973746960448201527f6e67000000000000000000000000000000000000000000000000000000000000606482015290519081900360840190fd5b60a0604051908101604052808d600160a060020a031681526020018c600160a060020a0316815260200189420181526020018b81526020018a61ffff168152506008600083815260200190815260200160002060008201518160000160006101000a815481600160a060020a030219169083600160a060020a0316021790555060208201518160010160006101000a815481600160a060020a030219169083600160a060020a03160217905550604082015181600201556060820151816003015560808201518160040160006101000a81548161ffff021916908361ffff1602179055509050506119286001600654610e8790919063ffffffff16565b600655604080518b81529051600160a060020a03808e1692908f16917f2d078bdbe31a4f135549319bb8f04e34ce787751d920f5649c307e61e2d8755b9181900360200190a3505050505050505050505050565b600160a060020a03821660009081526009602052604090205415156119b3576007546119af90600163ffffffff610e8716565b6007555b600160a060020a0382161515611a0a57600160a060020a0382166000908152600960205260409020546119ec903463ffffffff610e8716565b600160a060020a038316600090815260096020526040902055611b67565b604080517f23b872dd0000000000000000000000000000000000000000000000000000000081523360048201523060248201526044810183905290518391600160a060020a038316916323b872dd916064808201926020929091908290030181600087803b158015611a7b57600080fd5b505af1158015611a8f573d6000803e3d6000fd5b505050506040513d6020811015611aa557600080fd5b50511515611b23576040805160e560020a62461bcd02815260206004820152603160248201527f6465706f7369743a20556e61626c6520746f207472616e7366657220746f6b6560448201527f6e20746f2074686520636f6e7472616374000000000000000000000000000000606482015290519081900360840190fd5b600160a060020a038316600090815260096020526040902054611b4c908363ffffffff610e8716565b600160a060020a038416600090815260096020526040902055505b604080518281529051600160a060020a038416917f67b910fa040657b3d16456bb3485c92024c708a57feebdd18e1fbd5b7d028d9f919081900360200190a25050565b6000611bb8610eb084612aab565b90506000611bc68284612f7a565b600154604080517f2f54bf6e000000000000000000000000000000000000000000000000000000008152600160a060020a0380851660048301529151939450911691632f54bf6e91602480820192602092909190829003018186803b158015611c2e57600080fd5b505afa158015611c42573d6000803e3d6000fd5b505050506040513d6020811015611c5857600080fd5b50511515611cd6576040805160e560020a62461bcd02815260206004820152602c60248201527f6164645369676e65723a2053686f756c64206265207369676e6564206279206f60448201527f6e65206f66206f776e6572730000000000000000000000000000000000000000606482015290519081900360840190fd5b611ce760008563ffffffff61305016565b604051600160a060020a038516907f47d1c22a25bb3a5d4e481b9b1e6944c2eade3181a0a20b495ed61d35b5323f2490600090a250505050565b604080513081830152600160a060020a038316606080830191909152602080830191909152600260808301527f727300000000000000000000000000000000000000000000000000000000000060a0808401919091528351808403909101815260c09092019092528051910120919050565b60408051600160a060020a039384168183015291909216606080830191909152602080830191909152600260808301527f666f00000000000000000000000000000000000000000000000000000000000060a0808401919091528351808403909101815260c0909201909252805191012090565b60408051600160a060020a0394851681830152929093166060830152608080830191909152602080830191909152600260a08301527f776900000000000000000000000000000000000000000000000000000000000060c0808401919091528351808403909101815260e0909201909252805191012090565b6040805130602080830191909152600160a060020a039586168284015293909416606085015261ffff919091166080808501919091528151808503909101815260a09093019052815191012090565b60408051600160a060020a038316818301526020808201839052600260608301527f72650000000000000000000000000000000000000000000000000000000000006080808401919091528351808403909101815260a09092019092528051910120919050565b6000610e9c818363ffffffff61309e16565b6000611f56610eb084611d21565b90506000611f648284612f7a565b600154604080517f2f54bf6e000000000000000000000000000000000000000000000000000000008152600160a060020a0380851660048301529151939450911691632f54bf6e91602480820192602092909190829003018186803b158015611fcc57600080fd5b505afa158015611fe0573d6000803e3d6000fd5b505050506040513d6020811015611ff657600080fd5b50511515612074576040805160e560020a62461bcd02815260206004820152602f60248201527f72656d6f76655369676e65723a2053686f756c64206265207369676e6564206260448201527f79206f6e65206f66206f776e6572730000000000000000000000000000000000606482015290519081900360840190fd5b61208560008563ffffffff6130d516565b604051600160a060020a038516907f3525e22824a8a7df2c9a6029941c824cf95b6447f1e13d5128fd3826d35afe8b90600090a250505050565b604080513081830152600160a060020a038316606080830191909152602080830191909152600260808301527f726f00000000000000000000000000000000000000000000000000000000000060a0808401919091528351808403909101815260c09092019092528051910120919050565b612139613136565b506000828152600860209081526040808320815160a0810183528154600160a060020a0390811680835260018401549091169482018590526002830154938201939093526003820154606082015260049091015461ffff1660808201529290919082906121a9610eb08385611d93565b905060006121b78288612f7a565b905082600160a060020a0316637df73e27826040518263ffffffff1660e060020a0281526004018082600160a060020a0316600160a060020a0316815260200191505060206040518083038186803b15801561221257600080fd5b505afa158015612226573d6000803e3d6000fd5b505050506040513d602081101561223c57600080fd5b505115156122ba576040805160e560020a62461bcd02815260206004820152602660248201527f666f7267697665446562743a2053686f756c64206265207369676e656420627960448201527f206f746865720000000000000000000000000000000000000000000000000000606482015290519081900360840190fd5b6000888152600860205260408120805473ffffffffffffffffffffffffffffffffffffffff19908116825560018083018054909216909155600282018390556003820192909255600401805461ffff1916905560065461231f9163ffffffff61312116565b60068054919091039055600354604080517f2d8525b8000000000000000000000000000000000000000000000000000000008152600481018b90529051610100909204600160a060020a031691632d8525b89160248082019260009290919082900301818387803b15801561239357600080fd5b505af11580156123a7573d6000803e3d6000fd5b5050505083600160a060020a031685600160a060020a03167f072344a4137dcbffc9234fb806e11a55d95c374109775da8c77d5ed36b8fe9ed88606001516040518082815260200191505060405180910390a35050505050505050565b60065481565b60086020526000908152604090208054600182015460028301546003840154600490940154600160a060020a03938416949390921692909161ffff1685565b60045481565b6000828152600860205260409020600281015415156124de576040805160e560020a62461bcd02815260206004820152603260248201527f636f6c6c656374446562743a204465627420776974682073706563696669656460448201527f20494420646f6573206e6f7420666f756e640000000000000000000000000000606482015290519081900360840190fd5b80546001820154600160a060020a039182169116816000612501610eb084612b43565b9050600061250f8288612f7a565b905082600160a060020a0316637df73e27826040518263ffffffff1660e060020a0281526004018082600160a060020a0316600160a060020a0316815260200191505060206040518083038186803b15801561256a57600080fd5b505afa15801561257e573d6000803e3d6000fd5b505050506040513d602081101561259457600080fd5b50511515612612576040805160e560020a62461bcd02815260206004820152602660248201527f636f6c6c656374446562743a2053686f756c64206265207369676e656420627960448201527f206f746865720000000000000000000000000000000000000000000000000000606482015290519081900360840190fd5b6002860154421015612694576040805160e560020a62461bcd02815260206004820152602c60248201527f636f6c6c656374446562743a2043616e206f6e6c7920636f6c6c65637420657860448201527f697374696e672073747566660000000000000000000000000000000000000000606482015290519081900360840190fd5b600160a060020a038416600090815260096020526040812054600388015486929110156126da5750600160a060020a0385166000908152600960205260409020546126e1565b5060038701545b85600160a060020a031687600160a060020a03167e6961675c3a86ce692a816fc0690bea5024beddb204bddab036805b1e41ed64836040518082815260200191505060405180910390a36003880154612740908263ffffffff61312116565b6003890155600160a060020a03861660009081526009602052604090205461276e908263ffffffff61312116565b600160a060020a0380881660009081526009602090815260408083209490945583517f095ea7b30000000000000000000000000000000000000000000000000000000081528b841660048201526024810186905293519286169363095ea7b39360448083019491928390030190829087803b1580156127ec57600080fd5b505af1158015612800573d6000803e3d6000fd5b505050506040513d602081101561281657600080fd5b50511515612894576040805160e560020a62461bcd02815260206004820152602b60248201527f636f6c6c656374446562743a2043616e206e6f7420617070726f766520746f6b60448201527f656e207472616e73666572000000000000000000000000000000000000000000606482015290519081900360840190fd5b84600160a060020a03166347e7ef2487836040518363ffffffff1660e060020a0281526004018083600160a060020a0316600160a060020a0316815260200182815260200192505050600060405180830381600087803b1580156128f757600080fd5b505af115801561290b573d6000803e3d6000fd5b505050600160a060020a038088166000818152600960209081526040918290205482519081529151929450928b16927f324f9155ed66e3244ff2c26eac5aa58c6544c9a886cb7008e8e1d9f4c6b76d8992918290030190a350505050505050505050565b600061297d610eb0846120bf565b9050600061298b8284612f7a565b905061299681611406565b1515612a12576040805160e560020a62461bcd02815260206004820152602e60248201527f72656d6f76654f776e65723a2053686f756c64206265207369676e656420627960448201527f206f6e65206f66206f776e657273000000000000000000000000000000000000606482015290519081900360840190fd5b610f5b60028563ffffffff6130d516565b60075481565b60408051600160a060020a0395861681830152939094166060840152608083019190915260a080830191909152602080830191909152600260c08301527f616400000000000000000000000000000000000000000000000000000000000060e08084019190915283518084039091018152610100909201909252805191012090565b604080513081830152600160a060020a038316606080830191909152602080830191909152600260808301527f617300000000000000000000000000000000000000000000000000000000000060a0808401919091528351808403909101815260c09092019092528051910120919050565b6003546101009004600160a060020a031681565b60096020526000908152604090205481565b60408051600160a060020a038316818301526020808201839052600260608301527f636f0000000000000000000000000000000000000000000000000000000000006080808401919091528351808403909101815260a09092019092528051910120919050565b60055481565b60035460ff1681565b600160a060020a038316600090815260096020526040902054821115612c75576040805160e560020a62461bcd02815260206004820152605460248201527f77697468647261773a20547279696e6720746f20776974686472617720616d6f60448201527f756e7420776869636820657863656564732063757272656e742062616c616e6360648201527f6520696e2073706563696669656420746f6b656e000000000000000000000000608482015290519081900360a40190fd5b6000612c85610eb0868686611e07565b90506000612c938284612f7a565b9050612c9e81611f36565b1515612cf4576040805160e560020a62461bcd02815260206004820152601a60248201527f77697468647261773a2053686f756c64206265207369676e6564000000000000604482015290519081900360640190fd5b600160a060020a0385161515612d8457604051600160a060020a0387169085156108fc029086906000818181858888f193505050501515612d7f576040805160e560020a62461bcd02815260206004820152601e60248201527f77697468647261773a2043616e206e6f74207472616e73666572206574680000604482015290519081900360640190fd5b612e74565b604080517fa9059cbb000000000000000000000000000000000000000000000000000000008152600160a060020a038881166004830152602482018790529151879283169163a9059cbb9160448083019260209291908290030181600087803b158015612df057600080fd5b505af1158015612e04573d6000803e3d6000fd5b505050506040513d6020811015612e1a57600080fd5b50511515612e72576040805160e560020a62461bcd02815260206004820181905260248201527f77697468647261773a2043616e206e6f74207472616e7366657220746f6b656e604482015290519081900360640190fd5b505b600160a060020a038516600090815260096020526040902054612e9d908563ffffffff61312116565b600160a060020a03861660009081526009602052604090208190551515612ed657600754612ed290600163ffffffff61312116565b6007555b84600160a060020a031686600160a060020a03167f30e6a5fbc5561e2b7f128a4a32fcb64e4c1eb6b72d14ba951dac89307c4d3291866040518082815260200191505060405180910390a3505050505050565b604080517f19457468657265756d205369676e6564204d6573736167653a0a333200000000602080830191909152603c8083019490945282518083039094018452605c909101909152815191012090565b60008060008084516041141515612f975760009350505050610e9c565b50505060208201516040830151606084015160001a601b60ff82161015612fbc57601b015b8060ff16601b14158015612fd457508060ff16601c14155b15612fe55760009350505050610e9c565b6040805160008152602080820180845289905260ff8416828401526060820186905260808201859052915160019260a0808401939192601f1981019281900390910190855afa15801561303c573d6000803e3d6000fd5b505050602060405103519350505050610e9c565b600160a060020a038116151561306557600080fd5b61306f828261309e565b1561307957600080fd5b600160a060020a0316600090815260209190915260409020805460ff19166001179055565b6000600160a060020a03821615156130b557600080fd5b50600160a060020a03166000908152602091909152604090205460ff1690565b600160a060020a03811615156130ea57600080fd5b6130f4828261309e565b15156130ff57600080fd5b600160a060020a0316600090815260209190915260409020805460ff19169055565b60008282111561313057600080fd5b50900390565b6040805160a0810182526000808252602082018190529181018290526060810182905260808101919091529056fea165627a7a72305820dc7334524efb3684ba3904fd0951866d5bd90312dc19f072b4acbdc272ec30fb0029",
  "source": "pragma solidity ^0.5.0;\n\nimport \"openzeppelin-solidity/contracts/token/ERC20/IERC20.sol\";\nimport \"openzeppelin-solidity/contracts/math/SafeMath.sol\";\nimport \"openzeppelin-solidity/contracts/cryptography/ECDSA.sol\";\nimport \"./vendor/Ownable.sol\";\nimport \"./vendor/SignerRole.sol\";\nimport \"./ClearingHouse.sol\";\n\n\n/// @title Holding\ncontract Holding is SignerRole, OwnerRole {\n    using SafeMath for uint16;\n    using SafeMath for uint256;\n\n    enum State {\n        Active,      // Usual case, all operations are permitted\n        Retired,     // End of life of contract state, contract will terminated soon.\n        Dismissed    // No new debts could be added. One could only repay the existing debts.\n    }\n\n    struct Debt {\n        address payable destination;     // Receiver address of debt\n        address token;                   // Currency of debt\n        uint256 collectionAfter;         // Creditor can claim debt after \"collectionAfter\" seconds\n        uint256 amount;                  // Amount of debt\n        uint16  salt;                    // ID of debt\n    }\n\n    State public _currentState;\n    ClearingHouse public _clearingHouse;\n    uint256 public _retiringPeriod;\n    uint256 public _retiringUntil;\n    uint256 public _debtsSize;\n    uint256 public _balanceSize;\n\n    mapping (bytes32 => Debt) public debts;\n    // mapping (address of token contract) => (balance in tokens)\n    mapping (address => uint256) public balance;\n\n    event DidDeposit(address indexed token, uint256 amount);\n    event DidAddDebt(address indexed destination, address indexed token, uint256 amount);\n    event DidCollect(address indexed destination, address indexed token, uint256 amount);\n    event DidClose(address indexed destination, address indexed token, uint256 amount);\n    event DidWithdraw(address indexed destination, address indexed token, uint256 amount);\n    event DidForgive(address indexed destination, address indexed token, uint256 amount);\n    event DidRemoveDebt(bytes32 _id);\n    event DidRetired();\n    event DidStop();\n\n    /*** ACTIONS AND CONSTRAINTS ***/\n\n    /// @notice Constructs the new \"Holding\" contract.\n    /// @param retiringPeriod How many time Holding resides in Retire state since retire() method called.\n    /// @param clearingHouse Address of contract that available to clear debts.\n    constructor (uint256 retiringPeriod, ClearingHouse clearingHouse) public SignerRole(this) {\n        _retiringPeriod = retiringPeriod;\n        _retiringUntil = 0;\n        _clearingHouse = clearingHouse;\n        _currentState = State.Active;\n        _debtsSize = 0;\n    }\n\n    function () external payable {\n        if (balance[address(0x0)] == 0) {\n            _balanceSize = _balanceSize.add(1);\n        }\n\n        balance[address(0x0)] = balance[address(0x0)].add(msg.value);\n\n        emit DidDeposit(address(0x0), msg.value);\n    }\n\n    /// @notice Get current contract lifecycle stage.\n    /// @return { State.Active OR State.Retire OR State.Dismissed\n    function currentState () public returns (State) {\n        if (_retiringUntil != 0 && block.timestamp >= _retiringUntil) {\n            _currentState = State.Dismissed;\n        }\n        return _currentState;\n    }\n\n    /// @notice Prepare contract for termination. Starts a retiring period.\n    /// After retiring period no new debts could be added. One could only repay the existing debts.\n    /// @param _signature Signature of contract owner\n    function retire (bytes memory _signature) public {\n        require(currentState() == State.Active, \"retire: Must be in Active state\");\n        bytes32 digest = ECDSA.toEthSignedMessageHash(retireDigest(address(this)));\n        address recovered = ECDSA.recover(digest, _signature);\n        require(isSigner(recovered), \"retire: Should be signed\");\n\n        _retiringUntil = block.timestamp + _retiringPeriod;\n        _currentState = State.Retired;\n\n        emit DidRetired();\n    }\n\n    /// @notice Prepare contract for termination. Starts a retiring period.\n    //  After retiring period no new debts could be added. One could only repay the existing debts.\n    function stop() public {\n        require(currentState() == State.Dismissed, \"stop: Must be in Dismissed state\");\n        require(_debtsSize == 0, \"stop: There are some debts exists in contract\");\n        require(_balanceSize == 0, \"stop: Need to have null balances for using stop method\");\n\n        emit DidStop();\n\n        selfdestruct(address(msg.sender));\n\n    }\n\n    /// @notice Add deposit with value _amount in currency _token\n    /// @param _token Currency of deposit - token address or 0x0 for ETH\n    /// @param _amount Value of deposit\n    function deposit (address _token, uint256 _amount) public payable {\n        if (balance[_token] == 0) {\n            _balanceSize = _balanceSize.add(1);\n        }\n\n        if (_token == address(0x0)) {\n            balance[_token] = balance[_token].add(msg.value);\n        } else {\n            IERC20 token = IERC20(_token);\n            require(token.transferFrom(msg.sender, address(this), _amount), \"deposit: Unable to transfer token to the contract\");\n            balance[_token] = balance[_token].add(_amount);\n        }\n\n        emit DidDeposit(_token, _amount);\n    }\n\n    /// @notice Transfer _amount of _token to _destination address.\n    /// @param _destination Destination of tokens or ETH\n    /// @param _token Currency of withdraw - address for token, 0x0 for ETH\n    /// @param _amount Value of withdraw\n    /// @param _signature Signature of contract owner (debtor) of withdrawDigest\n    function withdraw (address payable _destination, address _token, uint256 _amount, bytes memory _signature) public {\n        require(_amount <= balance[_token], \"withdraw: Trying to withdraw amount which exceeds current balance in specified token\");\n\n        bytes32 digest = ECDSA.toEthSignedMessageHash(withdrawDigest(_destination, _token, _amount));\n        address recovered = ECDSA.recover(digest, _signature);\n        require(isSigner(recovered), \"withdraw: Should be signed\");\n\n        if (_token == address(0x0)) {\n            require(_destination.send(_amount), \"withdraw: Can not transfer eth\");\n        } else {\n            IERC20 token = IERC20(_token);\n            require(token.transfer(_destination, _amount), \"withdraw: Can not transfer token\");\n        }\n\n        balance[_token] = balance[_token].sub(_amount);\n\n        if (balance[_token] == 0) {\n            _balanceSize = _balanceSize.sub(1);\n        }\n\n        emit DidWithdraw(_destination, _token, _amount);\n    }\n\n    /// @notice Claim the debt from debtor\n    /// @param _id ID of debt in debt mapping\n    /// @param _signature Signature of debtor of collectDigest\n    function collectDebt (bytes32 _id, bytes memory _signature) public {\n        Debt storage debt = debts[_id];\n        require(debt.collectionAfter != 0, \"collectDebt: Debt with specified ID does not found\");\n        address payable destination = debt.destination;\n\n        address tokenContract = debt.token;\n        Holding other = Holding(destination);\n\n        bytes32 digest = ECDSA.toEthSignedMessageHash(collectDigest(tokenContract));\n        address recoveredOther = ECDSA.recover(digest, _signature);\n\n        require(other.isSigner(recoveredOther), \"collectDebt: Should be signed by other\");\n\n        require(debt.collectionAfter <= block.timestamp, \"collectDebt: Can only collect existing stuff\");\n        IERC20 token = IERC20(tokenContract);\n        uint256 amountToSend;\n        if (debt.amount > balance[tokenContract]) {\n            amountToSend = balance[tokenContract];\n        } else {\n            amountToSend = debt.amount;\n        }\n\n        emit DidClose(destination, tokenContract, amountToSend);\n\n        debt.amount = debt.amount.sub(amountToSend);\n        balance[tokenContract] = balance[tokenContract].sub(amountToSend);\n\n        require(token.approve(destination, amountToSend), \"collectDebt: Can not approve token transfer\");\n        other.deposit(tokenContract, amountToSend);\n\n        emit DidCollect(destination, tokenContract, balance[tokenContract]);\n    }\n\n    /// @notice Add debt to contract\n    /// @param _destination Address of creditor\n    /// @param _token Currency of debt\n    /// @param _amount Value of debt\n    /// @param _salt ID of debt between creditor and debtor\n    /// @param _settlementPeriod Time in seconds after that creditor can claim to return debt\n    /// @param _sigDebtor Signature of debtor\n    /// @param _sigCreditor Signature of creditor\n    function addDebt (\n        address payable _destination,\n        address _token,\n        uint256 _amount,\n        uint16 _salt,\n        uint256 _settlementPeriod,\n        bytes memory _sigDebtor,\n        bytes memory _sigCreditor\n    ) public\n    {\n        require(currentState() != State.Dismissed, \"addDebt: Contract is in dismissed state. Can not add new debt\");\n        bytes32 digest = ECDSA.toEthSignedMessageHash(addDebtDigest(_destination, _token, _amount, _settlementPeriod));\n        address recoveredOwner = ECDSA.recover(digest, _sigDebtor);\n        require(isSigner(recoveredOwner), \"addDebt: Should be signed by owner\");\n\n        address recoveredCreditor = ECDSA.recover(digest, _sigCreditor);\n        Holding creditor = Holding(_destination);\n        require(creditor.isSigner(recoveredCreditor), \"addDebt: Should be signed by creditor\");\n\n        bytes32 debtID = debtIdentifier(_destination, _token, _salt);\n\n        require(debts[debtID].collectionAfter == 0, \"addDebt: Can not override existing\");\n\n        debts[debtID] = Debt({\n            destination: _destination,\n            token: _token,\n            amount: _amount,\n            collectionAfter: block.timestamp + _settlementPeriod,\n            salt: _salt\n        });\n\n        _debtsSize = _debtsSize.add(1);\n\n        emit DidAddDebt(_destination, _token, _amount);\n    }\n\n    /// @notice Forgive a debt. Can be called by creditor.\n    /// @param _id ID of debt in debt mapping\n    /// @param _signature Currency of creditor\n    function forgiveDebt (bytes32 _id, bytes memory _signature) public {\n        Debt memory debt = debts[_id];\n        address payable destination = debt.destination;\n        address tokenContract = debt.token;\n        Holding other = Holding(destination);\n        bytes32 digest = ECDSA.toEthSignedMessageHash(forgiveDigest(destination, tokenContract));\n        address recoveredOther = ECDSA.recover(digest, _signature);\n        require(other.isSigner(recoveredOther), \"forgiveDebt: Should be signed by other\");\n\n        delete debts[_id];\n        _debtsSize -= _debtsSize.sub(1);\n\n        _clearingHouse.forgive(_id);\n\n        emit DidForgive(destination, tokenContract, debt.amount);\n    }\n\n    /// @notice Remove a debt.\n    /// @param _id ID of debt.\n    function removeDebt(bytes32 _id) public {\n        bool isCleared = _clearingHouse.isCleared(address(this), _id);\n        bool isFullyRepaid = debts[_id].amount == 0;\n\n        require(debts[_id].collectionAfter != 0, \"removeDebt: Debt with _id does not exists\");\n        require(isCleared || isFullyRepaid, \"removeDebt: Removed debt must be cleared in ClearingHouse OR fully repaid\");\n\n        delete debts[_id];\n\n        emit DidRemoveDebt(_id);\n    }\n\n    function forgiveDigest (address _destination, address _token) public pure returns (bytes32) {\n        return keccak256(abi.encode(\"fo\", _destination, _token));\n    }\n\n    function collectDigest (address _token) public pure returns (bytes32) {\n        return keccak256(abi.encode(\"co\", _token));\n    }\n\n    function withdrawDigest (address _destination, address _token, uint256 _amount) public pure returns (bytes32) {\n        return keccak256(abi.encode(\"wi\", _destination, _token, _amount));\n    }\n\n    function retireDigest (address contractAddress) public pure returns (bytes32) {\n        return keccak256(abi.encode(\"re\", contractAddress));\n    }\n\n    function addDebtDigest (\n        address _destination,\n        address _token,\n        uint256 _amount,\n        uint256 _settlementPeriod\n    ) public pure returns (bytes32)\n    {\n        return keccak256(abi.encode(\"ad\", _destination, _token, _amount, _settlementPeriod));\n    }\n\n    function debtIdentifier (address _destination, address _token, uint16 _salt) public view returns (bytes32) {\n        return keccak256(abi.encode(address(this), _destination, _token, _salt));\n    }\n}\n",
  "sourcePath": "/Users/user/Desktop/projects/debt_channel/packages/contracts/contracts/Holding.sol",
  "compiler": {
    "name": "solc",
    "version": "0.5.0+commit.1d4f565a.Emscripten.clang"
  },
  "schemaVersion": "3.0.1",
  "updatedAt": "2019-02-08T15:31:11.125Z",
  "devdoc": {
    "methods": {
      "addDebt(address,address,uint256,uint16,uint256,bytes,bytes)": {
        "params": {
          "_amount": "Value of debt",
          "_destination": "Address of creditor",
          "_salt": "ID of debt between creditor and debtor",
          "_settlementPeriod": "Time in seconds after that creditor can claim to return debt",
          "_sigCreditor": "Signature of creditor",
          "_sigDebtor": "Signature of debtor",
          "_token": "Currency of debt"
        }
      },
      "collectDebt(bytes32,bytes)": {
        "params": {
          "_id": "ID of debt in debt mapping",
          "_signature": "Signature of debtor of collectDigest"
        }
      },
      "constructor": {
        "params": {
          "clearingHouse": "Address of contract that available to clear debts.",
          "retiringPeriod": "How many time Holding resides in Retire state since retire() method called."
        }
      },
      "currentState()": {
        "return": "{ State.Active OR State.Retire OR State.Dismissed"
      },
      "deposit(address,uint256)": {
        "params": {
          "_amount": "Value of deposit",
          "_token": "Currency of deposit - token address or 0x0 for ETH"
        }
      },
      "forgiveDebt(bytes32,bytes)": {
        "params": {
          "_id": "ID of debt in debt mapping",
          "_signature": "Currency of creditor"
        }
      },
      "removeDebt(bytes32)": {
        "params": {
          "_id": "ID of debt."
        }
      },
      "retire(bytes)": {
        "params": {
          "_signature": "Signature of contract owner"
        }
      },
      "withdraw(address,address,uint256,bytes)": {
        "params": {
          "_amount": "Value of withdraw",
          "_destination": "Destination of tokens or ETH",
          "_signature": "Signature of contract owner (debtor) of withdrawDigest",
          "_token": "Currency of withdraw - address for token, 0x0 for ETH"
        }
      }
    },
    "title": "Holding"
  },
  "userdoc": {
    "methods": {
      "addDebt(address,address,uint256,uint16,uint256,bytes,bytes)": {
        "notice": "Add debt to contract"
      },
      "collectDebt(bytes32,bytes)": {
        "notice": "Claim the debt from debtor"
      },
      "constructor": "Constructs the new \"Holding\" contract.",
      "currentState()": {
        "notice": "Get current contract lifecycle stage."
      },
      "deposit(address,uint256)": {
        "notice": "Add deposit with value _amount in currency _token"
      },
      "forgiveDebt(bytes32,bytes)": {
        "notice": "Forgive a debt. Can be called by creditor."
      },
      "removeDebt(bytes32)": {
        "notice": "Remove a debt."
      },
      "retire(bytes)": {
        "notice": "Prepare contract for termination. Starts a retiring period. After retiring period no new debts could be added. One could only repay the existing debts."
      },
      "stop()": {
        "notice": "Prepare contract for termination. Starts a retiring period."
      },
      "withdraw(address,address,uint256,bytes)": {
        "notice": "Transfer _amount of _token to _destination address."
      }
    }
  }
}