{
  "contractName": "Holding",
  "abi": [
    {
      "constant": true,
      "inputs": [
        {
          "name": "",
          "type": "address"
        },
        {
          "name": "",
          "type": "address"
        }
      ],
      "name": "debts",
      "outputs": [
        {
          "name": "",
          "type": "uint256"
        }
      ],
      "payable": false,
      "stateMutability": "view",
      "type": "function"
    },
    {
      "constant": false,
      "inputs": [],
      "name": "renounceOwnership",
      "outputs": [],
      "payable": false,
      "stateMutability": "nonpayable",
      "type": "function"
    },
    {
      "constant": true,
      "inputs": [
        {
          "name": "account",
          "type": "address"
        }
      ],
      "name": "isSigner",
      "outputs": [
        {
          "name": "",
          "type": "bool"
        }
      ],
      "payable": false,
      "stateMutability": "view",
      "type": "function"
    },
    {
      "constant": true,
      "inputs": [],
      "name": "owner",
      "outputs": [
        {
          "name": "",
          "type": "address"
        }
      ],
      "payable": false,
      "stateMutability": "view",
      "type": "function"
    },
    {
      "constant": true,
      "inputs": [],
      "name": "isOwner",
      "outputs": [
        {
          "name": "",
          "type": "bool"
        }
      ],
      "payable": false,
      "stateMutability": "view",
      "type": "function"
    },
    {
      "constant": false,
      "inputs": [],
      "name": "renounceSigner",
      "outputs": [],
      "payable": false,
      "stateMutability": "nonpayable",
      "type": "function"
    },
    {
      "constant": false,
      "inputs": [
        {
          "name": "account",
          "type": "address"
        }
      ],
      "name": "addSigner",
      "outputs": [],
      "payable": false,
      "stateMutability": "nonpayable",
      "type": "function"
    },
    {
      "constant": false,
      "inputs": [
        {
          "name": "newOwner",
          "type": "address"
        }
      ],
      "name": "transferOwnership",
      "outputs": [],
      "payable": false,
      "stateMutability": "nonpayable",
      "type": "function"
    },
    {
      "constant": true,
      "inputs": [
        {
          "name": "",
          "type": "address"
        }
      ],
      "name": "deposits",
      "outputs": [
        {
          "name": "",
          "type": "uint256"
        }
      ],
      "payable": false,
      "stateMutability": "view",
      "type": "function"
    },
    {
      "anonymous": false,
      "inputs": [
        {
          "indexed": true,
          "name": "token",
          "type": "address"
        },
        {
          "indexed": false,
          "name": "amount",
          "type": "uint256"
        }
      ],
      "name": "DidDeposit",
      "type": "event"
    },
    {
      "anonymous": false,
      "inputs": [
        {
          "indexed": true,
          "name": "destination",
          "type": "address"
        },
        {
          "indexed": true,
          "name": "token",
          "type": "address"
        },
        {
          "indexed": false,
          "name": "amount",
          "type": "uint256"
        }
      ],
      "name": "DidAddDebt",
      "type": "event"
    },
    {
      "anonymous": false,
      "inputs": [
        {
          "indexed": true,
          "name": "account",
          "type": "address"
        }
      ],
      "name": "SignerAdded",
      "type": "event"
    },
    {
      "anonymous": false,
      "inputs": [
        {
          "indexed": true,
          "name": "account",
          "type": "address"
        }
      ],
      "name": "SignerRemoved",
      "type": "event"
    },
    {
      "anonymous": false,
      "inputs": [
        {
          "indexed": true,
          "name": "previousOwner",
          "type": "address"
        },
        {
          "indexed": true,
          "name": "newOwner",
          "type": "address"
        }
      ],
      "name": "OwnershipTransferred",
      "type": "event"
    },
    {
      "constant": false,
      "inputs": [
        {
          "name": "_token",
          "type": "address"
        },
        {
          "name": "_amount",
          "type": "uint256"
        }
      ],
      "name": "deposit",
      "outputs": [],
      "payable": false,
      "stateMutability": "nonpayable",
      "type": "function"
    },
    {
      "constant": false,
      "inputs": [
        {
          "name": "_destination",
          "type": "address"
        },
        {
          "name": "_token",
          "type": "address"
        },
        {
          "name": "_amount",
          "type": "uint256"
        },
        {
          "name": "_sigMine",
          "type": "bytes"
        },
        {
          "name": "_sigOther",
          "type": "bytes"
        }
      ],
      "name": "addDebt",
      "outputs": [],
      "payable": false,
      "stateMutability": "nonpayable",
      "type": "function"
    },
    {
      "constant": true,
      "inputs": [
        {
          "name": "_destination",
          "type": "address"
        },
        {
          "name": "_token",
          "type": "address"
        },
        {
          "name": "_amount",
          "type": "uint256"
        }
      ],
      "name": "addDebtDigest",
      "outputs": [
        {
          "name": "",
          "type": "bytes32"
        }
      ],
      "payable": false,
      "stateMutability": "pure",
      "type": "function"
    }
  ],
  "bytecode": "0x6080604081905260008054600160a060020a0319163317808255600160a060020a0316917f8be0079c531659141344cd1fd0a4f28419497f9722a3daafe3b4186f6b6457e0908290a361005a3364010000000061005f810204565b61013c565b610077600182640100000000610cad6100ae82021704565b604051600160a060020a038216907f47d1c22a25bb3a5d4e481b9b1e6944c2eade3181a0a20b495ed61d35b5323f2490600090a250565b600160a060020a03811615156100c357600080fd5b6100d68282640100000000610105810204565b156100e057600080fd5b600160a060020a0316600090815260209190915260409020805460ff19166001179055565b6000600160a060020a038216151561011c57600080fd5b50600160a060020a03166000908152602091909152604090205460ff1690565b610d278061014b6000396000f3fe6080604052600436106100b3577c0100000000000000000000000000000000000000000000000000000000600035046347e7ef2481146100b85780634ac1c33d146100f3578063715018a61461014057806377b575d8146101555780637df73e27146101985780638da5cb5b146101df5780638f32d59b14610210578063b06f45cc14610225578063e5c8b03d1461037f578063eb12d61e14610394578063f2fde38b146103c7578063fc7e286d146103fa575b600080fd5b3480156100c457600080fd5b506100f1600480360360408110156100db57600080fd5b50600160a060020a03813516906020013561042d565b005b3480156100ff57600080fd5b5061012e6004803603604081101561011657600080fd5b50600160a060020a03813581169160200135166105dd565b60408051918252519081900360200190f35b34801561014c57600080fd5b506100f16105fa565b34801561016157600080fd5b5061012e6004803603606081101561017857600080fd5b50600160a060020a03813581169160208101359091169060400135610664565b3480156101a457600080fd5b506101cb600480360360208110156101bb57600080fd5b5035600160a060020a03166106dd565b604080519115158252519081900360200190f35b3480156101eb57600080fd5b506101f46106f6565b60408051600160a060020a039092168252519081900360200190f35b34801561021c57600080fd5b506101cb610705565b34801561023157600080fd5b506100f1600480360360a081101561024857600080fd5b600160a060020a0382358116926020810135909116916040820135919081019060808101606082013564010000000081111561028357600080fd5b82018360208201111561029557600080fd5b803590602001918460018302840111640100000000831117156102b757600080fd5b91908080601f016020809104026020016040519081016040528093929190818152602001838380828437600092019190915250929594936020810193503591505064010000000081111561030a57600080fd5b82018360208201111561031c57600080fd5b8035906020019184600183028401116401000000008311171561033e57600080fd5b91908080601f016020809104026020016040519081016040528093929190818152602001838380828437600092019190915250929550610716945050505050565b34801561038b57600080fd5b506100f1610984565b3480156103a057600080fd5b506100f1600480360360208110156103b757600080fd5b5035600160a060020a031661098f565b3480156103d357600080fd5b506100f1600480360360208110156103ea57600080fd5b5035600160a060020a03166109af565b34801561040657600080fd5b5061012e6004803603602081101561041d57600080fd5b5035600160a060020a03166109cb565b604080517f23b872dd0000000000000000000000000000000000000000000000000000000081523360048201523060248201526044810183905290518391600160a060020a038316916323b872dd916064808201926020929091908290030181600087803b15801561049e57600080fd5b505af11580156104b2573d6000803e3d6000fd5b505050506040513d60208110156104c857600080fd5b5051151561055d57604080517f08c379a000000000000000000000000000000000000000000000000000000000815260206004820152602860248201527f556e61626c6520746f207472616e7366657220746f6b656e20746f207468652060448201527f636f6e7472616374000000000000000000000000000000000000000000000000606482015290519081900360840190fd5b600160a060020a038316600090815260026020526040902054610586908363ffffffff6109dd16565b600160a060020a038416600081815260026020908152604091829020939093558051858152905191927f67b910fa040657b3d16456bb3485c92024c708a57feebdd18e1fbd5b7d028d9f92918290030190a2505050565b600360209081526000928352604080842090915290825290205481565b610602610705565b151561060d57600080fd5b60008054604051600160a060020a03909116907f8be0079c531659141344cd1fd0a4f28419497f9722a3daafe3b4186f6b6457e0908390a36000805473ffffffffffffffffffffffffffffffffffffffff19169055565b60408051600160a060020a0394851681830152929093166060830152608080830191909152602080830191909152600260a08301527f616400000000000000000000000000000000000000000000000000000000000060c0808401919091528351808403909101815260e0909201909252805191012090565b60006106f060018363ffffffff6109f616565b92915050565b600054600160a060020a031690565b600054600160a060020a0316331490565b600160a060020a0380861660009081526003602090815260408083209388168352929052205461074c908463ffffffff6109dd16565b600160a060020a03808716600090815260036020908152604080832093891683529290529081209190915561078a610785878787610664565b610a2d565b905060006107988285610a7e565b90506107a3816106dd565b151561081057604080517f08c379a000000000000000000000000000000000000000000000000000000000815260206004820152601660248201527f53686f756c64206265207369676e6564206279206d6500000000000000000000604482015290519081900360640190fd5b600061081c8385610a7e565b9050600088905080600160a060020a0316637df73e27836040518263ffffffff167c01000000000000000000000000000000000000000000000000000000000281526004018082600160a060020a0316600160a060020a0316815260200191505060206040518083038186803b15801561089557600080fd5b505afa1580156108a9573d6000803e3d6000fd5b505050506040513d60208110156108bf57600080fd5b5051151561092e57604080517f08c379a000000000000000000000000000000000000000000000000000000000815260206004820152601960248201527f53686f756c64206265207369676e6564206279206f7468657200000000000000604482015290519081900360640190fd5b87600160a060020a031689600160a060020a03167f2d078bdbe31a4f135549319bb8f04e34ce787751d920f5649c307e61e2d8755b896040518082815260200191505060405180910390a3505050505050505050565b61098d33610b54565b565b610998336106dd565b15156109a357600080fd5b6109ac81610b9c565b50565b6109b7610705565b15156109c257600080fd5b6109ac81610be4565b60026020526000908152604090205481565b6000828201838110156109ef57600080fd5b9392505050565b6000600160a060020a0382161515610a0d57600080fd5b50600160a060020a03166000908152602091909152604090205460ff1690565b604080517f19457468657265756d205369676e6564204d6573736167653a0a333200000000602080830191909152603c8083019490945282518083039094018452605c909101909152815191012090565b60008060008084516041141515610a9b57600093505050506106f0565b50505060208201516040830151606084015160001a601b60ff82161015610ac057601b015b8060ff16601b14158015610ad857508060ff16601c14155b15610ae957600093505050506106f0565b6040805160008152602080820180845289905260ff8416828401526060820186905260808201859052915160019260a0808401939192601f1981019281900390910190855afa158015610b40573d6000803e3d6000fd5b5050506020604051035193505050506106f0565b610b6560018263ffffffff610c6116565b604051600160a060020a038216907f3525e22824a8a7df2c9a6029941c824cf95b6447f1e13d5128fd3826d35afe8b90600090a250565b610bad60018263ffffffff610cad16565b604051600160a060020a038216907f47d1c22a25bb3a5d4e481b9b1e6944c2eade3181a0a20b495ed61d35b5323f2490600090a250565b600160a060020a0381161515610bf957600080fd5b60008054604051600160a060020a03808516939216917f8be0079c531659141344cd1fd0a4f28419497f9722a3daafe3b4186f6b6457e091a36000805473ffffffffffffffffffffffffffffffffffffffff1916600160a060020a0392909216919091179055565b600160a060020a0381161515610c7657600080fd5b610c8082826109f6565b1515610c8b57600080fd5b600160a060020a0316600090815260209190915260409020805460ff19169055565b600160a060020a0381161515610cc257600080fd5b610ccc82826109f6565b15610cd657600080fd5b600160a060020a0316600090815260209190915260409020805460ff1916600117905556fea165627a7a7230582080871e19bd01c89f28e6929b9811c4daba02a2edcd4ecc32e4e2c4fe6bbbb5b70029",
  "source": "pragma solidity ^0.5.0;\n\nimport \"./vendor/IERC20.sol\";\nimport \"./vendor/SafeMath.sol\";\nimport \"./vendor/Ownable.sol\";\nimport \"./vendor/SignerRole.sol\";\nimport \"./vendor/ECDSA.sol\";\n\ncontract Holding is Ownable, SignerRole {\n    using SafeMath for uint256;\n\n    mapping (address => uint256) public deposits;\n    mapping (address => mapping (address => uint256)) public debts;\n\n    event DidDeposit(address indexed token, uint256 amount);\n    event DidAddDebt(address indexed destination, address indexed token, uint256 amount);\n\n    function deposit (address _token, uint256 _amount) public {\n        IERC20 token = IERC20(_token);\n        require(token.transferFrom(msg.sender, address(this), _amount), \"Unable to transfer token to the contract\");\n        deposits[_token] = deposits[_token].add(_amount);\n        emit DidDeposit(_token, _amount);\n    }\n\n    function addDebt (address _destination, address _token, uint256 _amount, bytes memory _sigMine, bytes memory _sigOther) public {\n        debts[_destination][_token] = debts[_destination][_token].add(_amount);\n        bytes32 digest = ECDSA.toEthSignedMessageHash(addDebtDigest(_destination, _token, _amount));\n        address recoveredMine = ECDSA.recover(digest, _sigMine);\n        require(isSigner(recoveredMine), \"Should be signed by me\");\n        address recoveredOther = ECDSA.recover(digest, _sigOther);\n        Holding other = Holding(_destination);\n        require(other.isSigner(recoveredOther), \"Should be signed by other\");\n        emit DidAddDebt(_destination, _token, _amount);\n    }\n\n    function addDebtDigest (address _destination, address _token, uint256 _amount) public pure returns (bytes32) {\n        return keccak256(abi.encode('ad', _destination, _token, _amount));\n    }\n}\n",
  "sourcePath": "/Users/ukstv/Desktop/debt_channel/packages/contracts/contracts/Holding.sol",
  "compiler": {
    "name": "solc",
    "version": "0.5.1+commit.c8a2cb62.Emscripten.clang"
  },
  "schemaVersion": "3.0.0-beta.2",
  "updatedAt": "2018-12-08T19:05:50.247Z",
  "devdoc": {
    "methods": {
      "isOwner()": {
        "return": "true if `msg.sender` is the owner of the contract."
      },
      "owner()": {
        "return": "the address of the owner."
      },
      "renounceOwnership()": {
        "details": "Allows the current owner to relinquish control of the contract."
      },
      "transferOwnership(address)": {
        "details": "Allows the current owner to transfer control of the contract to a newOwner.",
        "params": {
          "newOwner": "The address to transfer ownership to."
        }
      }
    }
  },
  "userdoc": {
    "methods": {
      "renounceOwnership()": {
        "notice": "Renouncing to ownership will leave the contract without an owner. It will not be possible to call the functions with the `onlyOwner` modifier anymore."
      }
    }
  }
}