{
  "contractName": "Holding",
  "abi": [
    {
      "constant": true,
      "inputs": [
        {
          "name": "",
          "type": "address"
        },
        {
          "name": "",
          "type": "address"
        }
      ],
      "name": "debts",
      "outputs": [
        {
          "name": "nonce",
          "type": "uint32"
        },
        {
          "name": "collectionAfter",
          "type": "uint256"
        },
        {
          "name": "amount",
          "type": "uint256"
        }
      ],
      "payable": false,
      "stateMutability": "view",
      "type": "function"
    },
    {
      "constant": false,
      "inputs": [],
      "name": "renounceOwnership",
      "outputs": [],
      "payable": false,
      "stateMutability": "nonpayable",
      "type": "function"
    },
    {
      "constant": true,
      "inputs": [
        {
          "name": "account",
          "type": "address"
        }
      ],
      "name": "isSigner",
      "outputs": [
        {
          "name": "",
          "type": "bool"
        }
      ],
      "payable": false,
      "stateMutability": "view",
      "type": "function"
    },
    {
      "constant": true,
      "inputs": [],
      "name": "owner",
      "outputs": [
        {
          "name": "",
          "type": "address"
        }
      ],
      "payable": false,
      "stateMutability": "view",
      "type": "function"
    },
    {
      "constant": true,
      "inputs": [],
      "name": "isOwner",
      "outputs": [
        {
          "name": "",
          "type": "bool"
        }
      ],
      "payable": false,
      "stateMutability": "view",
      "type": "function"
    },
    {
      "constant": false,
      "inputs": [],
      "name": "renounceSigner",
      "outputs": [],
      "payable": false,
      "stateMutability": "nonpayable",
      "type": "function"
    },
    {
      "constant": false,
      "inputs": [
        {
          "name": "account",
          "type": "address"
        }
      ],
      "name": "addSigner",
      "outputs": [],
      "payable": false,
      "stateMutability": "nonpayable",
      "type": "function"
    },
    {
      "constant": false,
      "inputs": [
        {
          "name": "newOwner",
          "type": "address"
        }
      ],
      "name": "transferOwnership",
      "outputs": [],
      "payable": false,
      "stateMutability": "nonpayable",
      "type": "function"
    },
    {
      "constant": true,
      "inputs": [
        {
          "name": "",
          "type": "address"
        }
      ],
      "name": "deposits",
      "outputs": [
        {
          "name": "",
          "type": "uint256"
        }
      ],
      "payable": false,
      "stateMutability": "view",
      "type": "function"
    },
    {
      "anonymous": false,
      "inputs": [
        {
          "indexed": true,
          "name": "token",
          "type": "address"
        },
        {
          "indexed": false,
          "name": "amount",
          "type": "uint256"
        }
      ],
      "name": "DidDeposit",
      "type": "event"
    },
    {
      "anonymous": false,
      "inputs": [
        {
          "indexed": true,
          "name": "destination",
          "type": "address"
        },
        {
          "indexed": true,
          "name": "token",
          "type": "address"
        },
        {
          "indexed": false,
          "name": "amount",
          "type": "uint256"
        }
      ],
      "name": "DidAddDebt",
      "type": "event"
    },
    {
      "anonymous": false,
      "inputs": [
        {
          "indexed": true,
          "name": "account",
          "type": "address"
        }
      ],
      "name": "SignerAdded",
      "type": "event"
    },
    {
      "anonymous": false,
      "inputs": [
        {
          "indexed": true,
          "name": "account",
          "type": "address"
        }
      ],
      "name": "SignerRemoved",
      "type": "event"
    },
    {
      "anonymous": false,
      "inputs": [
        {
          "indexed": true,
          "name": "previousOwner",
          "type": "address"
        },
        {
          "indexed": true,
          "name": "newOwner",
          "type": "address"
        }
      ],
      "name": "OwnershipTransferred",
      "type": "event"
    },
    {
      "constant": false,
      "inputs": [
        {
          "name": "_token",
          "type": "address"
        },
        {
          "name": "_amount",
          "type": "uint256"
        }
      ],
      "name": "deposit",
      "outputs": [],
      "payable": false,
      "stateMutability": "nonpayable",
      "type": "function"
    },
    {
      "constant": false,
      "inputs": [
        {
          "name": "_destination",
          "type": "address"
        },
        {
          "name": "_token",
          "type": "address"
        },
        {
          "name": "_amount",
          "type": "uint256"
        },
        {
          "name": "_nonce",
          "type": "uint32"
        },
        {
          "name": "_collectionAfter",
          "type": "uint256"
        },
        {
          "name": "_sigMine",
          "type": "bytes"
        },
        {
          "name": "_sigOther",
          "type": "bytes"
        }
      ],
      "name": "addDebt",
      "outputs": [],
      "payable": false,
      "stateMutability": "nonpayable",
      "type": "function"
    },
    {
      "constant": true,
      "inputs": [
        {
          "name": "_destination",
          "type": "address"
        },
        {
          "name": "_token",
          "type": "address"
        },
        {
          "name": "_amount",
          "type": "uint256"
        },
        {
          "name": "_nonce",
          "type": "uint32"
        },
        {
          "name": "_collectionAfter",
          "type": "uint256"
        }
      ],
      "name": "addDebtDigest",
      "outputs": [
        {
          "name": "",
          "type": "bytes32"
        }
      ],
      "payable": false,
      "stateMutability": "pure",
      "type": "function"
    },
    {
      "constant": true,
      "inputs": [
        {
          "name": "_destination",
          "type": "address"
        },
        {
          "name": "_token",
          "type": "address"
        },
        {
          "name": "_nonce",
          "type": "uint32"
        }
      ],
      "name": "canAddDebt",
      "outputs": [
        {
          "name": "",
          "type": "bool"
        }
      ],
      "payable": false,
      "stateMutability": "view",
      "type": "function"
    }
  ],
  "bytecode": "0x6080604081905260008054600160a060020a0319163317808255600160a060020a0316917f8be0079c531659141344cd1fd0a4f28419497f9722a3daafe3b4186f6b6457e0908290a361005a3364010000000061005f810204565b61013c565b610077600182640100000000610e746100ae82021704565b604051600160a060020a038216907f47d1c22a25bb3a5d4e481b9b1e6944c2eade3181a0a20b495ed61d35b5323f2490600090a250565b600160a060020a03811615156100c357600080fd5b6100d68282640100000000610105810204565b156100e057600080fd5b600160a060020a0316600090815260209190915260409020805460ff19166001179055565b6000600160a060020a038216151561011c57600080fd5b50600160a060020a03166000908152602091909152604090205460ff1690565b610f168061014b6000396000f3fe6080604052600436106100be577c010000000000000000000000000000000000000000000000000000000060003504631ad3982b81146100c357806347e7ef241461012a5780634ac1c33d14610165578063715018a6146101c55780637df73e27146101da5780638cb1108b146102215780638da5cb5b1461038d5780638f32d59b146103be578063bfe3d896146103d3578063e5c8b03d1461041d578063eb12d61e14610432578063f2fde38b14610465578063fc7e286d14610498575b600080fd5b3480156100cf57600080fd5b50610118600480360360a08110156100e657600080fd5b50600160a060020a03813581169160208101359091169060408101359063ffffffff60608201351690608001356104cb565b60408051918252519081900360200190f35b34801561013657600080fd5b506101636004803603604081101561014d57600080fd5b50600160a060020a038135169060200135610559565b005b34801561017157600080fd5b506101a06004803603604081101561018857600080fd5b50600160a060020a03813581169160200135166106f2565b6040805163ffffffff9094168452602084019290925282820152519081900360600190f35b3480156101d157600080fd5b50610163610725565b3480156101e657600080fd5b5061020d600480360360208110156101fd57600080fd5b5035600160a060020a031661078f565b604080519115158252519081900360200190f35b34801561022d57600080fd5b50610163600480360360e081101561024457600080fd5b600160a060020a03823581169260208101359091169160408201359163ffffffff606082013516916080820135919081019060c0810160a082013564010000000081111561029157600080fd5b8201836020820111156102a357600080fd5b803590602001918460018302840111640100000000831117156102c557600080fd5b91908080601f016020809104026020016040519081016040528093929190818152602001838380828437600092019190915250929594936020810193503591505064010000000081111561031857600080fd5b82018360208201111561032a57600080fd5b8035906020019184600183028401116401000000008311171561034c57600080fd5b91908080601f0160208091040260200160405190810160405280939291908181526020018383808284376000920191909152509295506107a8945050505050565b34801561039957600080fd5b506103a2610a96565b60408051600160a060020a039092168252519081900360200190f35b3480156103ca57600080fd5b5061020d610aa5565b3480156103df57600080fd5b5061020d600480360360608110156103f657600080fd5b508035600160a060020a03908116916020810135909116906040013563ffffffff16610ab6565b34801561042957600080fd5b50610163610b52565b34801561043e57600080fd5b506101636004803603602081101561045557600080fd5b5035600160a060020a0316610b5d565b34801561047157600080fd5b506101636004803603602081101561048857600080fd5b5035600160a060020a0316610b7d565b3480156104a457600080fd5b50610118600480360360208110156104bb57600080fd5b5035600160a060020a0316610b99565b60408051600160a060020a0396871681830152949095166060850152608084019290925263ffffffff1660a083015260c080830191909152602080830191909152600260e08301527f61640000000000000000000000000000000000000000000000000000000000006101008084019190915283518084039091018152610120909201909252805191012090565b604080517f23b872dd0000000000000000000000000000000000000000000000000000000081523360048201523060248201526044810183905290518391600160a060020a038316916323b872dd916064808201926020929091908290030181600087803b1580156105ca57600080fd5b505af11580156105de573d6000803e3d6000fd5b505050506040513d60208110156105f457600080fd5b50511515610672576040805160e560020a62461bcd02815260206004820152602860248201527f556e61626c6520746f207472616e7366657220746f6b656e20746f207468652060448201527f636f6e7472616374000000000000000000000000000000000000000000000000606482015290519081900360840190fd5b600160a060020a03831660009081526002602052604090205461069b908363ffffffff610bab16565b600160a060020a038416600081815260026020908152604091829020939093558051858152905191927f67b910fa040657b3d16456bb3485c92024c708a57feebdd18e1fbd5b7d028d9f92918290030190a2505050565b600360209081526000928352604080842090915290825290208054600182015460029092015463ffffffff909116919083565b61072d610aa5565b151561073857600080fd5b60008054604051600160a060020a03909116907f8be0079c531659141344cd1fd0a4f28419497f9722a3daafe3b4186f6b6457e0908390a36000805473ffffffffffffffffffffffffffffffffffffffff19169055565b60006107a260018363ffffffff610bbd16565b92915050565b60006107bf6107ba89898989896104cb565b610bf4565b905060006107cd8285610c45565b90506107d88161078f565b151561082e576040805160e560020a62461bcd02815260206004820152601660248201527f53686f756c64206265207369676e6564206279206d6500000000000000000000604482015290519081900360640190fd5b600061083a8385610c45565b905060008a905080600160a060020a0316637df73e27836040518263ffffffff167c01000000000000000000000000000000000000000000000000000000000281526004018082600160a060020a0316600160a060020a0316815260200191505060206040518083038186803b1580156108b357600080fd5b505afa1580156108c7573d6000803e3d6000fd5b505050506040513d60208110156108dd57600080fd5b50511515610935576040805160e560020a62461bcd02815260206004820152601960248201527f53686f756c64206265207369676e6564206279206f7468657200000000000000604482015290519081900360640190fd5b6109408b8b8a610ab6565b1515610996576040805160e560020a62461bcd02815260206004820152601960248201527f43616e206e6f74206f76657272696465206578697374696e6700000000000000604482015290519081900360640190fd5b6060604051908101604052808963ffffffff1681526020018881526020018a815250600360008d600160a060020a0316600160a060020a0316815260200190815260200160002060008c600160a060020a0316600160a060020a0316815260200190815260200160002060008201518160000160006101000a81548163ffffffff021916908363ffffffff160217905550602082015181600101556040820151816002015590505089600160a060020a03168b600160a060020a03167f2d078bdbe31a4f135549319bb8f04e34ce787751d920f5649c307e61e2d8755b8b6040518082815260200191505060405180910390a35050505050505050505050565b600054600160a060020a031690565b600054600160a060020a0316331490565b6000610ac0610ec2565b50600160a060020a0380851660009081526003602090815260408083209387168352928152908290208251606081018452815463ffffffff16808252600183015493820193909352600290910154928101929092521515610b25576001915050610b4b565b806000015163ffffffff168363ffffffff16118015610b475750806020015142105b9150505b9392505050565b610b5b33610d1b565b565b610b663361078f565b1515610b7157600080fd5b610b7a81610d63565b50565b610b85610aa5565b1515610b9057600080fd5b610b7a81610dab565b60026020526000908152604090205481565b600082820183811015610b4b57600080fd5b6000600160a060020a0382161515610bd457600080fd5b50600160a060020a03166000908152602091909152604090205460ff1690565b604080517f19457468657265756d205369676e6564204d6573736167653a0a333200000000602080830191909152603c8083019490945282518083039094018452605c909101909152815191012090565b60008060008084516041141515610c6257600093505050506107a2565b50505060208201516040830151606084015160001a601b60ff82161015610c8757601b015b8060ff16601b14158015610c9f57508060ff16601c14155b15610cb057600093505050506107a2565b6040805160008152602080820180845289905260ff8416828401526060820186905260808201859052915160019260a0808401939192601f1981019281900390910190855afa158015610d07573d6000803e3d6000fd5b5050506020604051035193505050506107a2565b610d2c60018263ffffffff610e2816565b604051600160a060020a038216907f3525e22824a8a7df2c9a6029941c824cf95b6447f1e13d5128fd3826d35afe8b90600090a250565b610d7460018263ffffffff610e7416565b604051600160a060020a038216907f47d1c22a25bb3a5d4e481b9b1e6944c2eade3181a0a20b495ed61d35b5323f2490600090a250565b600160a060020a0381161515610dc057600080fd5b60008054604051600160a060020a03808516939216917f8be0079c531659141344cd1fd0a4f28419497f9722a3daafe3b4186f6b6457e091a36000805473ffffffffffffffffffffffffffffffffffffffff1916600160a060020a0392909216919091179055565b600160a060020a0381161515610e3d57600080fd5b610e478282610bbd565b1515610e5257600080fd5b600160a060020a0316600090815260209190915260409020805460ff19169055565b600160a060020a0381161515610e8957600080fd5b610e938282610bbd565b15610e9d57600080fd5b600160a060020a0316600090815260209190915260409020805460ff19166001179055565b606060405190810160405280600063ffffffff1681526020016000815260200160008152509056fea165627a7a723058200557847f5e8b83310042615e2312e0eb64a9aa03b2fc34400831e807eb12b86a0029",
  "source": "pragma solidity ^0.5.0;\n\nimport \"./vendor/IERC20.sol\";\nimport \"./vendor/SafeMath.sol\";\nimport \"./vendor/Ownable.sol\";\nimport \"./vendor/SignerRole.sol\";\nimport \"./vendor/ECDSA.sol\";\n\ncontract Holding is Ownable, SignerRole {\n    using SafeMath for uint256;\n\n    struct Debt {\n        uint32 nonce;\n        uint256 collectionAfter;\n        uint256 amount;\n    }\n\n    mapping (address => uint256) public deposits;\n    mapping (address => mapping (address => Debt)) public debts;\n\n    event DidDeposit(address indexed token, uint256 amount);\n    event DidAddDebt(address indexed destination, address indexed token, uint256 amount);\n\n    function deposit (address _token, uint256 _amount) public {\n        IERC20 token = IERC20(_token);\n        require(token.transferFrom(msg.sender, address(this), _amount), \"Unable to transfer token to the contract\");\n        deposits[_token] = deposits[_token].add(_amount);\n        emit DidDeposit(_token, _amount);\n    }\n\n    function addDebt (\n        address _destination,\n        address _token,\n        uint256 _amount,\n        uint32 _nonce,\n        uint256 _collectionAfter,\n        bytes memory _sigMine,\n        bytes memory _sigOther\n    ) public {\n        bytes32 digest = ECDSA.toEthSignedMessageHash(addDebtDigest(_destination, _token, _amount, _nonce, _collectionAfter));\n        address recoveredMine = ECDSA.recover(digest, _sigMine);\n        require(isSigner(recoveredMine), \"Should be signed by me\");\n\n        address recoveredOther = ECDSA.recover(digest, _sigOther);\n        Holding other = Holding(_destination);\n        require(other.isSigner(recoveredOther), \"Should be signed by other\");\n\n        require(canAddDebt(_destination, _token, _nonce), \"Can not override existing\");\n\n        debts[_destination][_token] = Debt({\n            nonce: _nonce,\n            amount: _amount,\n            collectionAfter: _collectionAfter\n        });\n\n        emit DidAddDebt(_destination, _token, _amount);\n    }\n\n    function addDebtDigest (\n        address _destination,\n        address _token,\n        uint256 _amount,\n        uint32 _nonce,\n        uint256 _collectionAfter\n    ) public pure returns (bytes32) {\n        return keccak256(abi.encode('ad', _destination, _token, _amount, _nonce, _collectionAfter));\n    }\n\n    function canAddDebt (address _destination, address _token, uint32 _nonce) public view returns (bool) {\n        Debt memory current = debts[_destination][_token];\n        if (current.nonce == 0) {\n            return true;\n        } else {\n            return _nonce > current.nonce && now < current.collectionAfter;\n        }\n    }\n}\n",
  "sourcePath": "/Users/ukstv/Desktop/debt_channel/packages/contracts/contracts/Holding.sol",
  "compiler": {
    "name": "solc",
    "version": "0.5.1+commit.c8a2cb62.Emscripten.clang"
  },
  "schemaVersion": "3.0.0-beta.2",
  "updatedAt": "2018-12-08T20:33:39.074Z",
  "devdoc": {
    "methods": {
      "isOwner()": {
        "return": "true if `msg.sender` is the owner of the contract."
      },
      "owner()": {
        "return": "the address of the owner."
      },
      "renounceOwnership()": {
        "details": "Allows the current owner to relinquish control of the contract."
      },
      "transferOwnership(address)": {
        "details": "Allows the current owner to transfer control of the contract to a newOwner.",
        "params": {
          "newOwner": "The address to transfer ownership to."
        }
      }
    }
  },
  "userdoc": {
    "methods": {
      "renounceOwnership()": {
        "notice": "Renouncing to ownership will leave the contract without an owner. It will not be possible to call the functions with the `onlyOwner` modifier anymore."
      }
    }
  }
}