{
  "contractName": "Holding",
  "abi": [
    {
      "constant": true,
      "inputs": [
        {
          "name": "",
          "type": "address"
        }
      ],
      "name": "deposits",
      "outputs": [
        {
          "name": "",
          "type": "uint256"
        }
      ],
      "payable": false,
      "stateMutability": "view",
      "type": "function"
    },
    {
      "inputs": [],
      "payable": false,
      "stateMutability": "nonpayable",
      "type": "constructor"
    },
    {
      "anonymous": false,
      "inputs": [
        {
          "indexed": true,
          "name": "token",
          "type": "address"
        },
        {
          "indexed": false,
          "name": "amount",
          "type": "uint256"
        }
      ],
      "name": "DidDeposit",
      "type": "event"
    },
    {
      "constant": false,
      "inputs": [
        {
          "name": "_token",
          "type": "address"
        },
        {
          "name": "_amount",
          "type": "uint256"
        }
      ],
      "name": "deposit",
      "outputs": [],
      "payable": false,
      "stateMutability": "nonpayable",
      "type": "function"
    }
  ],
  "bytecode": "0x608060405234801561001057600080fd5b50610310806100206000396000f3fe608060405260043610610045577c0100000000000000000000000000000000000000000000000000000000600035046347e7ef24811461004a578063fc7e286d14610092575b600080fd5b34801561005657600080fd5b506100906004803603604081101561006d57600080fd5b5073ffffffffffffffffffffffffffffffffffffffff81351690602001356100e4565b005b34801561009e57600080fd5b506100d2600480360360208110156100b557600080fd5b503573ffffffffffffffffffffffffffffffffffffffff166102b9565b60408051918252519081900360200190f35b604080517f23b872dd000000000000000000000000000000000000000000000000000000008152336004820152306024820152604481018390529051839173ffffffffffffffffffffffffffffffffffffffff8316916323b872dd916064808201926020929091908290030181600087803b15801561016257600080fd5b505af1158015610176573d6000803e3d6000fd5b505050506040513d602081101561018c57600080fd5b5051151561022157604080517f08c379a000000000000000000000000000000000000000000000000000000000815260206004820152602860248201527f556e61626c6520746f207472616e7366657220746f6b656e20746f207468652060448201527f636f6e7472616374000000000000000000000000000000000000000000000000606482015290519081900360840190fd5b73ffffffffffffffffffffffffffffffffffffffff8316600090815260208190526040902054610257908363ffffffff6102cb16565b73ffffffffffffffffffffffffffffffffffffffff841660008181526020818152604091829020939093558051858152905191927f67b910fa040657b3d16456bb3485c92024c708a57feebdd18e1fbd5b7d028d9f92918290030190a2505050565b60006020819052908152604090205481565b6000828201838110156102dd57600080fd5b939250505056fea165627a7a72305820cf0212617d3bdb90d1fa39b110bc0d943e62c9d6d24547e95de01c9b24f6d7440029",
  "source": "pragma solidity ^0.5.0;\n\nimport \"./vendor/IERC20.sol\";\nimport \"./vendor/SafeMath.sol\";\n\ncontract Holding {\n    using SafeMath for uint256;\n\n    mapping (address => uint256) public deposits;\n\n    event DidDeposit(address indexed token, uint256 amount);\n\n    constructor() public {\n        // Empty\n    }\n\n    function deposit (address _token, uint256 _amount) public {\n        IERC20 token = IERC20(_token);\n        require(token.transferFrom(msg.sender, address(this), _amount), \"Unable to transfer token to the contract\");\n        deposits[_token] = deposits[_token].add(_amount);\n        emit DidDeposit(_token, _amount);\n    }\n}\n",
  "sourcePath": "/Users/ukstv/Desktop/debt_channel/packages/contracts/contracts/Holding.sol",
  "compiler": {
    "name": "solc",
    "version": "0.5.1+commit.c8a2cb62.Emscripten.clang"
  },
  "schemaVersion": "3.0.0-beta.2",
  "updatedAt": "2018-12-08T11:39:13.331Z",
  "devdoc": {
    "methods": {}
  },
  "userdoc": {
    "methods": {}
  }
}