{
  "contractName": "Holding",
  "abi": [
    {
      "constant": false,
      "inputs": [
        {
          "name": "_newOwner",
          "type": "address"
        },
        {
          "name": "_signature",
          "type": "bytes"
        }
      ],
      "name": "addOwner",
      "outputs": [],
      "payable": false,
      "stateMutability": "nonpayable",
      "type": "function"
    },
    {
      "constant": true,
      "inputs": [
        {
          "name": "_newOwner",
          "type": "address"
        }
      ],
      "name": "addOwnerDigest",
      "outputs": [
        {
          "name": "",
          "type": "bytes32"
        }
      ],
      "payable": false,
      "stateMutability": "view",
      "type": "function"
    },
    {
      "constant": true,
      "inputs": [
        {
          "name": "_address",
          "type": "address"
        }
      ],
      "name": "isOwner",
      "outputs": [
        {
          "name": "",
          "type": "bool"
        }
      ],
      "payable": false,
      "stateMutability": "view",
      "type": "function"
    },
    {
      "constant": false,
      "inputs": [
        {
          "name": "_newSigner",
          "type": "address"
        },
        {
          "name": "_signature",
          "type": "bytes"
        }
      ],
      "name": "addSigner",
      "outputs": [],
      "payable": false,
      "stateMutability": "nonpayable",
      "type": "function"
    },
    {
      "constant": true,
      "inputs": [
        {
          "name": "_signer",
          "type": "address"
        }
      ],
      "name": "removeSignerDigest",
      "outputs": [
        {
          "name": "",
          "type": "bytes32"
        }
      ],
      "payable": false,
      "stateMutability": "view",
      "type": "function"
    },
    {
      "constant": true,
      "inputs": [
        {
          "name": "_address",
          "type": "address"
        }
      ],
      "name": "isSigner",
      "outputs": [
        {
          "name": "",
          "type": "bool"
        }
      ],
      "payable": false,
      "stateMutability": "view",
      "type": "function"
    },
    {
      "constant": false,
      "inputs": [
        {
          "name": "_signer",
          "type": "address"
        },
        {
          "name": "_signature",
          "type": "bytes"
        }
      ],
      "name": "removeSigner",
      "outputs": [],
      "payable": false,
      "stateMutability": "nonpayable",
      "type": "function"
    },
    {
      "constant": true,
      "inputs": [
        {
          "name": "_owner",
          "type": "address"
        }
      ],
      "name": "removeOwnerDigest",
      "outputs": [
        {
          "name": "",
          "type": "bytes32"
        }
      ],
      "payable": false,
      "stateMutability": "view",
      "type": "function"
    },
    {
      "constant": true,
      "inputs": [],
      "name": "_debtsSize",
      "outputs": [
        {
          "name": "",
          "type": "uint256"
        }
      ],
      "payable": false,
      "stateMutability": "view",
      "type": "function"
    },
    {
      "constant": true,
      "inputs": [
        {
          "name": "",
          "type": "bytes32"
        }
      ],
      "name": "debts",
      "outputs": [
        {
          "name": "destination",
          "type": "address"
        },
        {
          "name": "token",
          "type": "address"
        },
        {
          "name": "collectionAfter",
          "type": "uint256"
        },
        {
          "name": "amount",
          "type": "uint256"
        },
        {
          "name": "salt",
          "type": "uint16"
        }
      ],
      "payable": false,
      "stateMutability": "view",
      "type": "function"
    },
    {
      "constant": true,
      "inputs": [],
      "name": "_retiringPeriod",
      "outputs": [
        {
          "name": "",
          "type": "uint256"
        }
      ],
      "payable": false,
      "stateMutability": "view",
      "type": "function"
    },
    {
      "constant": false,
      "inputs": [
        {
          "name": "_owner",
          "type": "address"
        },
        {
          "name": "_signature",
          "type": "bytes"
        }
      ],
      "name": "removeOwner",
      "outputs": [],
      "payable": false,
      "stateMutability": "nonpayable",
      "type": "function"
    },
    {
      "constant": true,
      "inputs": [],
      "name": "_balanceSize",
      "outputs": [
        {
          "name": "",
          "type": "uint256"
        }
      ],
      "payable": false,
      "stateMutability": "view",
      "type": "function"
    },
    {
      "constant": true,
      "inputs": [
        {
          "name": "_newSigner",
          "type": "address"
        }
      ],
      "name": "addSignerDigest",
      "outputs": [
        {
          "name": "",
          "type": "bytes32"
        }
      ],
      "payable": false,
      "stateMutability": "view",
      "type": "function"
    },
    {
      "constant": true,
      "inputs": [],
      "name": "_clearingHouse",
      "outputs": [
        {
          "name": "",
          "type": "address"
        }
      ],
      "payable": false,
      "stateMutability": "view",
      "type": "function"
    },
    {
      "constant": true,
      "inputs": [
        {
          "name": "",
          "type": "address"
        }
      ],
      "name": "balance",
      "outputs": [
        {
          "name": "",
          "type": "uint256"
        }
      ],
      "payable": false,
      "stateMutability": "view",
      "type": "function"
    },
    {
      "constant": true,
      "inputs": [],
      "name": "_retiringUntil",
      "outputs": [
        {
          "name": "",
          "type": "uint256"
        }
      ],
      "payable": false,
      "stateMutability": "view",
      "type": "function"
    },
    {
      "constant": true,
      "inputs": [],
      "name": "_currentState",
      "outputs": [
        {
          "name": "",
          "type": "uint8"
        }
      ],
      "payable": false,
      "stateMutability": "view",
      "type": "function"
    },
    {
      "inputs": [
        {
          "name": "retiringPeriod",
          "type": "uint256"
        },
        {
          "name": "clearingHouse",
          "type": "address"
        }
      ],
      "payable": false,
      "stateMutability": "nonpayable",
      "type": "constructor"
    },
    {
      "anonymous": false,
      "inputs": [
        {
          "indexed": true,
          "name": "token",
          "type": "address"
        },
        {
          "indexed": false,
          "name": "amount",
          "type": "uint256"
        }
      ],
      "name": "DidDeposit",
      "type": "event"
    },
    {
      "anonymous": false,
      "inputs": [
        {
          "indexed": true,
          "name": "destination",
          "type": "address"
        },
        {
          "indexed": true,
          "name": "token",
          "type": "address"
        },
        {
          "indexed": false,
          "name": "amount",
          "type": "uint256"
        }
      ],
      "name": "DidAddDebt",
      "type": "event"
    },
    {
      "anonymous": false,
      "inputs": [
        {
          "indexed": true,
          "name": "destination",
          "type": "address"
        },
        {
          "indexed": true,
          "name": "token",
          "type": "address"
        },
        {
          "indexed": false,
          "name": "amount",
          "type": "uint256"
        }
      ],
      "name": "DidCollect",
      "type": "event"
    },
    {
      "anonymous": false,
      "inputs": [
        {
          "indexed": true,
          "name": "destination",
          "type": "address"
        },
        {
          "indexed": true,
          "name": "token",
          "type": "address"
        },
        {
          "indexed": false,
          "name": "amount",
          "type": "uint256"
        }
      ],
      "name": "DidClose",
      "type": "event"
    },
    {
      "anonymous": false,
      "inputs": [
        {
          "indexed": true,
          "name": "destination",
          "type": "address"
        },
        {
          "indexed": true,
          "name": "token",
          "type": "address"
        },
        {
          "indexed": false,
          "name": "amount",
          "type": "uint256"
        }
      ],
      "name": "DidWithdraw",
      "type": "event"
    },
    {
      "anonymous": false,
      "inputs": [
        {
          "indexed": true,
          "name": "destination",
          "type": "address"
        },
        {
          "indexed": true,
          "name": "token",
          "type": "address"
        },
        {
          "indexed": false,
          "name": "amount",
          "type": "uint256"
        }
      ],
      "name": "DidForgive",
      "type": "event"
    },
    {
      "anonymous": false,
      "inputs": [],
      "name": "DidRetired",
      "type": "event"
    },
    {
      "anonymous": false,
      "inputs": [],
      "name": "DidStop",
      "type": "event"
    },
    {
      "anonymous": false,
      "inputs": [
        {
          "indexed": true,
          "name": "account",
          "type": "address"
        }
      ],
      "name": "SignerAdded",
      "type": "event"
    },
    {
      "anonymous": false,
      "inputs": [
        {
          "indexed": true,
          "name": "account",
          "type": "address"
        }
      ],
      "name": "SignerRemoved",
      "type": "event"
    },
    {
      "constant": false,
      "inputs": [],
      "name": "currentState",
      "outputs": [
        {
          "name": "",
          "type": "uint8"
        }
      ],
      "payable": false,
      "stateMutability": "nonpayable",
      "type": "function"
    },
    {
      "constant": false,
      "inputs": [
        {
          "name": "_signature",
          "type": "bytes"
        }
      ],
      "name": "retire",
      "outputs": [],
      "payable": false,
      "stateMutability": "nonpayable",
      "type": "function"
    },
    {
      "constant": false,
      "inputs": [],
      "name": "stop",
      "outputs": [],
      "payable": false,
      "stateMutability": "nonpayable",
      "type": "function"
    },
    {
      "constant": false,
      "inputs": [
        {
          "name": "_token",
          "type": "address"
        },
        {
          "name": "_amount",
          "type": "uint256"
        }
      ],
      "name": "deposit",
      "outputs": [],
      "payable": false,
      "stateMutability": "nonpayable",
      "type": "function"
    },
    {
      "constant": false,
      "inputs": [
        {
          "name": "_destination",
          "type": "address"
        },
        {
          "name": "_token",
          "type": "address"
        },
        {
          "name": "_amount",
          "type": "uint256"
        },
        {
          "name": "_signature",
          "type": "bytes"
        }
      ],
      "name": "withdraw",
      "outputs": [],
      "payable": false,
      "stateMutability": "nonpayable",
      "type": "function"
    },
    {
      "constant": false,
      "inputs": [
        {
          "name": "_id",
          "type": "bytes32"
        },
        {
          "name": "_signature",
          "type": "bytes"
        }
      ],
      "name": "collectDebt",
      "outputs": [],
      "payable": false,
      "stateMutability": "nonpayable",
      "type": "function"
    },
    {
      "constant": false,
      "inputs": [
        {
          "name": "_destination",
          "type": "address"
        },
        {
          "name": "_token",
          "type": "address"
        },
        {
          "name": "_amount",
          "type": "uint256"
        },
        {
          "name": "_salt",
          "type": "uint16"
        },
        {
          "name": "_settlementPeriod",
          "type": "uint256"
        },
        {
          "name": "_sigDebtor",
          "type": "bytes"
        },
        {
          "name": "_sigCreditor",
          "type": "bytes"
        }
      ],
      "name": "addDebt",
      "outputs": [],
      "payable": false,
      "stateMutability": "nonpayable",
      "type": "function"
    },
    {
      "constant": false,
      "inputs": [
        {
          "name": "_id",
          "type": "bytes32"
        },
        {
          "name": "_signature",
          "type": "bytes"
        }
      ],
      "name": "forgiveDebt",
      "outputs": [],
      "payable": false,
      "stateMutability": "nonpayable",
      "type": "function"
    },
    {
      "constant": true,
      "inputs": [
        {
          "name": "_destination",
          "type": "address"
        },
        {
          "name": "_token",
          "type": "address"
        }
      ],
      "name": "forgiveDigest",
      "outputs": [
        {
          "name": "",
          "type": "bytes32"
        }
      ],
      "payable": false,
      "stateMutability": "pure",
      "type": "function"
    },
    {
      "constant": true,
      "inputs": [
        {
          "name": "_token",
          "type": "address"
        }
      ],
      "name": "collectDigest",
      "outputs": [
        {
          "name": "",
          "type": "bytes32"
        }
      ],
      "payable": false,
      "stateMutability": "pure",
      "type": "function"
    },
    {
      "constant": true,
      "inputs": [
        {
          "name": "_destination",
          "type": "address"
        },
        {
          "name": "_token",
          "type": "address"
        },
        {
          "name": "_amount",
          "type": "uint256"
        }
      ],
      "name": "withdrawDigest",
      "outputs": [
        {
          "name": "",
          "type": "bytes32"
        }
      ],
      "payable": false,
      "stateMutability": "pure",
      "type": "function"
    },
    {
      "constant": true,
      "inputs": [
        {
          "name": "contractAddress",
          "type": "address"
        }
      ],
      "name": "retireDigest",
      "outputs": [
        {
          "name": "",
          "type": "bytes32"
        }
      ],
      "payable": false,
      "stateMutability": "pure",
      "type": "function"
    },
    {
      "constant": true,
      "inputs": [
        {
          "name": "_destination",
          "type": "address"
        },
        {
          "name": "_token",
          "type": "address"
        },
        {
          "name": "_amount",
          "type": "uint256"
        },
        {
          "name": "_settlementPeriod",
          "type": "uint256"
        }
      ],
      "name": "addDebtDigest",
      "outputs": [
        {
          "name": "",
          "type": "bytes32"
        }
      ],
      "payable": false,
      "stateMutability": "pure",
      "type": "function"
    },
    {
      "constant": true,
      "inputs": [
        {
          "name": "_destination",
          "type": "address"
        },
        {
          "name": "_token",
          "type": "address"
        },
        {
          "name": "_salt",
          "type": "uint16"
        }
      ],
      "name": "debtIdentifier",
      "outputs": [
        {
          "name": "",
          "type": "bytes32"
        }
      ],
      "payable": false,
      "stateMutability": "view",
      "type": "function"
    }
  ],
  "bytecode": "0x60806040523480156200001157600080fd5b5060405160408062002e00833981018060405260408110156200003357600080fd5b50805160209091015160018054600160a060020a031916309081179091556200006c60003364010000000062002b3a620000ca82021704565b506200008860023364010000000062002b3a620000ca82021704565b600491909155600060058190556003805460ff19600160a060020a03949094166101000261010060a860020a031990911617929092169091556006556200015d565b600160a060020a0381161515620000e057600080fd5b620000f5828264010000000062000125810204565b156200010057600080fd5b600160a060020a0316600090815260209190915260409020805460ff19166001179055565b6000600160a060020a03821615156200013d57600080fd5b50600160a060020a03166000908152602091909152604090205460ff1690565b612c93806200016d6000396000f3fe60806040526004361061017c5763ffffffff60e060020a6000350416630338f63a811461018157806307da68f5146102465780630c3f6acf1461025b5780631cfb50d9146102945780632f54bf6e146102d9578063343b286f146103205780633785f7a9146103d357806347e7ef241461053d5780634b544c1d146105765780635034c19b146106395780635461087a1461066c578063659378aa146106a757806368ff2365146106ea578063782efb14146107325780637df73e27146107655780637ebab117146107985780638cdcd73c1461085b578063900b5a1b1461088e5780639894b27914610948578063a9caa4111461095d578063b2ddae42146109c2578063b3d97745146109d7578063c3d0664114610a91578063c48fa7be14610b54578063c760c5a114610b69578063c981a24c14610bb2578063e27dd7b614610be5578063e3d670d714610c16578063ed9fe44a14610c49578063ef6e86cb14610c7c578063f2801e2b14610c91578063f37e8d3814610ca6575b600080fd5b34801561018d57600080fd5b50610244600480360360408110156101a457600080fd5b600160a060020a0382351691908101906040810160208201356401000000008111156101cf57600080fd5b8201836020820111156101e157600080fd5b8035906020019184600183028401116401000000008311171561020357600080fd5b91908080601f016020809104026020016040519081016040528093929190818152602001838380828437600092019190915250929550610d79945050505050565b005b34801561025257600080fd5b50610244610e38565b34801561026757600080fd5b50610270610fca565b6040518082600281111561028057fe5b60ff16815260200191505060405180910390f35b3480156102a057600080fd5b506102c7600480360360208110156102b757600080fd5b5035600160a060020a0316610ffe565b60408051918252519081900360200190f35b3480156102e557600080fd5b5061030c600480360360208110156102fc57600080fd5b5035600160a060020a0316611070565b604080519115158252519081900360200190f35b34801561032c57600080fd5b506102446004803603602081101561034357600080fd5b81019060208101813564010000000081111561035e57600080fd5b82018360208201111561037057600080fd5b8035906020019184600183028401116401000000008311171561039257600080fd5b91908080601f016020809104026020016040519081016040528093929190818152602001838380828437600092019190915250929550611089945050505050565b3480156103df57600080fd5b50610244600480360360e08110156103f657600080fd5b600160a060020a03823581169260208101359091169160408201359161ffff606082013516916080820135919081019060c0810160a082013564010000000081111561044157600080fd5b82018360208201111561045357600080fd5b8035906020019184600183028401116401000000008311171561047557600080fd5b91908080601f01602080910402602001604051908101604052809392919081815260200183838082843760009201919091525092959493602081019350359150506401000000008111156104c857600080fd5b8201836020820111156104da57600080fd5b803590602001918460018302840111640100000000831117156104fc57600080fd5b91908080601f0160208091040260200160405190810160405280939291908181526020018383808284376000920191909152509295506111b3945050505050565b34801561054957600080fd5b506102446004803603604081101561056057600080fd5b50600160a060020a0381351690602001356115ec565b34801561058257600080fd5b506102446004803603604081101561059957600080fd5b600160a060020a0382351691908101906040810160208201356401000000008111156105c457600080fd5b8201836020820111156105d657600080fd5b803590602001918460018302840111640100000000831117156105f857600080fd5b91908080601f0160208091040260200160405190810160405280939291908181526020018383808284376000920191909152509295506117ae945050505050565b34801561064557600080fd5b506102c76004803603602081101561065c57600080fd5b5035600160a060020a0316611925565b34801561067857600080fd5b506102c76004803603604081101561068f57600080fd5b50600160a060020a0381358116916020013516611997565b3480156106b357600080fd5b506102c7600480360360608110156106ca57600080fd5b50600160a060020a03813581169160208101359091169060400135611a0b565b3480156106f657600080fd5b506102c76004803603606081101561070d57600080fd5b508035600160a060020a03908116916020810135909116906040013561ffff16611a84565b34801561073e57600080fd5b506102c76004803603602081101561075557600080fd5b5035600160a060020a0316611ad3565b34801561077157600080fd5b5061030c6004803603602081101561078857600080fd5b5035600160a060020a0316611b3a565b3480156107a457600080fd5b50610244600480360360408110156107bb57600080fd5b600160a060020a0382351691908101906040810160208201356401000000008111156107e657600080fd5b8201836020820111156107f857600080fd5b8035906020019184600183028401116401000000008311171561081a57600080fd5b91908080601f016020809104026020016040519081016040528093929190818152602001838380828437600092019190915250929550611b4c945050505050565b34801561086757600080fd5b506102c76004803603602081101561087e57600080fd5b5035600160a060020a0316611cc3565b34801561089a57600080fd5b50610244600480360360408110156108b157600080fd5b813591908101906040810160208201356401000000008111156108d357600080fd5b8201836020820111156108e557600080fd5b8035906020019184600183028401116401000000008311171561090757600080fd5b91908080601f016020809104026020016040519081016040528093929190818152602001838380828437600092019190915250929550611d35945050505050565b34801561095457600080fd5b506102c7611f71565b34801561096957600080fd5b506109876004803603602081101561098057600080fd5b5035611f77565b60408051600160a060020a03968716815294909516602085015283850192909252606083015261ffff16608082015290519081900360a00190f35b3480156109ce57600080fd5b506102c7611fb6565b3480156109e357600080fd5b50610244600480360360408110156109fa57600080fd5b81359190810190604081016020820135640100000000811115610a1c57600080fd5b820183602082011115610a2e57600080fd5b80359060200191846001830284011164010000000083111715610a5057600080fd5b91908080601f016020809104026020016040519081016040528093929190818152602001838380828437600092019190915250929550611fbc945050505050565b348015610a9d57600080fd5b5061024460048036036040811015610ab457600080fd5b600160a060020a038235169190810190604081016020820135640100000000811115610adf57600080fd5b820183602082011115610af157600080fd5b80359060200191846001830284011164010000000083111715610b1357600080fd5b91908080601f0160208091040260200160405190810160405280939291908181526020018383808284376000920191909152509295506124ff945050505050565b348015610b6057600080fd5b506102c76125b3565b348015610b7557600080fd5b506102c760048036036080811015610b8c57600080fd5b50600160a060020a038135811691602081013590911690604081013590606001356125b9565b348015610bbe57600080fd5b506102c760048036036020811015610bd557600080fd5b5035600160a060020a031661263b565b348015610bf157600080fd5b50610bfa6126ad565b60408051600160a060020a039092168252519081900360200190f35b348015610c2257600080fd5b506102c760048036036020811015610c3957600080fd5b5035600160a060020a03166126c1565b348015610c5557600080fd5b506102c760048036036020811015610c6c57600080fd5b5035600160a060020a03166126d3565b348015610c8857600080fd5b506102c761273a565b348015610c9d57600080fd5b50610270612740565b348015610cb257600080fd5b5061024460048036036080811015610cc957600080fd5b600160a060020a03823581169260208101359091169160408201359190810190608081016060820135640100000000811115610d0457600080fd5b820183602082011115610d1657600080fd5b80359060200191846001830284011164010000000083111715610d3857600080fd5b91908080601f016020809104026020016040519081016040528093929190818152602001838380828437600092019190915250929550612749945050505050565b6000610d8c610d8784610ffe565b612a13565b90506000610d9a8284612a64565b9050610da581611070565b1515610e21576040805160e560020a62461bcd02815260206004820152602b60248201527f6164644f776e65723a2053686f756c64206265207369676e6564206279206f6e60448201527f65206f66206f776e657273000000000000000000000000000000000000000000606482015290519081900360840190fd5b610e3260028563ffffffff612b3a16565b50505050565b6002610e42610fca565b6002811115610e4d57fe5b14610ea2576040805160e560020a62461bcd02815260206004820181905260248201527f73746f703a204d75737420626520696e204469736d6973736564207374617465604482015290519081900360640190fd5b60065415610f20576040805160e560020a62461bcd02815260206004820152602d60248201527f73746f703a2054686572652061726520736f6d6520646562747320657869737460448201527f7320696e20636f6e747261637400000000000000000000000000000000000000606482015290519081900360840190fd5b60075415610f9e576040805160e560020a62461bcd02815260206004820152603660248201527f73746f703a204e65656420746f2068617665206e756c6c2062616c616e63657360448201527f20666f72207573696e672073746f70206d6574686f6400000000000000000000606482015290519081900360840190fd5b6040517fe9bfaf6fba36e18b5ab59d3ce474c3c6ca70a774281a289427aedb69a046a1ea90600090a133ff5b6000600554600014158015610fe157506005544210155b15610ff4576003805460ff191660021790555b5060035460ff1690565b604080513081830152600160a060020a038316606080830191909152602080830191909152600260808301527f616f00000000000000000000000000000000000000000000000000000000000060a0808401919091528351808403909101815260c09092019092528051910120919050565b600061108360028363ffffffff612b8816565b92915050565b6000611093610fca565b600281111561109e57fe5b146110f3576040805160e560020a62461bcd02815260206004820152601f60248201527f7265746972653a204d75737420626520696e2041637469766520737461746500604482015290519081900360640190fd5b6000611101610d8730611ad3565b9050600061110f8284612a64565b905061111a81611b3a565b1515611170576040805160e560020a62461bcd02815260206004820152601860248201527f7265746972653a2053686f756c64206265207369676e65640000000000000000604482015290519081900360640190fd5b60045442016005556003805460ff191660011790556040517fdea62f60aed6357392635b274709928e0e2e422770c1885e3075f93f63237fbe90600090a1505050565b60026111bd610fca565b60028111156111c857fe5b1415611244576040805160e560020a62461bcd02815260206004820152603d60248201527f616464446562743a20436f6e747261637420697320696e206469736d6973736560448201527f642073746174652e2043616e206e6f7420616464206e65772064656274000000606482015290519081900360840190fd5b6000611255610d87898989886125b9565b905060006112638285612a64565b905061126e81611b3a565b15156112ea576040805160e560020a62461bcd02815260206004820152602260248201527f616464446562743a2053686f756c64206265207369676e6564206279206f776e60448201527f6572000000000000000000000000000000000000000000000000000000000000606482015290519081900360840190fd5b60006112f68385612a64565b905060008a905080600160a060020a0316637df73e27836040518263ffffffff1660e060020a0281526004018082600160a060020a0316600160a060020a0316815260200191505060206040518083038186803b15801561135657600080fd5b505afa15801561136a573d6000803e3d6000fd5b505050506040513d602081101561138057600080fd5b505115156113fe576040805160e560020a62461bcd02815260206004820152602560248201527f616464446562743a2053686f756c64206265207369676e65642062792063726560448201527f6469746f72000000000000000000000000000000000000000000000000000000606482015290519081900360840190fd5b600061140b8c8c8b611a84565b6000818152600860205260409020600201549091501561149b576040805160e560020a62461bcd02815260206004820152602260248201527f616464446562743a2043616e206e6f74206f766572726964652065786973746960448201527f6e67000000000000000000000000000000000000000000000000000000000000606482015290519081900360840190fd5b60a0604051908101604052808d600160a060020a031681526020018c600160a060020a0316815260200189420181526020018b81526020018a61ffff168152506008600083815260200190815260200160002060008201518160000160006101000a815481600160a060020a030219169083600160a060020a0316021790555060208201518160010160006101000a815481600160a060020a030219169083600160a060020a03160217905550604082015181600201556060820151816003015560808201518160040160006101000a81548161ffff021916908361ffff16021790555090505060016006600082825401925050819055508a600160a060020a03168c600160a060020a03167f2d078bdbe31a4f135549319bb8f04e34ce787751d920f5649c307e61e2d8755b8c6040518082815260200191505060405180910390a3505050505050505050505050565b604080517f23b872dd0000000000000000000000000000000000000000000000000000000081523360048201523060248201526044810183905290518391600160a060020a038316916323b872dd916064808201926020929091908290030181600087803b15801561165d57600080fd5b505af1158015611671573d6000803e3d6000fd5b505050506040513d602081101561168757600080fd5b50511515611705576040805160e560020a62461bcd02815260206004820152603160248201527f6465706f7369743a20556e61626c6520746f207472616e7366657220746f6b6560448201527f6e20746f2074686520636f6e7472616374000000000000000000000000000000606482015290519081900360840190fd5b600160a060020a038316600090815260096020526040902054151561172e576007805460010190555b600160a060020a038316600090815260096020526040902054611757908363ffffffff612bbf16565b600160a060020a038416600081815260096020908152604091829020939093558051858152905191927f67b910fa040657b3d16456bb3485c92024c708a57feebdd18e1fbd5b7d028d9f92918290030190a2505050565b60006117bc610d878461263b565b905060006117ca8284612a64565b600154604080517f2f54bf6e000000000000000000000000000000000000000000000000000000008152600160a060020a0380851660048301529151939450911691632f54bf6e91602480820192602092909190829003018186803b15801561183257600080fd5b505afa158015611846573d6000803e3d6000fd5b505050506040513d602081101561185c57600080fd5b505115156118da576040805160e560020a62461bcd02815260206004820152602c60248201527f6164645369676e65723a2053686f756c64206265207369676e6564206279206f60448201527f6e65206f66206f776e6572730000000000000000000000000000000000000000606482015290519081900360840190fd5b6118eb60008563ffffffff612b3a16565b604051600160a060020a038516907f47d1c22a25bb3a5d4e481b9b1e6944c2eade3181a0a20b495ed61d35b5323f2490600090a250505050565b604080513081830152600160a060020a038316606080830191909152602080830191909152600260808301527f727300000000000000000000000000000000000000000000000000000000000060a0808401919091528351808403909101815260c09092019092528051910120919050565b60408051600160a060020a039384168183015291909216606080830191909152602080830191909152600260808301527f666f00000000000000000000000000000000000000000000000000000000000060a0808401919091528351808403909101815260c0909201909252805191012090565b60408051600160a060020a0394851681830152929093166060830152608080830191909152602080830191909152600260a08301527f776900000000000000000000000000000000000000000000000000000000000060c0808401919091528351808403909101815260e0909201909252805191012090565b6040805130602080830191909152600160a060020a039586168284015293909416606085015261ffff919091166080808501919091528151808503909101815260a09093019052815191012090565b60408051600160a060020a038316818301526020808201839052600260608301527f72650000000000000000000000000000000000000000000000000000000000006080808401919091528351808403909101815260a09092019092528051910120919050565b6000611083818363ffffffff612b8816565b6000611b5a610d8784611925565b90506000611b688284612a64565b600154604080517f2f54bf6e000000000000000000000000000000000000000000000000000000008152600160a060020a0380851660048301529151939450911691632f54bf6e91602480820192602092909190829003018186803b158015611bd057600080fd5b505afa158015611be4573d6000803e3d6000fd5b505050506040513d6020811015611bfa57600080fd5b50511515611c78576040805160e560020a62461bcd02815260206004820152602f60248201527f72656d6f76655369676e65723a2053686f756c64206265207369676e6564206260448201527f79206f6e65206f66206f776e6572730000000000000000000000000000000000606482015290519081900360840190fd5b611c8960008563ffffffff612bd816565b604051600160a060020a038516907f3525e22824a8a7df2c9a6029941c824cf95b6447f1e13d5128fd3826d35afe8b90600090a250505050565b604080513081830152600160a060020a038316606080830191909152602080830191909152600260808301527f726f00000000000000000000000000000000000000000000000000000000000060a0808401919091528351808403909101815260c09092019092528051910120919050565b611d3d612c39565b506000828152600860209081526040808320815160a0810183528154600160a060020a0390811680835260018401549091169482018590526002830154938201939093526003820154606082015260049091015461ffff166080820152929091908290611dad610d878385611997565b90506000611dbb8288612a64565b905082600160a060020a0316637df73e27826040518263ffffffff1660e060020a0281526004018082600160a060020a0316600160a060020a0316815260200191505060206040518083038186803b158015611e1657600080fd5b505afa158015611e2a573d6000803e3d6000fd5b505050506040513d6020811015611e4057600080fd5b50511515611ebe576040805160e560020a62461bcd02815260206004820152602660248201527f666f7267697665446562743a2053686f756c64206265207369676e656420627960448201527f206f746865720000000000000000000000000000000000000000000000000000606482015290519081900360840190fd5b83600160a060020a031685600160a060020a03167f072344a4137dcbffc9234fb806e11a55d95c374109775da8c77d5ed36b8fe9ed88606001516040518082815260200191505060405180910390a3505050600094855250506008602052505060408120805473ffffffffffffffffffffffffffffffffffffffff1990811682556001820180549091169055600281018290556003810191909155600401805461ffff1916905560068054600019019055565b60065481565b60086020526000908152604090208054600182015460028301546003840154600490940154600160a060020a03938416949390921692909161ffff1685565b60045481565b611fc4612c39565b50600082815260086020908152604091829020825160a0810184528154600160a060020a039081168252600183015416928101929092526002810154928201839052600381015460608301526004015461ffff16608082015290151561209a576040805160e560020a62461bcd02815260206004820152603260248201527f636f6c6c656374446562743a204465627420776974682073706563696669656460448201527f20494420646f6573206e6f7420666f756e640000000000000000000000000000606482015290519081900360840190fd5b805160208201518160006120b0610d87846126d3565b905060006120be8288612a64565b905082600160a060020a0316637df73e27826040518263ffffffff1660e060020a0281526004018082600160a060020a0316600160a060020a0316815260200191505060206040518083038186803b15801561211957600080fd5b505afa15801561212d573d6000803e3d6000fd5b505050506040513d602081101561214357600080fd5b505115156121c1576040805160e560020a62461bcd02815260206004820152602660248201527f636f6c6c656374446562743a2053686f756c64206265207369676e656420627960448201527f206f746865720000000000000000000000000000000000000000000000000000606482015290519081900360840190fd5b6040860151421015612243576040805160e560020a62461bcd02815260206004820152602c60248201527f636f6c6c656374446562743a2043616e206f6e6c7920636f6c6c65637420657860448201527f697374696e672073747566660000000000000000000000000000000000000000606482015290519081900360840190fd5b600160a060020a038416600090815260096020526040812054606088015186929110156122895750600160a060020a0385166000908152600960205260409020546122d2565b506060870151604080518281529051600160a060020a0380891692908a16917e6961675c3a86ce692a816fc0690bea5024beddb204bddab036805b1e41ed649181900360200190a35b60608801516122e7908263ffffffff612c2416565b6060890152600160a060020a038616600090815260096020526040902054612315908263ffffffff612c2416565b600160a060020a03808816600081815260096020908152604091829020859055815194855290519193928b16927f324f9155ed66e3244ff2c26eac5aa58c6544c9a886cb7008e8e1d9f4c6b76d89929081900390910190a381600160a060020a031663095ea7b388836040518363ffffffff1660e060020a0281526004018083600160a060020a0316600160a060020a0316815260200182815260200192505050602060405180830381600087803b1580156123d057600080fd5b505af11580156123e4573d6000803e3d6000fd5b505050506040513d60208110156123fa57600080fd5b50511515612478576040805160e560020a62461bcd02815260206004820152602b60248201527f636f6c6c656374446562743a2043616e206e6f7420617070726f766520746f6b60448201527f656e207472616e73666572000000000000000000000000000000000000000000606482015290519081900360840190fd5b84600160a060020a03166347e7ef2487836040518363ffffffff1660e060020a0281526004018083600160a060020a0316600160a060020a0316815260200182815260200192505050600060405180830381600087803b1580156124db57600080fd5b505af11580156124ef573d6000803e3d6000fd5b5050505050505050505050505050565b600061250d610d8784611cc3565b9050600061251b8284612a64565b905061252681611070565b15156125a2576040805160e560020a62461bcd02815260206004820152602e60248201527f72656d6f76654f776e65723a2053686f756c64206265207369676e656420627960448201527f206f6e65206f66206f776e657273000000000000000000000000000000000000606482015290519081900360840190fd5b610e3260028563ffffffff612bd816565b60075481565b60408051600160a060020a0395861681830152939094166060840152608083019190915260a080830191909152602080830191909152600260c08301527f616400000000000000000000000000000000000000000000000000000000000060e08084019190915283518084039091018152610100909201909252805191012090565b604080513081830152600160a060020a038316606080830191909152602080830191909152600260808301527f617300000000000000000000000000000000000000000000000000000000000060a0808401919091528351808403909101815260c09092019092528051910120919050565b6003546101009004600160a060020a031681565b60096020526000908152604090205481565b60408051600160a060020a038316818301526020808201839052600260608301527f636f0000000000000000000000000000000000000000000000000000000000006080808401919091528351808403909101815260a09092019092528051910120919050565b60055481565b60035460ff1681565b600160a060020a038316600090815260096020526040902054821115612805576040805160e560020a62461bcd02815260206004820152605460248201527f77697468647261773a20547279696e6720746f20776974686472617720616d6f60448201527f756e7420776869636820657863656564732063757272656e742062616c616e6360648201527f6520696e2073706563696669656420746f6b656e000000000000000000000000608482015290519081900360a40190fd5b826000612816610d87878487611a0b565b905060006128248285612a64565b905061282f81611b3a565b1515612885576040805160e560020a62461bcd02815260206004820152601a60248201527f77697468647261773a2053686f756c64206265207369676e6564000000000000604482015290519081900360640190fd5b82600160a060020a031663a9059cbb88876040518363ffffffff1660e060020a0281526004018083600160a060020a0316600160a060020a0316815260200182815260200192505050602060405180830381600087803b1580156128e857600080fd5b505af11580156128fc573d6000803e3d6000fd5b505050506040513d602081101561291257600080fd5b5051151561296a576040805160e560020a62461bcd02815260206004820181905260248201527f77697468647261773a2043616e206e6f74207472616e7366657220746f6b656e604482015290519081900360640190fd5b600160a060020a038616600090815260096020526040902054612993908663ffffffff612c2416565b600160a060020a038716600090815260096020526040902081905515156129bf57600780546000190190555b85600160a060020a031687600160a060020a03167f30e6a5fbc5561e2b7f128a4a32fcb64e4c1eb6b72d14ba951dac89307c4d3291876040518082815260200191505060405180910390a350505050505050565b604080517f19457468657265756d205369676e6564204d6573736167653a0a333200000000602080830191909152603c8083019490945282518083039094018452605c909101909152815191012090565b60008060008084516041141515612a815760009350505050611083565b50505060208201516040830151606084015160001a601b60ff82161015612aa657601b015b8060ff16601b14158015612abe57508060ff16601c14155b15612acf5760009350505050611083565b6040805160008152602080820180845289905260ff8416828401526060820186905260808201859052915160019260a0808401939192601f1981019281900390910190855afa158015612b26573d6000803e3d6000fd5b505050602060405103519350505050611083565b600160a060020a0381161515612b4f57600080fd5b612b598282612b88565b15612b6357600080fd5b600160a060020a0316600090815260209190915260409020805460ff19166001179055565b6000600160a060020a0382161515612b9f57600080fd5b50600160a060020a03166000908152602091909152604090205460ff1690565b600082820183811015612bd157600080fd5b9392505050565b600160a060020a0381161515612bed57600080fd5b612bf78282612b88565b1515612c0257600080fd5b600160a060020a0316600090815260209190915260409020805460ff19169055565b600082821115612c3357600080fd5b50900390565b6040805160a0810182526000808252602082018190529181018290526060810182905260808101919091529056fea165627a7a72305820ec345df3bac99f5c9dfa8b4bb885680c180b6fde52dbf77d23822c4fe312b5a40029",
  "source": "pragma solidity ^0.5.0;\n\nimport \"openzeppelin-solidity/contracts/token/ERC20/IERC20.sol\";\nimport \"openzeppelin-solidity/contracts/math/SafeMath.sol\";\nimport \"openzeppelin-solidity/contracts/cryptography/ECDSA.sol\";\nimport \"./vendor/Ownable.sol\";\nimport \"./vendor/SignerRole.sol\";\n\n\n/// @title Holding\ncontract Holding is SignerRole, OwnerRole {\n    using SafeMath for uint256;\n\n    enum State {\n        Active,      // Usual case, all operations are permitted\n        Retired,     // End of life of contract state, contract will terminated soon.\n        Dismissed    // No new debts could be added. One could only repay the existing debts.\n    }\n\n    struct Debt {\n        address destination;     // Receiver address of debt\n        address token;           // Currency of debt\n        uint256 collectionAfter; // Creditor can claim debt after \"collectionAfter\" seconds\n        uint256 amount;          // Amount of debt\n        uint16  salt;            // ID of debt\n    }\n\n    State public _currentState;\n    address public _clearingHouse;\n    uint256 public _retiringPeriod;\n    uint256 public _retiringUntil;\n    uint256 public _debtsSize;\n    uint256 public _balanceSize;\n\n    mapping (bytes32 => Debt) public debts;\n    // mapping (address of token contract) => (balance in tokens)\n    mapping (address => uint256) public balance;\n\n    event DidDeposit(address indexed token, uint256 amount);\n    event DidAddDebt(address indexed destination, address indexed token, uint256 amount);\n    event DidCollect(address indexed destination, address indexed token, uint256 amount);\n    event DidClose(address indexed destination, address indexed token, uint256 amount);\n    event DidWithdraw(address indexed destination, address indexed token, uint256 amount);\n    event DidForgive(address indexed destination, address indexed token, uint256 amount);\n    event DidRetired();\n    event DidStop();\n\n    /*** ACTIONS AND CONSTRAINTS ***/\n\n    /// @notice Constructs the new \"Holding\" contract.\n    /// @param retiringPeriod How many time Holding resides in Retire state since retire() method called.\n    /// @param clearingHouse Address of contract that available to clear debts.\n    constructor (uint256 retiringPeriod, address clearingHouse) public SignerRole(this) {\n        _retiringPeriod = retiringPeriod;\n        _retiringUntil = 0;\n        _clearingHouse = clearingHouse;\n        _currentState = State.Active;\n        _debtsSize = 0;\n    }\n\n    /// @notice Get current contract lifecycle stage.\n    /// @return { State.Active OR State.Retire OR State.Dismissed\n    function currentState () public returns (State) {\n        if (_retiringUntil != 0 && block.timestamp >= _retiringUntil) {\n            _currentState = State.Dismissed;\n        }\n        return _currentState;\n    }\n\n    /// @notice Prepare contract for termination. Starts a retiring period.\n    /// After retiring period no new debts could be added. One could only repay the existing debts.\n    /// @param _signature Signature of contract owner\n    function retire (bytes memory _signature) public {\n        require(currentState() == State.Active, \"retire: Must be in Active state\");\n        bytes32 digest = ECDSA.toEthSignedMessageHash(retireDigest(address(this)));\n        address recovered = ECDSA.recover(digest, _signature);\n        require(isSigner(recovered), \"retire: Should be signed\");\n\n        _retiringUntil = block.timestamp + _retiringPeriod;\n        _currentState = State.Retired;\n\n        emit DidRetired();\n    }\n\n    /// @notice Prepare contract for termination. Starts a retiring period.\n    //  After retiring period no new debts could be added. One could only repay the existing debts.\n    function stop() public {\n        require(currentState() == State.Dismissed, \"stop: Must be in Dismissed state\");\n        require(_debtsSize == 0, \"stop: There are some debts exists in contract\");\n        require(_balanceSize == 0, \"stop: Need to have null balances for using stop method\");\n\n        emit DidStop();\n\n        selfdestruct(address(msg.sender));\n\n    }\n\n    /// @notice Add deposit with value _amount in currency _token\n    /// @param _token Currency of deposit\n    /// @param _amount Value of deposit\n    function deposit (address _token, uint256 _amount) public {\n        IERC20 token = IERC20(_token);\n        require(token.transferFrom(msg.sender, address(this), _amount), \"deposit: Unable to transfer token to the contract\");\n        if (balance[_token] == 0) {\n            _balanceSize += 1;\n        }\n\n        balance[_token] = balance[_token].add(_amount);\n        emit DidDeposit(_token, _amount);\n    }\n\n    /// @notice Transfer _amount of _token to _destination address.\n    /// @param _destination Destination of tokens\n    /// @param _token Currency of withdraw\n    /// @param _amount Value of withdraw\n    /// @param _signature Signature of contract owner (debtor) of withdrawDigest\n    function withdraw (address _destination, address _token, uint256 _amount, bytes memory _signature) public {\n        require(_amount <= balance[_token], \"withdraw: Trying to withdraw amount which exceeds current balance in specified token\");\n        IERC20 token = IERC20(_token);\n        bytes32 digest = ECDSA.toEthSignedMessageHash(withdrawDigest(_destination, _token, _amount));\n        address recovered = ECDSA.recover(digest, _signature);\n        require(isSigner(recovered), \"withdraw: Should be signed\");\n        require(token.transfer(_destination, _amount), \"withdraw: Can not transfer token\");\n        balance[_token] = balance[_token].sub(_amount);\n        if (balance[_token] == 0) {\n            _balanceSize -= 1;\n        }\n\n        emit DidWithdraw(_destination, _token, _amount);\n    }\n\n    /// @notice Claim the debt from debtor\n    /// @param _id ID of debt in debt mapping\n    /// @param _signature Signature of debtor of collectDigest\n    function collectDebt (bytes32 _id, bytes memory _signature) public {\n        Debt memory debt = debts[_id];\n        require(debt.collectionAfter != 0, \"collectDebt: Debt with specified ID does not found\");\n        address destination = debt.destination;\n\n        address tokenContract = debt.token;\n        Holding other = Holding(destination);\n\n        bytes32 digest = ECDSA.toEthSignedMessageHash(collectDigest(tokenContract));\n        address recoveredOther = ECDSA.recover(digest, _signature);\n\n        require(other.isSigner(recoveredOther), \"collectDebt: Should be signed by other\");\n\n        require(debt.collectionAfter <= block.timestamp, \"collectDebt: Can only collect existing stuff\");\n        IERC20 token = IERC20(tokenContract);\n        uint256 amountToSend;\n        if (debt.amount > balance[tokenContract]) {\n            amountToSend = balance[tokenContract];\n        } else {\n            amountToSend = debt.amount;\n            emit DidClose(destination, tokenContract, amountToSend);\n        }\n\n        debt.amount = debt.amount.sub(amountToSend);\n        balance[tokenContract] = balance[tokenContract].sub(amountToSend);\n        emit DidCollect(destination, tokenContract, balance[tokenContract]);\n\n        require(token.approve(destination, amountToSend), \"collectDebt: Can not approve token transfer\");\n        other.deposit(tokenContract, amountToSend);\n    }\n\n    /// @notice Add debt to contract\n    /// @param _destination Address of creditor\n    /// @param _token Currency of debt\n    /// @param _amount Value of debt\n    /// @param _salt ID of debt between creditor and debtor\n    /// @param _settlementPeriod Time in seconds after that creditor can claim to return debt\n    /// @param _sigDebtor Signature of debtor\n    /// @param _sigCreditor Signature of creditor\n    function addDebt (\n        address _destination,\n        address _token,\n        uint256 _amount,\n        uint16 _salt,\n        uint256 _settlementPeriod,\n        bytes memory _sigDebtor,\n        bytes memory _sigCreditor\n    ) public\n    {\n        require(currentState() != State.Dismissed, \"addDebt: Contract is in dismissed state. Can not add new debt\");\n        bytes32 digest = ECDSA.toEthSignedMessageHash(addDebtDigest(_destination, _token, _amount, _settlementPeriod));\n        address recoveredOwner = ECDSA.recover(digest, _sigDebtor);\n        require(isSigner(recoveredOwner), \"addDebt: Should be signed by owner\");\n\n        address recoveredCreditor = ECDSA.recover(digest, _sigCreditor);\n        Holding creditor = Holding(_destination);\n        require(creditor.isSigner(recoveredCreditor), \"addDebt: Should be signed by creditor\");\n\n        bytes32 debtID = debtIdentifier(_destination, _token, _salt);\n\n        require(debts[debtID].collectionAfter == 0, \"addDebt: Can not override existing\");\n\n        debts[debtID] = Debt({\n            destination: _destination,\n            token: _token,\n            amount: _amount,\n            collectionAfter: block.timestamp + _settlementPeriod,\n            salt: _salt\n        });\n\n        _debtsSize += 1;\n\n        emit DidAddDebt(_destination, _token, _amount);\n    }\n\n    /// @notice Forgive a debt. Can be called by creditor.\n    /// @param _id ID of debt in debt mapping\n    /// @param _signature Currency of creditor\n    function forgiveDebt (bytes32 _id, bytes memory _signature) public {\n        Debt memory debt = debts[_id];\n        address destination = debt.destination;\n        address tokenContract = debt.token;\n        Holding other = Holding(destination);\n        bytes32 digest = ECDSA.toEthSignedMessageHash(forgiveDigest(destination, tokenContract));\n        address recoveredOther = ECDSA.recover(digest, _signature);\n        require(other.isSigner(recoveredOther), \"forgiveDebt: Should be signed by other\");\n\n        emit DidForgive(destination, tokenContract, debt.amount);\n\n        delete debts[_id];\n        _debtsSize -= 1;\n    }\n\n    function forgiveDigest (address _destination, address _token) public pure returns (bytes32) {\n        return keccak256(abi.encode(\"fo\", _destination, _token));\n    }\n\n    function collectDigest (address _token) public pure returns (bytes32) {\n        return keccak256(abi.encode(\"co\", _token));\n    }\n\n    function withdrawDigest (address _destination, address _token, uint256 _amount) public pure returns (bytes32) {\n        return keccak256(abi.encode(\"wi\", _destination, _token, _amount));\n    }\n\n    function retireDigest (address contractAddress) public pure returns (bytes32) {\n        return keccak256(abi.encode(\"re\", contractAddress));\n    }\n\n    function addDebtDigest (\n        address _destination,\n        address _token,\n        uint256 _amount,\n        uint256 _settlementPeriod\n    ) public pure returns (bytes32)\n    {\n        return keccak256(abi.encode(\"ad\", _destination, _token, _amount, _settlementPeriod));\n    }\n\n    function debtIdentifier (address _destination, address _token, uint16 _salt) public view returns (bytes32) {\n        return keccak256(abi.encode(address(this), _destination, _token, _salt));\n    }\n}\n",
  "sourcePath": "/Users/user/Desktop/projects/debt_channel/packages/contracts/contracts/Holding.sol",
  "compiler": {
    "name": "solc",
    "version": "0.5.0+commit.1d4f565a.Emscripten.clang"
  },
  "schemaVersion": "3.0.1",
  "updatedAt": "2019-02-06T17:05:23.817Z",
  "devdoc": {
    "methods": {
      "addDebt(address,address,uint256,uint16,uint256,bytes,bytes)": {
        "params": {
          "_amount": "Value of debt",
          "_destination": "Address of creditor",
          "_salt": "ID of debt between creditor and debtor",
          "_settlementPeriod": "Time in seconds after that creditor can claim to return debt",
          "_sigCreditor": "Signature of creditor",
          "_sigDebtor": "Signature of debtor",
          "_token": "Currency of debt"
        }
      },
      "collectDebt(bytes32,bytes)": {
        "params": {
          "_id": "ID of debt in debt mapping",
          "_signature": "Signature of debtor of collectDigest"
        }
      },
      "constructor": {
        "params": {
          "clearingHouse": "Address of contract that available to clear debts.",
          "retiringPeriod": "How many time Holding resides in Retire state since retire() method called."
        }
      },
      "currentState()": {
        "return": "{ State.Active OR State.Retire OR State.Dismissed"
      },
      "deposit(address,uint256)": {
        "params": {
          "_amount": "Value of deposit",
          "_token": "Currency of deposit"
        }
      },
      "forgiveDebt(bytes32,bytes)": {
        "params": {
          "_id": "ID of debt in debt mapping",
          "_signature": "Currency of creditor"
        }
      },
      "retire(bytes)": {
        "params": {
          "_signature": "Signature of contract owner"
        }
      },
      "withdraw(address,address,uint256,bytes)": {
        "params": {
          "_amount": "Value of withdraw",
          "_destination": "Destination of tokens",
          "_signature": "Signature of contract owner (debtor) of withdrawDigest",
          "_token": "Currency of withdraw"
        }
      }
    },
    "title": "Holding"
  },
  "userdoc": {
    "methods": {
      "addDebt(address,address,uint256,uint16,uint256,bytes,bytes)": {
        "notice": "Add debt to contract"
      },
      "collectDebt(bytes32,bytes)": {
        "notice": "Claim the debt from debtor"
      },
      "constructor": "Constructs the new \"Holding\" contract.",
      "currentState()": {
        "notice": "Get current contract lifecycle stage."
      },
      "deposit(address,uint256)": {
        "notice": "Add deposit with value _amount in currency _token"
      },
      "forgiveDebt(bytes32,bytes)": {
        "notice": "Forgive a debt. Can be called by creditor."
      },
      "retire(bytes)": {
        "notice": "Prepare contract for termination. Starts a retiring period. After retiring period no new debts could be added. One could only repay the existing debts."
      },
      "stop()": {
        "notice": "Prepare contract for termination. Starts a retiring period."
      },
      "withdraw(address,address,uint256,bytes)": {
        "notice": "Transfer _amount of _token to _destination address."
      }
    }
  }
}