{
  "contractName": "Ownable",
  "abi": [
    {
      "constant": false,
      "inputs": [],
      "name": "renounceWhitelistAdmin",
      "outputs": [],
      "payable": false,
      "stateMutability": "nonpayable",
      "type": "function"
    },
    {
      "constant": false,
      "inputs": [
        {
          "name": "account",
          "type": "address"
        }
      ],
      "name": "addWhitelistAdmin",
      "outputs": [],
      "payable": false,
      "stateMutability": "nonpayable",
      "type": "function"
    },
    {
      "constant": true,
      "inputs": [
        {
          "name": "account",
          "type": "address"
        }
      ],
      "name": "isWhitelistAdmin",
      "outputs": [
        {
          "name": "",
          "type": "bool"
        }
      ],
      "payable": false,
      "stateMutability": "view",
      "type": "function"
    },
    {
      "anonymous": false,
      "inputs": [
        {
          "indexed": true,
          "name": "account",
          "type": "address"
        }
      ],
      "name": "WhitelistAdminAdded",
      "type": "event"
    },
    {
      "anonymous": false,
      "inputs": [
        {
          "indexed": true,
          "name": "account",
          "type": "address"
        }
      ],
      "name": "WhitelistAdminRemoved",
      "type": "event"
    },
    {
      "constant": true,
      "inputs": [
        {
          "name": "_newOwner",
          "type": "address"
        }
      ],
      "name": "addOwnerDigest",
      "outputs": [
        {
          "name": "",
          "type": "bytes32"
        }
      ],
      "payable": false,
      "stateMutability": "view",
      "type": "function"
    },
    {
      "constant": true,
      "inputs": [
        {
          "name": "_owner",
          "type": "address"
        }
      ],
      "name": "removeOwnerDigest",
      "outputs": [
        {
          "name": "",
          "type": "bytes32"
        }
      ],
      "payable": false,
      "stateMutability": "view",
      "type": "function"
    },
    {
      "constant": true,
      "inputs": [
        {
          "name": "_owner",
          "type": "address"
        }
      ],
      "name": "isOwner",
      "outputs": [
        {
          "name": "",
          "type": "bool"
        }
      ],
      "payable": false,
      "stateMutability": "view",
      "type": "function"
    },
    {
      "constant": false,
      "inputs": [
        {
          "name": "_newOwner",
          "type": "address"
        },
        {
          "name": "_signature",
          "type": "bytes"
        }
      ],
      "name": "addOwner",
      "outputs": [],
      "payable": false,
      "stateMutability": "nonpayable",
      "type": "function"
    },
    {
      "constant": false,
      "inputs": [
        {
          "name": "_owner",
          "type": "address"
        },
        {
          "name": "_signature",
          "type": "bytes"
        }
      ],
      "name": "removeOwner",
      "outputs": [],
      "payable": false,
      "stateMutability": "nonpayable",
      "type": "function"
    }
  ],
  "bytecode": "0x60806040526100163364010000000061001b810204565b6100f8565b61003360008264010000000061085261006a82021704565b604051600160a060020a038216907f22380c05984257a1cb900161c713dd71d39e74820f1aea43bd3f1bdd2096129990600090a250565b600160a060020a038116151561007f57600080fd5b61009282826401000000006100c1810204565b1561009c57600080fd5b600160a060020a0316600090815260209190915260409020805460ff19166001179055565b6000600160a060020a03821615156100d857600080fd5b50600160a060020a03166000908152602091909152604090205460ff1690565b6108cc806101076000396000f3fe60806040526004361061008d5763ffffffff7c01000000000000000000000000000000000000000000000000000000006000350416630338f63a81146100925780631cfb50d9146101575780632f54bf6e1461019c5780634c5a628c146101e35780637362d9c8146101f85780638cdcd73c1461022b578063bb5f747b1461025e578063c3d0664114610291575b600080fd5b34801561009e57600080fd5b50610155600480360360408110156100b557600080fd5b600160a060020a0382351691908101906040810160208201356401000000008111156100e057600080fd5b8201836020820111156100f257600080fd5b8035906020019184600183028401116401000000008311171561011457600080fd5b91908080601f016020809104026020016040519081016040528093929190818152602001838380828437600092019190915250929550610354945050505050565b005b34801561016357600080fd5b5061018a6004803603602081101561017a57600080fd5b5035600160a060020a0316610422565b60408051918252519081900360200190f35b3480156101a857600080fd5b506101cf600480360360208110156101bf57600080fd5b5035600160a060020a0316610494565b604080519115158252519081900360200190f35b3480156101ef57600080fd5b506101556104a5565b34801561020457600080fd5b506101556004803603602081101561021b57600080fd5b5035600160a060020a03166104b0565b34801561023757600080fd5b5061018a6004803603602081101561024e57600080fd5b5035600160a060020a03166104d0565b34801561026a57600080fd5b506101cf6004803603602081101561028157600080fd5b5035600160a060020a0316610542565b34801561029d57600080fd5b50610155600480360360408110156102b457600080fd5b600160a060020a0382351691908101906040810160208201356401000000008111156102df57600080fd5b8201836020820111156102f157600080fd5b8035906020019184600183028401116401000000008311171561031357600080fd5b91908080601f016020809104026020016040519081016040528093929190818152602001838380828437600092019190915250929550610554945050505050565b600061036761036284610422565b610617565b905060006103758284610668565b905061038081610494565b151561041357604080517f08c379a000000000000000000000000000000000000000000000000000000000815260206004820152602b60248201527f6164644f776e65723a2053686f756c64206265207369676e6564206279206f6e60448201527f65206f66206f776e657273000000000000000000000000000000000000000000606482015290519081900360840190fd5b61041c846104b0565b50505050565b604080513081830152600160a060020a038316606080830191909152602080830191909152600260808301527f616f00000000000000000000000000000000000000000000000000000000000060a0808401919091528351808403909101815260c09092019092528051910120919050565b600061049f82610542565b92915050565b6104ae3361073f565b565b6104b933610542565b15156104c457600080fd5b6104cd81610787565b50565b604080513081830152600160a060020a038316606080830191909152602080830191909152600260808301527f726f00000000000000000000000000000000000000000000000000000000000060a0808401919091528351808403909101815260c09092019092528051910120919050565b600061049f818363ffffffff6107cf16565b6000610562610362846104d0565b905060006105708284610668565b905061057b81610494565b151561060e57604080517f08c379a000000000000000000000000000000000000000000000000000000000815260206004820152602e60248201527f72656d6f76654f776e65723a2053686f756c64206265207369676e656420627960448201527f206f6e65206f66206f776e657273000000000000000000000000000000000000606482015290519081900360840190fd5b61041c8461073f565b604080517f19457468657265756d205369676e6564204d6573736167653a0a333200000000602080830191909152603c8083019490945282518083039094018452605c909101909152815191012090565b60008060008084516041141515610685576000935050505061049f565b50505060208201516040830151606084015160001a601b60ff821610156106aa57601b015b8060ff16601b141580156106c257508060ff16601c14155b156106d3576000935050505061049f565b6040805160008152602080820180845289905260ff8416828401526060820186905260808201859052915160019260a0808401939192601f1981019281900390910190855afa15801561072a573d6000803e3d6000fd5b5050604051601f190151979650505050505050565b61075060008263ffffffff61080616565b604051600160a060020a038216907f0a8eb35e5ca14b3d6f28e4abf2f128dbab231a58b56e89beb5d636115001e16590600090a250565b61079860008263ffffffff61085216565b604051600160a060020a038216907f22380c05984257a1cb900161c713dd71d39e74820f1aea43bd3f1bdd2096129990600090a250565b6000600160a060020a03821615156107e657600080fd5b50600160a060020a03166000908152602091909152604090205460ff1690565b600160a060020a038116151561081b57600080fd5b61082582826107cf565b151561083057600080fd5b600160a060020a0316600090815260209190915260409020805460ff19169055565b600160a060020a038116151561086757600080fd5b61087182826107cf565b1561087b57600080fd5b600160a060020a0316600090815260209190915260409020805460ff1916600117905556fea165627a7a7230582033a8006f2a7ca937325c2696a84a63e4fc17971fd662ac58cebf8c346f2f381b0029",
  "source": "pragma solidity ^0.5.0;\n\nimport \"openzeppelin-solidity/contracts/access/Roles.sol\";\nimport \"openzeppelin-solidity/contracts/access/roles/WhitelistAdminRole.sol\";\nimport \"openzeppelin-solidity/contracts/cryptography/ECDSA.sol\";\n\n/**\n * @title WhitelistAdminRole\n * @dev WhitelistAdmins are responsible for assigning and removing Whitelisted accounts.\n */\ncontract Ownable is WhitelistAdminRole {\n    function addOwnerDigest (address _newOwner) public view returns (bytes32) {\n        return keccak256(abi.encode(\"ao\", address(this), _newOwner));\n    }\n\n    function removeOwnerDigest (address _owner) public view returns (bytes32) {\n        return keccak256(abi.encode(\"ro\", address(this), _owner));\n    }\n\n    function isOwner (address _owner) public view returns (bool) {\n        return isWhitelistAdmin(_owner);\n    }\n\n    function addOwner (address _newOwner, bytes memory _signature) public {\n        bytes32 digest = ECDSA.toEthSignedMessageHash(addOwnerDigest(_newOwner));\n        address newOwner = ECDSA.recover(digest, _signature);\n        require(isOwner(newOwner), \"addOwner: Should be signed by one of owners\");\n        addWhitelistAdmin(_newOwner);\n    }\n\n    function removeOwner (address _owner, bytes memory _signature) public {\n        bytes32 digest = ECDSA.toEthSignedMessageHash(removeOwnerDigest(_owner));\n        address owner = ECDSA.recover(digest, _signature);\n        require(isOwner(owner), \"removeOwner: Should be signed by one of owners\");\n        _removeWhitelistAdmin(_owner);\n    }\n}\n",
  "sourcePath": "/Users/user/Desktop/projects/debt_channel/packages/contracts/contracts/vendor/Ownable.sol",
  "compiler": {
    "name": "solc",
    "version": "0.5.0+commit.1d4f565a.Emscripten.clang"
  },
  "schemaVersion": "3.0.1",
  "updatedAt": "2019-02-06T14:50:58.960Z",
  "devdoc": {
    "details": "WhitelistAdmins are responsible for assigning and removing Whitelisted accounts.",
    "methods": {},
    "title": "WhitelistAdminRole"
  },
  "userdoc": {
    "methods": {}
  }
}